{
  "contractName": "OnlineMP",
  "abi": [
    {
      "inputs": [],
      "stateMutability": "nonpayable",
      "type": "constructor"
    },
    {
      "anonymous": false,
      "inputs": [
        {
          "indexed": true,
          "internalType": "uint256",
          "name": "_prodId",
          "type": "uint256"
        },
        {
          "indexed": false,
          "internalType": "string",
          "name": "_prodName",
          "type": "string"
        },
        {
          "indexed": false,
          "internalType": "string",
          "name": "_prodDescription",
          "type": "string"
        },
        {
          "indexed": false,
          "internalType": "uint256",
          "name": "_prodPrice",
          "type": "uint256"
        },
        {
          "indexed": false,
          "internalType": "uint256",
          "name": "_storeIdp",
          "type": "uint256"
        }
      ],
      "name": "LogAddProduct",
      "type": "event"
    },
    {
      "anonymous": false,
      "inputs": [
        {
          "indexed": true,
          "internalType": "uint256",
          "name": "_storeId",
          "type": "uint256"
        },
        {
          "indexed": true,
          "internalType": "address",
          "name": "_storeOwner",
          "type": "address"
        },
        {
          "indexed": false,
          "internalType": "string",
          "name": "_storeName",
          "type": "string"
        }
      ],
      "name": "LogAddStore",
      "type": "event"
    },
    {
      "anonymous": false,
      "inputs": [
        {
          "indexed": true,
          "internalType": "uint256",
          "name": "_productId",
          "type": "uint256"
        },
        {
          "indexed": true,
          "internalType": "address",
          "name": "_purchaser",
          "type": "address"
        },
        {
          "indexed": false,
          "internalType": "string",
          "name": "_productName",
          "type": "string"
        },
        {
          "indexed": false,
          "internalType": "uint256",
          "name": "_price",
          "type": "uint256"
        }
      ],
      "name": "LogBuyProduct",
      "type": "event"
    },
    {
      "anonymous": false,
      "inputs": [
        {
          "indexed": true,
          "internalType": "uint256",
          "name": "_storeID",
          "type": "uint256"
        },
        {
          "indexed": true,
          "internalType": "address",
          "name": "_storeOwner",
          "type": "address"
        },
        {
          "indexed": false,
          "internalType": "string",
          "name": "_productName",
          "type": "string"
        },
        {
          "indexed": false,
          "internalType": "uint256",
          "name": "_price",
          "type": "uint256"
        }
      ],
      "name": "LogSellProduct",
      "type": "event"
    },
    {
      "anonymous": false,
      "inputs": [
        {
          "indexed": true,
          "internalType": "address",
          "name": "previousOwner",
          "type": "address"
        },
        {
          "indexed": true,
          "internalType": "address",
          "name": "newOwner",
          "type": "address"
        }
      ],
      "name": "OwnershipTransferred",
      "type": "event"
    },
    {
      "inputs": [
        {
          "internalType": "address",
          "name": "",
          "type": "address"
        }
      ],
      "name": "isStoreOwners",
      "outputs": [
        {
          "internalType": "bool",
          "name": "",
          "type": "bool"
        }
      ],
      "stateMutability": "view",
      "type": "function",
      "constant": true
    },
    {
      "inputs": [],
      "name": "owner",
      "outputs": [
        {
          "internalType": "address",
          "name": "",
          "type": "address"
        }
      ],
      "stateMutability": "view",
      "type": "function",
      "constant": true
    },
    {
      "inputs": [
        {
          "internalType": "uint256",
          "name": "",
          "type": "uint256"
        }
      ],
      "name": "products",
      "outputs": [
        {
          "internalType": "uint256",
          "name": "prodId",
          "type": "uint256"
        },
        {
          "internalType": "string",
          "name": "prodName",
          "type": "string"
        },
        {
          "internalType": "string",
          "name": "prodDescription",
          "type": "string"
        },
        {
          "internalType": "uint256",
          "name": "prodPrice",
          "type": "uint256"
        },
        {
          "internalType": "address payable",
          "name": "purchaser",
          "type": "address"
        },
        {
          "internalType": "uint256",
          "name": "storeIdp",
          "type": "uint256"
        }
      ],
      "stateMutability": "view",
      "type": "function",
      "constant": true
    },
    {
      "inputs": [],
      "name": "renounceOwnership",
      "outputs": [],
      "stateMutability": "nonpayable",
      "type": "function"
    },
    {
      "inputs": [
        {
          "internalType": "uint256",
          "name": "",
          "type": "uint256"
        }
      ],
      "name": "stores",
      "outputs": [
        {
          "internalType": "uint256",
          "name": "storeId",
          "type": "uint256"
        },
        {
          "internalType": "string",
          "name": "storeName",
          "type": "string"
        },
        {
          "internalType": "uint256",
          "name": "storeBal",
          "type": "uint256"
        },
        {
          "internalType": "address payable",
          "name": "storeOwner",
          "type": "address"
        }
      ],
      "stateMutability": "view",
      "type": "function",
      "constant": true
    },
    {
      "inputs": [
        {
          "internalType": "address",
          "name": "newOwner",
          "type": "address"
        }
      ],
      "name": "transferOwnership",
      "outputs": [],
      "stateMutability": "nonpayable",
      "type": "function"
    },
    {
      "stateMutability": "payable",
      "type": "receive",
      "payable": true
    },
    {
      "inputs": [],
      "name": "kill",
      "outputs": [],
      "stateMutability": "nonpayable",
      "type": "function"
    },
    {
      "inputs": [
        {
          "internalType": "address",
          "name": "_newStoreOwner",
          "type": "address"
        }
      ],
      "name": "addStoreOwner",
      "outputs": [],
      "stateMutability": "nonpayable",
      "type": "function"
    },
    {
      "inputs": [
        {
          "internalType": "string",
          "name": "_storeName",
          "type": "string"
        }
      ],
      "name": "addStore",
      "outputs": [],
      "stateMutability": "nonpayable",
      "type": "function"
    },
    {
      "inputs": [
        {
          "internalType": "string",
          "name": "_prodName",
          "type": "string"
        },
        {
          "internalType": "string",
          "name": "_prodDescription",
          "type": "string"
        },
        {
          "internalType": "uint256",
          "name": "_prodPrice",
          "type": "uint256"
        }
      ],
      "name": "addProduct",
      "outputs": [],
      "stateMutability": "nonpayable",
      "type": "function"
    },
    {
      "inputs": [],
      "name": "getNumberOfStores",
      "outputs": [
        {
          "internalType": "uint256",
          "name": "",
          "type": "uint256"
        }
      ],
      "stateMutability": "view",
      "type": "function",
      "constant": true
    },
    {
      "inputs": [],
      "name": "getStoresOwned",
      "outputs": [
        {
          "internalType": "uint256[]",
          "name": "",
          "type": "uint256[]"
        }
      ],
      "stateMutability": "view",
      "type": "function",
      "constant": true
    },
    {
      "inputs": [
        {
          "internalType": "uint256",
          "name": "_storeId",
          "type": "uint256"
        }
      ],
      "name": "selectStore",
      "outputs": [
        {
          "internalType": "uint256",
          "name": "",
          "type": "uint256"
        },
        {
          "internalType": "string",
          "name": "",
          "type": "string"
        },
        {
          "internalType": "uint256",
          "name": "",
          "type": "uint256"
        },
        {
          "internalType": "address",
          "name": "",
          "type": "address"
        },
        {
          "internalType": "uint256[]",
          "name": "",
          "type": "uint256[]"
        }
      ],
      "stateMutability": "view",
      "type": "function",
      "constant": true
    },
    {
      "inputs": [],
      "name": "getNumberOfProducts",
      "outputs": [
        {
          "internalType": "uint256",
          "name": "",
          "type": "uint256"
        }
      ],
      "stateMutability": "view",
      "type": "function",
      "constant": true
    },
    {
      "inputs": [],
      "name": "getProductsForSale",
      "outputs": [
        {
          "internalType": "uint256[]",
          "name": "",
          "type": "uint256[]"
        }
      ],
      "stateMutability": "view",
      "type": "function",
      "constant": true
    },
    {
      "inputs": [
        {
          "internalType": "uint256",
          "name": "_prodId",
          "type": "uint256"
        }
      ],
      "name": "selectProduct",
      "outputs": [
        {
          "internalType": "uint256",
          "name": "",
          "type": "uint256"
        },
        {
          "internalType": "string",
          "name": "",
          "type": "string"
        },
        {
          "internalType": "string",
          "name": "",
          "type": "string"
        },
        {
          "internalType": "uint256",
          "name": "",
          "type": "uint256"
        },
        {
          "internalType": "address",
          "name": "",
          "type": "address"
        }
      ],
      "stateMutability": "view",
      "type": "function",
      "constant": true
    },
    {
      "inputs": [
        {
          "internalType": "uint256",
          "name": "_productId",
          "type": "uint256"
        }
      ],
      "name": "buyProduct",
      "outputs": [],
      "stateMutability": "payable",
      "type": "function",
      "payable": true
    }
  ],
  "bytecode": "0x608060405234801561001057600080fd5b5060006100246001600160e01b0361007316565b600080546001600160a01b0319166001600160a01b0383169081178255604051929350917f8be0079c531659141344cd1fd0a4f28419497f9722a3daafe3b4186f6b6457e0908290a350610077565b3390565b611c82806100866000396000f3fe6080604052600436106101015760003560e01c8063715018a6116100955780638da5cb5b116100645780638da5cb5b146106755780639adeb5f1146106a6578063e8a59cd8146106d9578063f28ea1c114610798578063f2fde38b146108d457610108565b8063715018a6146104c657806377a2a439146104db5780637acc0b20146105225780638642269e1461065857610108565b8063440113dd116100d1578063440113dd146102ba578063553b8b69146103e9578063597aa5b2146103fe578063662feffc1461041357610108565b8062e840bf1461010d5780633e505685146101725780633ffd81fb1461027c57806341c0e1b5146102a357610108565b3661010857005b600080fd5b34801561011957600080fd5b50610122610907565b60408051602080825283518183015283519192839290830191858101910280838360005b8381101561015e578181015183820152602001610146565b505050509050019250505060405180910390f35b34801561017e57600080fd5b5061019c6004803603602081101561019557600080fd5b5035610a15565b6040518086815260200180602001858152602001846001600160a01b03166001600160a01b0316815260200180602001838103835287818151815260200191508051906020019080838360005b838110156102015781810151838201526020016101e9565b50505050905090810190601f16801561022e5780820380516001836020036101000a031916815260200191505b508381038252845181528451602091820191808701910280838360005b8381101561026357818101518382015260200161024b565b5050505090500197505050505050505060405180910390f35b34801561028857600080fd5b50610291610ba8565b60408051918252519081900360200190f35b3480156102af57600080fd5b506102b8610bae565b005b3480156102c657600080fd5b506102e4600480360360208110156102dd57600080fd5b5035610c09565b604051808681526020018060200180602001858152602001846001600160a01b03166001600160a01b03168152602001838103835287818151815260200191508051906020019080838360005b83811015610349578181015183820152602001610331565b50505050905090810190601f1680156103765780820380516001836020036101000a031916815260200191505b50838103825286518152865160209182019188019080838360005b838110156103a9578181015183820152602001610391565b50505050905090810190601f1680156103d65780820380516001836020036101000a031916815260200191505b5097505050505050505060405180910390f35b3480156103f557600080fd5b50610122610ddc565b34801561040a57600080fd5b50610291610ee2565b34801561041f57600080fd5b506102b86004803603602081101561043657600080fd5b81019060208101813564010000000081111561045157600080fd5b82018360208201111561046357600080fd5b8035906020019184600183028401116401000000008311171561048557600080fd5b91908080601f016020809104026020016040519081016040528093929190818152602001838380828437600092019190915250929550610ee8945050505050565b3480156104d257600080fd5b506102b86110ea565b3480156104e757600080fd5b5061050e600480360360208110156104fe57600080fd5b50356001600160a01b031661118c565b604080519115158252519081900360200190f35b34801561052e57600080fd5b5061054c6004803603602081101561054557600080fd5b50356111a1565b604051808781526020018060200180602001868152602001856001600160a01b03166001600160a01b03168152602001848152602001838103835288818151815260200191508051906020019080838360005b838110156105b757818101518382015260200161059f565b50505050905090810190601f1680156105e45780820380516001836020036101000a031916815260200191505b50838103825287518152875160209182019189019080838360005b838110156106175781810151838201526020016105ff565b50505050905090810190601f1680156106445780820380516001836020036101000a031916815260200191505b509850505050505050505060405180910390f35b6102b86004803603602081101561066e57600080fd5b50356112f8565b34801561068157600080fd5b5061068a6115fc565b604080516001600160a01b039092168252519081900360200190f35b3480156106b257600080fd5b506102b8600480360360208110156106c957600080fd5b50356001600160a01b031661160b565b3480156106e557600080fd5b50610703600480360360208110156106fc57600080fd5b5035611687565b604080518581529081018390526001600160a01b038216606082015260806020808301828152865192840192909252855160a084019187019080838360005b8381101561075a578181015183820152602001610742565b50505050905090810190601f1680156107875780820380516001836020036101000a031916815260200191505b509550505050505060405180910390f35b3480156107a457600080fd5b506102b8600480360360608110156107bb57600080fd5b8101906020810181356401000000008111156107d657600080fd5b8201836020820111156107e857600080fd5b8035906020019184600183028401116401000000008311171561080a57600080fd5b91908080601f016020809104026020016040519081016040528093929190818152602001838380828437600092019190915250929594936020810193503591505064010000000081111561085d57600080fd5b82018360208201111561086f57600080fd5b8035906020019184600183028401116401000000008311171561089157600080fd5b91908080601f0160208091040260200160405190810160405280939291908181526020018383808284376000920191909152509295505091359250611744915050565b3480156108e057600080fd5b506102b8600480360360208110156108f757600080fd5b50356001600160a01b0316611975565b606080600754604051908082528060200260200182016040528015610936578160200160208202803883390190505b509050600060015b600754811161099e576000818152600660205260409020600401546001600160a01b03161561099657600081815260066020526040902054835184908490811061098457fe5b60209081029190910101526001909101905b60010161093e565b506060816040519080825280602002602001820160405280156109cb578160200160208202803883390190505b50905060005b82811015610a0c578381815181106109e557fe5b60200260200101518282815181106109f957fe5b60209081029190910101526001016109d1565b50925050505b90565b600060606000806060600086118015610a355750610a31610ee2565b8611155b610a86576040805162461bcd60e51b815260206004820152601960248201527f5468652073746f7265204964206973206e6f74207661696c6400000000000000604482015290519081900360640190fd5b6000868152600360208181526040928390208054600280830154948301546001808501805489516101009382161593909302600019011693909304601f810187900487028201870190985287815292969195946001600160a01b039091169360040192918691830182828015610b3d5780601f10610b1257610100808354040283529160200191610b3d565b820191906000526020600020905b815481529060010190602001808311610b2057829003601f168201915b50508454604080516020808402820181019092528281529599508694509092508401905082828015610b8e57602002820191906000526020600020905b815481526020019060010190808311610b7a575b505050505090509450945094509450945091939590929450565b60075490565b610bb6611a6d565b6000546001600160a01b03908116911614610c06576040805162461bcd60e51b81526020600482018190526024820152600080516020611bee833981519152604482015290519081900360640190fd5b33ff5b6000606080600080600086118015610c285750610c24610ba8565b8611155b610c79576040805162461bcd60e51b815260206004820152601b60248201527f5468652070726f64756374204964206973206e6f74207661696c640000000000604482015290519081900360640190fd5b6000868152600660209081526040918290208054600382015460048301546001808501805488516002610100948316159490940260001901909116839004601f810189900489028201890190995288815294979096919095019492936001600160a01b03909216928691830182828015610d345780601f10610d0957610100808354040283529160200191610d34565b820191906000526020600020905b815481529060010190602001808311610d1757829003601f168201915b5050865460408051602060026001851615610100026000190190941693909304601f810184900484028201840190925281815295995088945092508401905082828015610dc25780601f10610d9757610100808354040283529160200191610dc2565b820191906000526020600020905b815481529060010190602001808311610da557829003601f168201915b50989f979e50929c50939a50919850939650505050505050565b606080600454604051908082528060200260200182016040528015610e0b578160200160208202803883390190505b509050600060015b6004548111610e7457600081815260036020819052604090912001546001600160a01b031615610e6c576000818152600360205260409020548351849084908110610e5a57fe5b60209081029190910101526001909101905b600101610e13565b50606081604051908082528060200260200182016040528015610ea1578160200160208202803883390190505b50905060005b82811015610a0c57838181518110610ebb57fe5b6020026020010151828281518110610ecf57fe5b6020908102919091010152600101610ea7565b60045490565b610ef0611a6d565b6000546001600160a01b03908116911614610f40576040805162461bcd60e51b81526020600482018190526024820152600080516020611bee833981519152604482015290519081900360640190fd5b600480546001018082556040805160a08101825282815260208082018690523380318385015260608301526000938452600381529282902090930180548251818502810185019093528083526080850193830182828015610fc057602002820191906000526020600020905b815481526020019060010190808311610fac575b5050509190925250506004546000908152600360209081526040909120825181558282015180519192610ffb92600185019290910190611a71565b506040820151600282015560608201516003820180546001600160a01b0319166001600160a01b0390921691909117905560808201518051611047916004840191602090910190611aef565b505060045460408051602080825285518183015285513395507fdbc4c681c741afb74673129b92c2100d80c142f4ad2df7984c385b5846f5a501938793928392918301919085019080838360005b838110156110ad578181015183820152602001611095565b50505050905090810190601f1680156110da5780820380516001836020036101000a031916815260200191505b509250505060405180910390a350565b6110f2611a6d565b6000546001600160a01b03908116911614611142576040805162461bcd60e51b81526020600482018190526024820152600080516020611bee833981519152604482015290519081900360640190fd5b600080546040516001600160a01b03909116907f8be0079c531659141344cd1fd0a4f28419497f9722a3daafe3b4186f6b6457e0908390a3600080546001600160a01b0319169055565b60026020526000908152604090205460ff1681565b6006602090815260009182526040918290208054600180830180548651600293821615610100026000190190911692909204601f81018690048602830186019096528582529194929390929083018282801561123e5780601f106112135761010080835404028352916020019161123e565b820191906000526020600020905b81548152906001019060200180831161122157829003601f168201915b50505060028085018054604080516020601f60001961010060018716150201909416959095049283018590048502810185019091528181529596959450909250908301828280156112d05780601f106112a5576101008083540402835291602001916112d0565b820191906000526020600020905b8154815290600101906020018083116112b357829003601f168201915b5050505060038301546004840154600590940154929390926001600160a01b03909116915086565b60006007541161134f576040805162461bcd60e51b815260206004820152601f60248201527f5468652070726f647563742073686f756c6420626520617661696c61626c6500604482015290519081900360640190fd5b60008111801561136157506007548111155b6113b2576040805162461bcd60e51b815260206004820152601960248201527f5468652070726f647563742073686f756c642065786973747300000000000000604482015290519081900360640190fd5b60008181526006602052604090206005546113fe5760405162461bcd60e51b8152600401808060200182810382526031815260200180611bbd6031913960400191505060405180910390fd5b60048101546001600160a01b0316156114485760405162461bcd60e51b8152600401808060200182810382526029815260200180611b946029913960400191505060405180910390fd5b60048101546001600160a01b03163314156114945760405162461bcd60e51b815260040180806020018281038252603f815260200180611c0e603f913960400191505060405180910390fd5b348160030154146114d65760405162461bcd60e51b815260040180806020018281038252602a815260200180611b44602a913960400191505060405180910390fd5b6004810180546001600160a01b0319163317908190556040516001600160a01b0391909116903480156108fc02916000818181858888f19350505050158015611523573d6000803e3d6000fd5b5060048101546003820154604080516020810183905281815260018086018054600260001993821615610100029390930116919091049282018390526001600160a01b039094169386937fd405904c761d8820244add9e01bb3c0237a52715fc5cb71b5a671952634212d6939192909181906060820190859080156115e95780601f106115be576101008083540402835291602001916115e9565b820191906000526020600020905b8154815290600101906020018083116115cc57829003601f168201915b5050935050505060405180910390a35050565b6000546001600160a01b031690565b611613611a6d565b6000546001600160a01b03908116911614611663576040805162461bcd60e51b81526020600482018190526024820152600080516020611bee833981519152604482015290519081900360640190fd5b6001600160a01b03166000908152600260205260409020805460ff19166001179055565b6003602090815260009182526040918290208054600180830180548651600293821615610100026000190190911692909204601f8101869004860283018601909652858252919492939092908301828280156117245780601f106116f957610100808354040283529160200191611724565b820191906000526020600020905b81548152906001019060200180831161170757829003601f168201915b5050505060028301546003909301549192916001600160a01b0316905084565b60078054600190810191829055600454600090815260036020908152604080832054808555815160c0810183528681528084018a81528184018a90526060820189905233608083015260a0820192909252958452600683529220845181559151805192936117ba93908501929190910190611a71565b50604082015180516117d6916002840191602090910190611a71565b50606082810151600383810191909155608080850151600480860180546001600160a01b0319166001600160a01b039093169290921790915560a0958601516005958601558054600090815260209384526040808220600780548452600687528284205491909401805460018181018355918552878520019190915587548101909755915495548251928301899052948201859052828252895192820192909252885194957fdc8901680a14494fba03af97e072192a5137e162a96b38a660e3a4d867b779e7958a958a958a95919493849384830193918501928a01918190849084905b838110156118d25781810151838201526020016118ba565b50505050905090810190601f1680156118ff5780820380516001836020036101000a031916815260200191505b50838103825286518152865160209182019188019080838360005b8381101561193257818101518382015260200161191a565b50505050905090810190601f16801561195f5780820380516001836020036101000a031916815260200191505b50965050505050505060405180910390a2505050565b61197d611a6d565b6000546001600160a01b039081169116146119cd576040805162461bcd60e51b81526020600482018190526024820152600080516020611bee833981519152604482015290519081900360640190fd5b6001600160a01b038116611a125760405162461bcd60e51b8152600401808060200182810382526026815260200180611b6e6026913960400191505060405180910390fd5b600080546040516001600160a01b03808516939216917f8be0079c531659141344cd1fd0a4f28419497f9722a3daafe3b4186f6b6457e091a3600080546001600160a01b0319166001600160a01b0392909216919091179055565b3390565b828054600181600116156101000203166002900490600052602060002090601f016020900481019282601f10611ab257805160ff1916838001178555611adf565b82800160010185558215611adf579182015b82811115611adf578251825591602001919060010190611ac4565b50611aeb929150611b29565b5090565b828054828255906000526020600020908101928215611adf5791602002820182811115611adf578251825591602001919060010190611ac4565b610a1291905b80821115611aeb5760008155600101611b2f56fe546865206d73672e76616c756520646f6573206e6f74206d617463682070726f647563742070726963654f776e61626c653a206e6577206f776e657220697320746865207a65726f20616464726573735468652070726f647563742073686f756c64206e6f742068617665206265656e20736f6c642079657454686572652073686f756c64206265206174206c65617374206f6e652070726f6475637420696e207468652073746f72654f776e61626c653a2063616c6c6572206973206e6f7420746865206f776e65725468652073746f7265206f776e65722073686f756c64206e6f7420626520616c6c6f77656420746f20627579207468656972206f776e2070726f6475637473a2646970667358221220bb7a55d33fcf97916b401d081a1a5ffea7658fb87a296dbbb5817db4cde3f2a164736f6c63430006010033",
  "source": "pragma solidity >=0.6.0 < 0.7.0;\n\nimport \"./Ownable.sol\";\n\n    /// @author zen2see\n    /// @title OnlineMarketPlace project\n\n    /*\n        Simple OnlineMarketPlace that operates on the blockchain\n    */\ncontract OnlineMP is Ownable {\n    /*\n        state variables\n    */\n    \n    // storeId assigned to each product\n    uint storeIdp;\n\n    // address storeOwners mapping;\n    mapping (address => bool) public isStoreOwners;\n\n    /*\n        @notice A Store:\n        Store id: @storeId\n        Store name: @storeName\n        Store balance: @storeBal\n        Store owner: @storeOwner\n        Store products: @products\n    */\n    struct Store {\n      uint storeId;\n      string storeName;\n      uint256 storeBal;\n      address payable storeOwner;\n      uint[] products;\n    }\n\n    /*\n        state variables, declare a store as a structure type through mapping\n    */\n    mapping (uint => Store) public stores;\n    // store the stores count (public for getter())\n    uint storeCounter;\n    // store the stores product count (public for getter())\n    uint storeProdCounter;\n\n    /*\n        @notice A Product:\n        Product id: @prodId\n        Product name: @prodName\n        Product desc: @prodDescription\n        Product price: @prodPrice\n        Product purchaser: purchaser\n    */\n    struct Product {\n      uint prodId;\n      string prodName;\n      string prodDescription;\n      uint256 prodPrice;\n      address payable purchaser;\n      uint storeIdp;\n    }\n\n    /*\n         more state variables as a structure type..\n    */\n    mapping (uint => Product) public products;\n    uint prodCounter;\n\n    /*\n        LogAddStore should provide info about the store ID, store owner and store name\n    */\n    event LogAddStore(\n      uint indexed _storeId,\n      address indexed _storeOwner,\n      string _storeName  \n    );\n\n    /*\n        LogSelectStore should provide info about the store selected\n    \n    event LogSelectStore(\n      uint indexed _storeId,\n      string _storeName\n      uint256 _storeBal,\n      address _storeOwner\n      uint[] _storeProducts\n    );\n    */\n\n    /*\n        LogAddProduct should provide info about product ID, name, desc and price\n    */\n    event LogAddProduct(\n      uint indexed _prodId,\n      string _prodName,\n      string _prodDescription,\n      uint256 _prodPrice,\n      uint _storeIdp\n    );\n\n    /*\n        LogSellProduct should provide info about the product ID, seller (store owner), product name and price\n    */\n    event LogSellProduct(\n      uint indexed _storeID,\n      address indexed _storeOwner,\n      string  _productName,\n      uint256 _price\n    );\n\n    /*\n        LogBuyTickets should provide info about prod ID, seller (store owner), purchaser, prod name and prod price\n    */\n    event LogBuyProduct(\n      uint indexed _productId,\n      address indexed _purchaser,\n      string  _productName,\n      uint256 _price\n    );\n\n    /*\n        Create a modifier that throws an error if the address !storeOwner\n    */\n    modifier isStoreOwner(address _isStoreOwner) {\n      require(\n        isStoreOwners[_isStoreOwner] == true,\n        \"Only store owner can call ths function.\"\n      );\n      _;\n    }\n\n    /*\n        Define a constructor.\n    \n    constructor (string memory _defaultStoreName, address payable _defaultAddress)\n      public\n    {\n      owner = msg.sender;\n      addStore(_defaultStoreName, 0, _defaultAddress);\n    }\n    */\n    /* \n        Calling the Ownable constructor to insure that the address deploying this contract is \n         regsitered as owner\n    */\n    constructor()\n      public\n      Ownable()\n    {\n      \n    }\n\n    /*\n        @notice Payable fallback\n    */\n    receive() external payable {\n    }\n\n    // kill the smart contract\n    function kill() public onlyOwner {\n      selfdestruct(msg.sender);\n    }\n\n    /*\n        This function adds an address as a store owner\n    */\n    function addStoreOwner(address _newStoreOwner)\n      public\n      onlyOwner\n    {\n      isStoreOwners[_newStoreOwner] = true;\n    }\n\n    /*\n        This function adds values for:\n          storeId\n          storeName\n          storeOwner\n    */\n    function addStore(string memory _storeName)\n      public\n      onlyOwner\n    {\n\n    /*\n        store count\n    */\n      storeCounter++;\n\n    /*\n        update via StoreId\n    */\n      stores[storeCounter] = Store(\n        storeCounter,\n        _storeName,\n        msg.sender.balance,\n        msg.sender,\n        stores[storeCounter].products\n      ); \n\n      emit LogAddStore(storeCounter, msg.sender, _storeName);\n    }\n\n    /*\n        This function adds values for:\n          prodId\n          prodName\n          prodDescription\n          prodPrice\n          storeId\n    */\n    function addProduct(\n      string memory _prodName,\n      string memory _prodDescription,\n      uint _prodPrice\n    )\n      public\n    {\n    \n    /*\n    require(\n        products[prodCounter].purchaser == \n        product.purchaser == address(0),\n        \"The product should not have been sold yet\"\n      );\n    */\n\n    /*\n        prod count\n    */\n      prodCounter++;\n    \n    /*\n      obtain storeId\n    */\n      storeIdp = stores[storeCounter].storeId;\n    /*\n        update via storeId\n    */\n      products[prodCounter] = Product(\n        prodCounter,\n        _prodName,\n        _prodDescription,\n        _prodPrice,\n        msg.sender,\n        storeIdp\n      );\n\n      stores[storeCounter].products.push(products[prodCounter].prodId);\n      storeProdCounter++;\n\n      emit LogAddProduct(prodCounter, _prodName, _prodDescription, _prodPrice, storeIdp);\n    }\n\n    /*\n        This function gets the store counter\n    */\n    function getNumberOfStores() public view returns (uint) {\n      return storeCounter;\n    }\n\n    /*\n        This function gets all the stores\n    */\n    function getStoresOwned() public view returns (uint[] memory) {\n      \n    /*\n        Store IDs\n    */\n      uint[] memory storeIds = new uint[](storeCounter);\n\n      uint numberOfStores = 0;\n\n    /*\n        Collect IDs of stores available\n    */\n      for (uint i = 1; i <= storeCounter; i++) {\n        if (stores[i].storeOwner != address(0)) {\n          storeIds[numberOfStores] = stores[i].storeId;\n          numberOfStores++;\n        }\n      }\n\n    /*\n        Create a storesOwned array\n    */\n      uint[] memory storesOwned = new uint[](numberOfStores);\n      for(uint j = 0; j < numberOfStores; j++) {\n        storesOwned[j] = storeIds[j];\n      }\n      return storesOwned;\n    }\n\n    /*\n        Select a store via id\n    */\n    function selectStore(uint _storeId)\n      public\n      view\n      returns (\n        uint,\n        string memory,\n        uint256,\n        address,\n        uint[] memory\n      )\n    {\n      require(\n        _storeId > 0 && _storeId <= getNumberOfStores(),\n        \"The store Id is not vaild\"\n      );\n\n      return (\n        stores[_storeId].storeId,\n        stores[_storeId].storeName,\n        stores[_storeId].storeBal,\n        stores[_storeId].storeOwner,\n        stores[_storeId].products\n      );\n\n      /*\n      emit LogSelectStore(\n          stores[_storeId].storeId,\n          stores[_storeId].storeName\n          //stores[_storeId].storeBal,\n          //stores[_storeId].storeOwnedBy\n      );\n      */\n    }\n\n    /*\n        This function gets the product counter\n    */\n    function getNumberOfProducts() public view returns (uint) {\n      return prodCounter;\n    }\n\n    /*\n        This function gets the products for sale\n    */\n    function getProductsForSale() public view returns (uint[] memory) {\n\n    /*\n        Store product IDs\n    */\n      uint[] memory productIds = new uint[](prodCounter);\n\n      uint numberOfProductsForSale = 0;\n\n    /*\n        Collect IDs of products still for available for sale\n    */\n      for (uint i = 1; i <= prodCounter; i++) {\n        if (products[i].purchaser != address(0)) {\n          productIds[numberOfProductsForSale] = products[i].prodId;\n          numberOfProductsForSale++;\n        }\n      }\n\n    /*\n        Create a forSale array\n    */\n      uint[] memory forSale = new uint[](numberOfProductsForSale);\n      for(uint j = 0; j < numberOfProductsForSale; j++) {\n        forSale[j] = productIds[j];\n      }\n      return forSale;\n    }\n\n    /*\n        This function gets the store's products by Id (can't return string[]\n        unless the experimental ABIEncoderv2 is enabled)\n\n    function getStoreProductsById (uint _storeId)\n      public\n      view\n      returns (uint[] memory) {\n\n        Store IDs\n\n      require(\n        _storeId > 0 && _storeId <= getNumberOfStores(),\n        \"The store Id is not vaild\"\n      );\n      uint[] memory storeProdIds = new uint[](prodCounter);\n\n      string[] memory storeProdNames = new string[](prodCounter);\n\n      uint numOfStoresProd = 0;\n\n\n        Collect IDs of stores products\n\n      for (uint i = 1; i <= prodCounter; i++) {\n        if (stores[_storeId].products[i] != 0) {\n          storeProdIds[numOfStoresProd] = stores[_storeId].products[i].prodId;\n          // storeProdNames[numOfStoresProd] = stores[_storeId].products[i].prodName;\n          numOfStoresProd++;\n        }\n      }\n\n\n\n        Create a prodIdsForSale and prodNamesForSale arrays\n\n      uint[] memory prodIdsForSale = new uint[](numOfStoresProd);\n\n      string[] memory prodNamesForSale = new string[](numOfStoresProd);\n\n      for(uint j = 0; j < numOfStoresProd; j++) {\n        prodIdsForSale[j] = storeProdIds[j];\n        prodNamesForSale[j] = storeProdNames[j];\n      }\n      return prodIdsForSale;\n    }\n    */\n\n    /*\n        Select a product via id\n    */\n    function selectProduct(uint _prodId)\n      public\n      view\n      returns (\n        uint,\n        string memory,\n        string memory,\n        uint256,\n        address\n      )\n    {\n      require(\n        _prodId > 0 && _prodId <= getNumberOfProducts(),\n        \"The product Id is not vaild\"\n      );\n      return (\n        products[_prodId].prodId,\n        products[_prodId].prodName,\n        products[_prodId].prodDescription,\n        products[_prodId].prodPrice,\n        products[_prodId].purchaser\n      );\n    }\n\n    /*\n        This function buys a product from store:\n          storeId\n          prodId\n          prodName\n          prodPrice\n    */\n    function buyProduct(uint _productId)\n      public\n      payable\n    {\n      require(\n        prodCounter > 0,\n        \"The product should be available\"\n      );\n\n      require(\n        _productId > 0 && _productId <= prodCounter,\n        \"The product should exists\"\n      );\n\n    /*\n        retrieve product\n    */\n      Product storage btproduct = products[_productId];\n\n      require(\n        storeProdCounter > 0,\n       \"There should be at least one product in the store\"\n      );\n\n      require(\n        btproduct.purchaser == address(0),\n        \"The product should not have been sold yet\"\n      );\n     \n      require(\n        btproduct.purchaser != msg.sender,\n        \"The store owner should not be allowed to buy their own products\"\n      );\n  \n      require(\n        btproduct.prodPrice == msg.value,\n          \"The msg.value does not match product price\"\n      );\n\n    /*\n        update purchaser\n    */\n        btproduct.purchaser = msg.sender;\n\n    /*\n        purchaser ma es purchase avoid re-entrancy here\n    */\n        btproduct.purchaser.transfer(msg.value); \n\n    /*\n        emit LogBuyProduct event\n    */\n        emit LogBuyProduct(\n          _productId,\n          btproduct.purchaser,\n          btproduct.prodName,\n          btproduct.prodPrice\n        );\n    }\n}",
  "sourcePath": "/Users/kokom/DEV/ETHEREUM/CONSENSYS/FPROJ/contracts/OnlineMP.sol",
  "compiler": {
    "name": "solc",
    "version": "0.6.1+commit.e6f7d5a4.Emscripten.clang"
  },
  "schemaVersion": "3.0.23",
  "updatedAt": "2020-05-14T04:21:22.702Z",
  "networkType": "ethereum",
  "devdoc": {
    "author": "zen2see",
    "methods": {
      "owner()": {
        "details": "Returns the address of the current owner."
      },
      "renounceOwnership()": {
        "details": "Leaves the contract without owner. It will not be possible to call `onlyOwner` functions anymore. Can only be called by the current owner.     * NOTE: Renouncing ownership will leave the contract without an owner, thereby removing any functionality that is only available to the owner."
      },
      "transferOwnership(address)": {
        "details": "Transfers ownership of the contract to a new account (`newOwner`). Can only be called by the current owner."
      }
    },
    "title": "OnlineMarketPlace project"
  },
  "userdoc": {
    "methods": {}
  }
}