{
  "contractName": "OnlineMP",
  "abi": [
    {
      "constant": true,
      "inputs": [
        {
          "name": "",
          "type": "address"
        }
      ],
      "name": "isStoreOwners",
      "outputs": [
        {
          "name": "",
          "type": "bool"
        }
      ],
      "payable": false,
      "stateMutability": "view",
      "type": "function"
    },
    {
      "constant": true,
      "inputs": [
        {
          "name": "",
          "type": "uint256"
        }
      ],
      "name": "products",
      "outputs": [
        {
          "name": "prodId",
          "type": "uint256"
        },
        {
          "name": "prodName",
          "type": "string"
        },
        {
          "name": "prodDescription",
          "type": "string"
        },
        {
          "name": "prodPrice",
          "type": "uint256"
        },
        {
          "name": "purchaser",
          "type": "address"
        }
      ],
      "payable": false,
      "stateMutability": "view",
      "type": "function"
    },
    {
      "constant": true,
      "inputs": [
        {
          "name": "",
          "type": "uint256"
        }
      ],
      "name": "stores",
      "outputs": [
        {
          "name": "storeId",
          "type": "uint256"
        },
        {
          "name": "storeName",
          "type": "string"
        },
        {
          "name": "storeBal",
          "type": "uint256"
        },
        {
          "name": "storeOwnedBy",
          "type": "address"
        }
      ],
      "payable": false,
      "stateMutability": "view",
      "type": "function"
    },
    {
      "inputs": [],
      "payable": false,
      "stateMutability": "nonpayable",
      "type": "constructor"
    },
    {
      "payable": true,
      "stateMutability": "payable",
      "type": "fallback"
    },
    {
      "anonymous": false,
      "inputs": [
        {
          "indexed": true,
          "name": "_storesId",
          "type": "uint256"
        },
        {
          "indexed": false,
          "name": "_storesName",
          "type": "string"
        }
      ],
      "name": "LogAddStore",
      "type": "event"
    },
    {
      "anonymous": false,
      "inputs": [
        {
          "indexed": true,
          "name": "_prodId",
          "type": "uint256"
        },
        {
          "indexed": false,
          "name": "_productName",
          "type": "string"
        },
        {
          "indexed": false,
          "name": "_prodDescription",
          "type": "string"
        },
        {
          "indexed": false,
          "name": "_prodPrice",
          "type": "uint256"
        }
      ],
      "name": "LogAddProduct",
      "type": "event"
    },
    {
      "anonymous": false,
      "inputs": [
        {
          "indexed": true,
          "name": "_storeOwner",
          "type": "address"
        },
        {
          "indexed": false,
          "name": "_productName",
          "type": "string"
        },
        {
          "indexed": false,
          "name": "_price",
          "type": "uint256"
        }
      ],
      "name": "LogSellProduct",
      "type": "event"
    },
    {
      "anonymous": false,
      "inputs": [
        {
          "indexed": true,
          "name": "_productId",
          "type": "uint256"
        },
        {
          "indexed": true,
          "name": "_purchaser",
          "type": "address"
        },
        {
          "indexed": false,
          "name": "_productName",
          "type": "string"
        },
        {
          "indexed": false,
          "name": "_price",
          "type": "uint256"
        }
      ],
      "name": "LogBuyProduct",
      "type": "event"
    },
    {
      "constant": false,
      "inputs": [
        {
          "name": "_storeName",
          "type": "string"
        }
      ],
      "name": "addStore",
      "outputs": [],
      "payable": false,
      "stateMutability": "nonpayable",
      "type": "function"
    },
    {
      "constant": false,
      "inputs": [
        {
          "name": "_prodName",
          "type": "string"
        },
        {
          "name": "_prodDescription",
          "type": "string"
        },
        {
          "name": "_prodPrice",
          "type": "uint256"
        }
      ],
      "name": "addProduct",
      "outputs": [],
      "payable": false,
      "stateMutability": "nonpayable",
      "type": "function"
    },
    {
      "constant": false,
      "inputs": [
        {
          "name": "_productId",
          "type": "uint256"
        }
      ],
      "name": "buyProduct",
      "outputs": [],
      "payable": true,
      "stateMutability": "payable",
      "type": "function"
    },
    {
      "constant": true,
      "inputs": [],
      "name": "getStore",
      "outputs": [
        {
          "name": "_storeId",
          "type": "uint256"
        },
        {
          "name": "_storeName",
          "type": "string"
        },
        {
          "name": "_storeBal",
          "type": "uint256"
        },
        {
          "name": "_storeOwner",
          "type": "address"
        },
        {
          "name": "_products",
          "type": "bytes32[]"
        }
      ],
      "payable": false,
      "stateMutability": "pure",
      "type": "function"
    }
  ],
  "bytecode": "0x608060405234801561001057600080fd5b50336000806101000a81548173ffffffffffffffffffffffffffffffffffffffff021916908373ffffffffffffffffffffffffffffffffffffffff1602179055506112b6806100606000396000f3fe6080604052600436106100705760003560e01c80638642269e1161004e5780638642269e14610304578063c2722ecc14610332578063e8a59cd81461044b578063f28ea1c11461054057610070565b8063662feffc1461007257806377a2a4391461013a5780637acc0b20146101a3575b005b34801561007e57600080fd5b506101386004803603602081101561009557600080fd5b81019080803590602001906401000000008111156100b257600080fd5b8201836020820111156100c457600080fd5b803590602001918460018302840111640100000000831117156100e657600080fd5b91908080601f016020809104026020016040519081016040528093929190818152602001838380828437600081840152601f19601f8201169050808301925050505050505091929192905050506106a9565b005b34801561014657600080fd5b506101896004803603602081101561015d57600080fd5b81019080803573ffffffffffffffffffffffffffffffffffffffff169060200190929190505050610898565b604051808215151515815260200191505060405180910390f35b3480156101af57600080fd5b506101dc600480360360208110156101c657600080fd5b81019080803590602001909291905050506108b8565b6040518086815260200180602001806020018581526020018473ffffffffffffffffffffffffffffffffffffffff1673ffffffffffffffffffffffffffffffffffffffff168152602001838103835287818151815260200191508051906020019080838360005b8381101561025e578082015181840152602081019050610243565b50505050905090810190601f16801561028b5780820380516001836020036101000a031916815260200191505b50838103825286818151815260200191508051906020019080838360005b838110156102c45780820151818401526020810190506102a9565b50505050905090810190601f1680156102f15780820380516001836020036101000a031916815260200191505b5097505050505050505060405180910390f35b6103306004803603602081101561031a57600080fd5b8101908080359060200190929190505050610a3e565b005b34801561033e57600080fd5b50610347610e0c565b60405180868152602001806020018581526020018473ffffffffffffffffffffffffffffffffffffffff1673ffffffffffffffffffffffffffffffffffffffff16815260200180602001838103835287818151815260200191508051906020019080838360005b838110156103c95780820151818401526020810190506103ae565b50505050905090810190601f1680156103f65780820380516001836020036101000a031916815260200191505b50838103825284818151815260200191508051906020019060200280838360005b83811015610432578082015181840152602081019050610417565b5050505090500197505050505050505060405180910390f35b34801561045757600080fd5b506104846004803603602081101561046e57600080fd5b8101908080359060200190929190505050610e2b565b60405180858152602001806020018481526020018373ffffffffffffffffffffffffffffffffffffffff1673ffffffffffffffffffffffffffffffffffffffff168152602001828103825285818151815260200191508051906020019080838360005b838110156105025780820151818401526020810190506104e7565b50505050905090810190601f16801561052f5780820380516001836020036101000a031916815260200191505b509550505050505060405180910390f35b34801561054c57600080fd5b506106a76004803603606081101561056357600080fd5b810190808035906020019064010000000081111561058057600080fd5b82018360208201111561059257600080fd5b803590602001918460018302840111640100000000831117156105b457600080fd5b91908080601f016020809104026020016040519081016040528093929190818152602001838380828437600081840152601f19601f8201169050808301925050505050505091929192908035906020019064010000000081111561061757600080fd5b82018360208201111561062957600080fd5b8035906020019184600183028401116401000000008311171561064b57600080fd5b91908080601f016020809104026020016040519081016040528093929190818152602001838380828437600081840152601f19601f82011690508083019250505050505050919291929080359060200190929190505050610f13565b005b6004600081548092919060010191905055506040518060a001604052806004548152602001828152602001600081526020013373ffffffffffffffffffffffffffffffffffffffff168152602001600360006004548152602001908152602001600020600401601480602002604051908101604052809291908260148015610746576020028201915b815481526020019060010190808311610732575b505050505081525060036000600454815260200190815260200160002060008201518160000155602082015181600101908051906020019061078992919061112a565b506040820151816002015560608201518160030160006101000a81548173ffffffffffffffffffffffffffffffffffffffff021916908373ffffffffffffffffffffffffffffffffffffffff1602179055506080820151816004019060146107f29291906111aa565b509050506004547fc07e4372fa365db386646af93f798817e2118ab90167a32543aa1b239c1af919826040518080602001828103825283818151815260200191508051906020019080838360005b8381101561085b578082015181840152602081019050610840565b50505050905090810190601f1680156108885780820380516001836020036101000a031916815260200191505b509250505060405180910390a250565b60026020528060005260406000206000915054906101000a900460ff1681565b6005602052806000526040600020600091509050806000015490806001018054600181600116156101000203166002900480601f01602080910402602001604051908101604052809291908181526020018280546001816001161561010002031660029004801561096a5780601f1061093f5761010080835404028352916020019161096a565b820191906000526020600020905b81548152906001019060200180831161094d57829003601f168201915b505050505090806002018054600181600116156101000203166002900480601f016020809104026020016040519081016040528092919081815260200182805460018160011615610100020316600290048015610a085780601f106109dd57610100808354040283529160200191610a08565b820191906000526020600020905b8154815290600101906020018083116109eb57829003601f168201915b5050505050908060030154908060040160009054906101000a900473ffffffffffffffffffffffffffffffffffffffff16905085565b600060065411610ab6576040517f08c379a000000000000000000000000000000000000000000000000000000000815260040180806020018281038252601f8152602001807f5468652070726f647563742073686f756c6420626520617661696c61626c650081525060200191505060405180910390fd5b600081118015610ac857506006548111155b610b3a576040517f08c379a00000000000000000000000000000000000000000000000000000000081526004018080602001828103825260198152602001807f5468652070726f647563742073686f756c64206578697374730000000000000081525060200191505060405180910390fd5b6000600560008381526020019081526020016000209050600073ffffffffffffffffffffffffffffffffffffffff168160040160009054906101000a900473ffffffffffffffffffffffffffffffffffffffff1673ffffffffffffffffffffffffffffffffffffffff1614610bfa576040517f08c379a00000000000000000000000000000000000000000000000000000000081526004018080602001828103825260298152602001806112626029913960400191505060405180910390fd5b80600301543414610c56576040517f08c379a000000000000000000000000000000000000000000000000000000000815260040180806020018281038252602d815260200180611235602d913960400191505060405180910390fd5b338160040160006101000a81548173ffffffffffffffffffffffffffffffffffffffff021916908373ffffffffffffffffffffffffffffffffffffffff1602179055508060040160009054906101000a900473ffffffffffffffffffffffffffffffffffffffff1673ffffffffffffffffffffffffffffffffffffffff166108fc349081150290604051600060405180830381858888f19350505050158015610d03573d6000803e3d6000fd5b508060040160009054906101000a900473ffffffffffffffffffffffffffffffffffffffff1673ffffffffffffffffffffffffffffffffffffffff16827fd405904c761d8820244add9e01bb3c0237a52715fc5cb71b5a671952634212d68360010184600301546040518080602001838152602001828103825284818154600181600116156101000203166002900481526020019150805460018160011615610100020316600290048015610df95780601f10610dce57610100808354040283529160200191610df9565b820191906000526020600020905b815481529060010190602001808311610ddc57829003601f168201915b5050935050505060405180910390a35050565b6000606060008060608484848484945094509450945094509091929394565b6003602052806000526040600020600091509050806000015490806001018054600181600116156101000203166002900480601f016020809104026020016040519081016040528092919081815260200182805460018160011615610100020316600290048015610edd5780601f10610eb257610100808354040283529160200191610edd565b820191906000526020600020905b815481529060010190602001808311610ec057829003601f168201915b5050505050908060020154908060030160009054906101000a900473ffffffffffffffffffffffffffffffffffffffff16905084565b6006600081548092919060010191905055506040518060a0016040528060065481526020018481526020018381526020018281526020013373ffffffffffffffffffffffffffffffffffffffff16815250600560006006548152602001908152602001600020600082015181600001556020820151816001019080519060200190610f9f92919061112a565b506040820151816002019080519060200190610fbc92919061112a565b506060820151816003015560808201518160040160006101000a81548173ffffffffffffffffffffffffffffffffffffffff021916908373ffffffffffffffffffffffffffffffffffffffff1602179055509050506006547fdbdff3ba4a4fc23f5acb23f9a3bfb4f45453e90f674268adf3fd87178d8538fd848484604051808060200180602001848152602001838103835286818151815260200191508051906020019080838360005b83811015611082578082015181840152602081019050611067565b50505050905090810190601f1680156110af5780820380516001836020036101000a031916815260200191505b50838103825285818151815260200191508051906020019080838360005b838110156110e85780820151818401526020810190506110cd565b50505050905090810190601f1680156111155780820380516001836020036101000a031916815260200191505b509550505050505060405180910390a2505050565b828054600181600116156101000203166002900490600052602060002090601f016020900481019282601f1061116b57805160ff1916838001178555611199565b82800160010185558215611199579182015b8281111561119857825182559160200191906001019061117d565b5b5090506111a691906111ea565b5090565b82601481019282156111d9579160200282015b828111156111d85782518255916020019190600101906111bd565b5b5090506111e6919061120f565b5090565b61120c91905b808211156112085760008160009055506001016111f0565b5090565b90565b61123191905b8082111561122d576000816000905550600101611215565b5090565b9056fe546865206d73672e76616c756520636f72726573706f6e647320746f207468652070726f6475742070726963655468652070726f647563742073686f756c64206e6f742068617665206265656e20736f6c6420796574a165627a7a72305820946fcc5e0b228050b4324da58192803ab1523b2b562d31ecab2eec018b785c200029",
  "source": "pragma solidity >=0.5.0;\n\nimport \"./Ownable.sol\";\n    /// @author zen2see\n    /// @title OnlineMarketPlace project\n\n    /*\n        Simple OnlineMarketPlace that operates on the blockchain.\n    */\ncontract OnlineMP is Ownable {\n    /*\n        state variables\n    */\n    address storeOwner;\n    mapping (address => bool) public isStoreOwners;\n\n    /*\n        @notice A Store:\n        Store id: @storeId\n        Store name: @storeName\n        Store balance: @storeBal\n        Store owner: @storeOwnedBy\n        Store products: @products\n    */\n    struct Store {\n      uint storeId;\n      string storeName;\n      uint256 storeBal;\n      address storeOwnedBy;\n      bytes32[20] products;\n    }\n\n    /*\n        state variables, declare a store as a structure type through mapping\n    */\n    mapping(uint => Store) public stores;\n    uint storeCounter;\n\n    /*\n        @notice A Product:\n        Product id: @prodId\n        Product name: @prodName\n        Product desc: @prodDescription\n        Product price: @prodPrice\n        Product purchaser: purchaser\n    */\n    struct Product {\n      uint prodId;\n      string prodName;\n      string prodDescription;\n      uint256 prodPrice;\n      address payable purchaser;\n    }\n\n    /*\n         more state variables as a structure type..\n    */\n    mapping(uint => Product) public products;\n    uint prodCounter;\n\n    /*\n        LogAddStore should provide infromation about the store ID and store name\n    */\n    event LogAddStore(\n      uint indexed _storesId,\n      string _storesName\n    );\n\n    /*\n        LogAddProduct should provide infromation about the product ID, name, description and price.\n    */\n    event LogAddProduct(\n      uint indexed _prodId,\n      string _productName,\n      string _prodDescription,\n      uint256 _prodPrice\n    );\n\n    /*\n        LogSellProduct should provide information about the product ID and product name.\n    */\n    event LogSellProduct(\n      address indexed _storeOwner,\n      string  _productName,\n      uint256 _price\n    );\n\n    /*\n        LogBuyTickets should provide information about the purchaser and the # of prodcuts purchased.\n    */\n    event LogBuyProduct(\n      uint indexed _productId,\n      address indexed _purchaser,\n      string  _productName,\n      uint256 _price\n    );\n\n    /*\n        Create a modifier that throws an error if the address !storeOwner.\n    */\n    modifier isStoreOwner(address _isStoreOwner) {\n      require(\n        isStoreOwners[_isStoreOwner] == true,\n        \"Only store owner can call ths function.\"\n      );\n      _;\n    }\n\n    /*\n        Define a constructor.\n    */\n    constructor ()\n      public\n    {\n      //addStore(\"Default Store name\", owner);\n    }\n\n    /*\n        @notice Payable fallback\n    */\n    function() external payable {\n\n    }\n\n    /*\n        This function adds values for:\n          storeId\n          storeName\n          storeOwner\n    */\n    function addStore(string memory _storeName)\n      public\n    {\n\n    /*\n        store count\n    */\n      storeCounter++;\n\n    /*\n        update via StoreId\n    */\n      stores[storeCounter] = Store(\n        storeCounter,\n        _storeName,\n        0,\n        msg.sender,\n        stores[storeCounter].products\n      );\n\n      emit LogAddStore(storeCounter, _storeName);\n    }\n\n    /*\n        This function adds values for:\n          prodId\n          prodName\n          prodDescription\n          prodPrice\n    */\n    function addProduct(string memory _prodName, string memory _prodDescription, uint _prodPrice)\n      public\n    {\n\n    /*\n        store count\n    */\n      prodCounter++;\n\n    /*\n        update via storeId\n    */\n      products[prodCounter] = Product(\n        prodCounter,\n        _prodName,\n        _prodDescription,\n        _prodPrice,\n        msg.sender\n      );\n\n      emit LogAddProduct(prodCounter, _prodName, _prodDescription, _prodPrice);\n    }\n\n    /*\n        This function buys a product from store:\n          storeId\n          prodId\n          prodName\n          prodPrice\n    */\n    function buyProduct(uint _productId)\n      payable\n      public\n    {\n      require(\n        prodCounter > 0,\n        \"The product should be available\"\n      );\n\n      require(\n        _productId > 0 && _productId <= prodCounter,\n        \"The product should exists\"\n      );\n\n    /*\n        retrieve product\n    */\n        Product storage product = products[_productId];\n\n        require(\n          product.purchaser == address(0x0),\n          \"The product should not have been sold yet\"\n        );\n\n    /*\n        require(\n          stores[_storesId].storeOwner != msg.sender,\n          \"The store owner should not be allowed to buy products\"\n        );\n    */\n        require(\n          msg.value == product.prodPrice,\n          \"The msg.value corresponds to the produt price\"\n        );\n\n    /*\n        update purchaser\n    */\n        product.purchaser = msg.sender;\n\n    /*\n        purchaser makes purchase avoid re-entrancy here\n    */\n        product.purchaser.transfer(msg.value);\n\n    /*\n        emit LogBuyProduct event\n    */\n        emit LogBuyProduct(_productId, product.purchaser, product.prodName, product.prodPrice);\n    }\n    /*\n        This function retrieves values for:\n          storeId\n          storeName\n          storeBBal\n          storeOwner\n    */\n    function getStore()\n      public\n      pure\n      returns(\n        uint _storeId,\n        string memory _storeName,\n        uint _storeBal,\n        address _storeOwner,\n        bytes32[] memory _products\n      )\n    {\n        return(_storeId, _storeName, _storeBal, _storeOwner, _products);\n    }\n}",
  "sourcePath": "/Users/kokom/DEV/ETHEREUM/CONSENSYS/FPROJ/contracts/OnlineMP.sol",
  "compiler": {
    "name": "solc",
    "version": "0.5.8+commit.23d335f2.Emscripten.clang"
  },
  "schemaVersion": "3.0.11",
  "updatedAt": "2019-08-05T07:01:09.422Z",
  "devdoc": {
    "author": "zen2see",
    "methods": {},
    "title": "OnlineMarketPlace project"
  },
  "userdoc": {
    "methods": {}
  }
}