{
  "contractName": "OnlineMP",
  "abi": [
    {
      "inputs": [],
      "stateMutability": "nonpayable",
      "type": "constructor"
    },
    {
      "anonymous": false,
      "inputs": [
        {
          "indexed": true,
          "internalType": "uint256",
          "name": "_prodId",
          "type": "uint256"
        },
        {
          "indexed": false,
          "internalType": "string",
          "name": "_prodName",
          "type": "string"
        },
        {
          "indexed": false,
          "internalType": "string",
          "name": "_prodDescription",
          "type": "string"
        },
        {
          "indexed": false,
          "internalType": "uint256",
          "name": "_prodPrice",
          "type": "uint256"
        },
        {
          "indexed": false,
          "internalType": "uint256",
          "name": "_storeIdp",
          "type": "uint256"
        }
      ],
      "name": "LogAddProduct",
      "type": "event"
    },
    {
      "anonymous": false,
      "inputs": [
        {
          "indexed": true,
          "internalType": "uint256",
          "name": "_storeId",
          "type": "uint256"
        },
        {
          "indexed": true,
          "internalType": "address",
          "name": "_storeOwner",
          "type": "address"
        },
        {
          "indexed": false,
          "internalType": "string",
          "name": "_storeName",
          "type": "string"
        }
      ],
      "name": "LogAddStore",
      "type": "event"
    },
    {
      "anonymous": false,
      "inputs": [
        {
          "indexed": true,
          "internalType": "address",
          "name": "_newStoreOwner",
          "type": "address"
        }
      ],
      "name": "LogAddStoreOwner",
      "type": "event"
    },
    {
      "anonymous": false,
      "inputs": [
        {
          "indexed": true,
          "internalType": "uint256",
          "name": "_productId",
          "type": "uint256"
        },
        {
          "indexed": true,
          "internalType": "address",
          "name": "_purchaser",
          "type": "address"
        },
        {
          "indexed": false,
          "internalType": "string",
          "name": "_productName",
          "type": "string"
        },
        {
          "indexed": false,
          "internalType": "uint256",
          "name": "_price",
          "type": "uint256"
        }
      ],
      "name": "LogBuyProduct",
      "type": "event"
    },
    {
      "anonymous": false,
      "inputs": [
        {
          "indexed": false,
          "internalType": "bytes",
          "name": "data",
          "type": "bytes"
        }
      ],
      "name": "LogMsgData",
      "type": "event"
    },
    {
      "anonymous": false,
      "inputs": [
        {
          "indexed": true,
          "internalType": "uint256",
          "name": "_storeID",
          "type": "uint256"
        },
        {
          "indexed": true,
          "internalType": "address",
          "name": "_storeOwner",
          "type": "address"
        },
        {
          "indexed": false,
          "internalType": "string",
          "name": "_productName",
          "type": "string"
        },
        {
          "indexed": false,
          "internalType": "uint256",
          "name": "_price",
          "type": "uint256"
        }
      ],
      "name": "LogSellProduct",
      "type": "event"
    },
    {
      "anonymous": false,
      "inputs": [
        {
          "indexed": true,
          "internalType": "address",
          "name": "previousOwner",
          "type": "address"
        },
        {
          "indexed": true,
          "internalType": "address",
          "name": "newOwner",
          "type": "address"
        }
      ],
      "name": "OwnershipTransferred",
      "type": "event"
    },
    {
      "inputs": [],
      "name": "fb",
      "outputs": [
        {
          "internalType": "uint256",
          "name": "",
          "type": "uint256"
        }
      ],
      "stateMutability": "view",
      "type": "function",
      "constant": true
    },
    {
      "inputs": [
        {
          "internalType": "address",
          "name": "",
          "type": "address"
        }
      ],
      "name": "isMPadmins",
      "outputs": [
        {
          "internalType": "bool",
          "name": "",
          "type": "bool"
        }
      ],
      "stateMutability": "view",
      "type": "function",
      "constant": true
    },
    {
      "inputs": [
        {
          "internalType": "address",
          "name": "",
          "type": "address"
        }
      ],
      "name": "isStoreOwners",
      "outputs": [
        {
          "internalType": "bool",
          "name": "",
          "type": "bool"
        }
      ],
      "stateMutability": "view",
      "type": "function",
      "constant": true
    },
    {
      "inputs": [],
      "name": "mpAdmin",
      "outputs": [
        {
          "internalType": "address",
          "name": "",
          "type": "address"
        }
      ],
      "stateMutability": "view",
      "type": "function",
      "constant": true
    },
    {
      "inputs": [],
      "name": "owner",
      "outputs": [
        {
          "internalType": "address",
          "name": "",
          "type": "address"
        }
      ],
      "stateMutability": "view",
      "type": "function",
      "constant": true
    },
    {
      "inputs": [
        {
          "internalType": "uint256",
          "name": "",
          "type": "uint256"
        }
      ],
      "name": "products",
      "outputs": [
        {
          "internalType": "uint256",
          "name": "prodId",
          "type": "uint256"
        },
        {
          "internalType": "string",
          "name": "prodName",
          "type": "string"
        },
        {
          "internalType": "string",
          "name": "prodDescription",
          "type": "string"
        },
        {
          "internalType": "uint256",
          "name": "prodPrice",
          "type": "uint256"
        },
        {
          "internalType": "address payable",
          "name": "purchaser",
          "type": "address"
        },
        {
          "internalType": "uint256",
          "name": "storeIdp",
          "type": "uint256"
        }
      ],
      "stateMutability": "view",
      "type": "function",
      "constant": true
    },
    {
      "inputs": [],
      "name": "renounceOwnership",
      "outputs": [],
      "stateMutability": "nonpayable",
      "type": "function"
    },
    {
      "inputs": [
        {
          "internalType": "uint256",
          "name": "",
          "type": "uint256"
        }
      ],
      "name": "stores",
      "outputs": [
        {
          "internalType": "uint256",
          "name": "storeId",
          "type": "uint256"
        },
        {
          "internalType": "string",
          "name": "storeName",
          "type": "string"
        },
        {
          "internalType": "uint256",
          "name": "storeBal",
          "type": "uint256"
        },
        {
          "internalType": "address payable",
          "name": "storeOwner",
          "type": "address"
        }
      ],
      "stateMutability": "view",
      "type": "function",
      "constant": true
    },
    {
      "inputs": [
        {
          "internalType": "address",
          "name": "newOwner",
          "type": "address"
        }
      ],
      "name": "transferOwnership",
      "outputs": [],
      "stateMutability": "nonpayable",
      "type": "function"
    },
    {
      "stateMutability": "payable",
      "type": "receive",
      "payable": true
    },
    {
      "inputs": [],
      "name": "kill",
      "outputs": [],
      "stateMutability": "nonpayable",
      "type": "function"
    },
    {
      "inputs": [
        {
          "internalType": "address",
          "name": "_newStoreOwner",
          "type": "address"
        }
      ],
      "name": "addStoreOwner",
      "outputs": [],
      "stateMutability": "nonpayable",
      "type": "function"
    },
    {
      "inputs": [
        {
          "internalType": "string",
          "name": "_storeName",
          "type": "string"
        }
      ],
      "name": "addStore",
      "outputs": [],
      "stateMutability": "nonpayable",
      "type": "function"
    },
    {
      "inputs": [
        {
          "internalType": "string",
          "name": "_prodName",
          "type": "string"
        },
        {
          "internalType": "string",
          "name": "_prodDescription",
          "type": "string"
        },
        {
          "internalType": "uint256",
          "name": "_prodPrice",
          "type": "uint256"
        }
      ],
      "name": "addProduct",
      "outputs": [],
      "stateMutability": "nonpayable",
      "type": "function"
    },
    {
      "inputs": [],
      "name": "getNumberOfStores",
      "outputs": [
        {
          "internalType": "uint256",
          "name": "",
          "type": "uint256"
        }
      ],
      "stateMutability": "view",
      "type": "function",
      "constant": true
    },
    {
      "inputs": [],
      "name": "getStoresOwned",
      "outputs": [
        {
          "internalType": "uint256[]",
          "name": "",
          "type": "uint256[]"
        }
      ],
      "stateMutability": "view",
      "type": "function",
      "constant": true
    },
    {
      "inputs": [
        {
          "internalType": "uint256",
          "name": "_storeId",
          "type": "uint256"
        }
      ],
      "name": "selectStore",
      "outputs": [
        {
          "internalType": "uint256",
          "name": "",
          "type": "uint256"
        },
        {
          "internalType": "string",
          "name": "",
          "type": "string"
        },
        {
          "internalType": "uint256",
          "name": "",
          "type": "uint256"
        },
        {
          "internalType": "address",
          "name": "",
          "type": "address"
        },
        {
          "internalType": "uint256[]",
          "name": "",
          "type": "uint256[]"
        }
      ],
      "stateMutability": "view",
      "type": "function",
      "constant": true
    },
    {
      "inputs": [],
      "name": "getNumberOfProducts",
      "outputs": [
        {
          "internalType": "uint256",
          "name": "",
          "type": "uint256"
        }
      ],
      "stateMutability": "view",
      "type": "function",
      "constant": true
    },
    {
      "inputs": [],
      "name": "getProductsForSale",
      "outputs": [
        {
          "internalType": "uint256[]",
          "name": "",
          "type": "uint256[]"
        }
      ],
      "stateMutability": "view",
      "type": "function",
      "constant": true
    },
    {
      "inputs": [
        {
          "internalType": "uint256",
          "name": "_prodId",
          "type": "uint256"
        }
      ],
      "name": "selectProduct",
      "outputs": [
        {
          "internalType": "uint256",
          "name": "",
          "type": "uint256"
        },
        {
          "internalType": "string",
          "name": "",
          "type": "string"
        },
        {
          "internalType": "string",
          "name": "",
          "type": "string"
        },
        {
          "internalType": "uint256",
          "name": "",
          "type": "uint256"
        },
        {
          "internalType": "address",
          "name": "",
          "type": "address"
        }
      ],
      "stateMutability": "view",
      "type": "function",
      "constant": true
    },
    {
      "inputs": [
        {
          "internalType": "uint256",
          "name": "_productId",
          "type": "uint256"
        }
      ],
      "name": "buyProduct",
      "outputs": [],
      "stateMutability": "payable",
      "type": "function",
      "payable": true
    }
  ],
  "bytecode": "0x60806040523480156200001157600080fd5b506000620000276001600160e01b03620000b416565b600080546001600160a01b0319166001600160a01b0383169081178255604051929350917f8be0079c531659141344cd1fd0a4f28419497f9722a3daafe3b4186f6b6457e0908290a350620000846001600160e01b03620000b816565b600380546001600160a01b0319166001600160a01b039283161790819055620000ae9116620000c7565b62000161565b3390565b6000546001600160a01b031690565b620000da6001600160e01b03620000b416565b6000546001600160a01b039081169116146200013d576040805162461bcd60e51b815260206004820181905260248201527f4f776e61626c653a2063616c6c6572206973206e6f7420746865206f776e6572604482015290519081900360640190fd5b6001600160a01b03166000908152600460205260409020805460ff19166001179055565b611f8180620001716000396000f3fe6080604052600436106101225760003560e01c8063715018a6116100a05780639adeb5f1116100645780639adeb5f1146107ac578063e8a59cd8146107df578063eb6664751461089e578063f28ea1c1146108b3578063f2fde38b146109ef576101c6565b8063715018a6146105fc57806377a2a439146106115780637acc0b20146106445780638642269e1461077a5780638da5cb5b14610797576101c6565b8063553b8b69116100e7578063553b8b69146104a7578063597aa5b2146104bc5780635b6696eb146104d1578063662feffc146105025780636ee4bc03146105b5576101c6565b8062e840bf146101cb5780633e505685146102305780633ffd81fb1461033a57806341c0e1b514610361578063440113dd14610378576101c6565b366101c6577f84a7e86a5530dbab0d699a72cd56748c29585a63e9b2b8281b9acdf52e9d161e610150610a22565b6040805160208082528351818301528351919283929083019185019080838360005b8381101561018a578181015183820152602001610172565b50505050905090810190601f1680156101b75780820380516001836020036101000a031916815260200191505b509250505060405180910390a1005b600080fd5b3480156101d757600080fd5b506101e0610a62565b60408051602080825283518183015283519192839290830191858101910280838360005b8381101561021c578181015183820152602001610204565b505050509050019250505060405180910390f35b34801561023c57600080fd5b5061025a6004803603602081101561025357600080fd5b5035610b6f565b6040518086815260200180602001858152602001846001600160a01b03166001600160a01b0316815260200180602001838103835287818151815260200191508051906020019080838360005b838110156102bf5781810151838201526020016102a7565b50505050905090810190601f1680156102ec5780820380516001836020036101000a031916815260200191505b508381038252845181528451602091820191808701910280838360005b83811015610321578181015183820152602001610309565b5050505090500197505050505050505060405180910390f35b34801561034657600080fd5b5061034f610d08565b60408051918252519081900360200190f35b34801561036d57600080fd5b50610376610d0e565b005b34801561038457600080fd5b506103a26004803603602081101561039b57600080fd5b5035610d8b565b604051808681526020018060200180602001858152602001846001600160a01b03166001600160a01b03168152602001838103835287818151815260200191508051906020019080838360005b838110156104075781810151838201526020016103ef565b50505050905090810190601f1680156104345780820380516001836020036101000a031916815260200191505b50838103825286518152865160209182019188019080838360005b8381101561046757818101518382015260200161044f565b50505050905090810190601f1680156104945780820380516001836020036101000a031916815260200191505b5097505050505050505060405180910390f35b3480156104b357600080fd5b506101e0610f5e565b3480156104c857600080fd5b5061034f611063565b3480156104dd57600080fd5b506104e6611069565b604080516001600160a01b039092168252519081900360200190f35b34801561050e57600080fd5b506103766004803603602081101561052557600080fd5b81019060208101813564010000000081111561054057600080fd5b82018360208201111561055257600080fd5b8035906020019184600183028401116401000000008311171561057457600080fd5b91908080601f016020809104026020016040519081016040528093929190818152602001838380828437600092019190915250929550611078945050505050565b3480156105c157600080fd5b506105e8600480360360208110156105d857600080fd5b50356001600160a01b0316611287565b604080519115158252519081900360200190f35b34801561060857600080fd5b5061037661129c565b34801561061d57600080fd5b506105e86004803603602081101561063457600080fd5b50356001600160a01b0316611350565b34801561065057600080fd5b5061066e6004803603602081101561066757600080fd5b5035611365565b604051808781526020018060200180602001868152602001856001600160a01b03166001600160a01b03168152602001848152602001838103835288818151815260200191508051906020019080838360005b838110156106d95781810151838201526020016106c1565b50505050905090810190601f1680156107065780820380516001836020036101000a031916815260200191505b50838103825287518152875160209182019189019080838360005b83811015610739578181015183820152602001610721565b50505050905090810190601f1680156107665780820380516001836020036101000a031916815260200191505b509850505050505050505060405180910390f35b6103766004803603602081101561079057600080fd5b50356114bc565b3480156107a357600080fd5b506104e66117ca565b3480156107b857600080fd5b50610376600480360360208110156107cf57600080fd5b50356001600160a01b03166117d9565b3480156107eb57600080fd5b506108096004803603602081101561080257600080fd5b5035611885565b604080518581529081018390526001600160a01b038216606082015260806020808301828152865192840192909252855160a084019187019080838360005b83811015610860578181015183820152602001610848565b50505050905090810190601f16801561088d5780820380516001836020036101000a031916815260200191505b509550505050505060405180910390f35b3480156108aa57600080fd5b5061034f611942565b3480156108bf57600080fd5b50610376600480360360608110156108d657600080fd5b8101906020810181356401000000008111156108f157600080fd5b82018360208201111561090357600080fd5b8035906020019184600183028401116401000000008311171561092557600080fd5b91908080601f016020809104026020016040519081016040528093929190818152602001838380828437600092019190915250929594936020810193503591505064010000000081111561097857600080fd5b82018360208201111561098a57600080fd5b803590602001918460018302840111640100000000831117156109ac57600080fd5b91908080601f0160208091040260200160405190810160405280939291908181526020018383808284376000920191909152509295505091359250611948915050565b3480156109fb57600080fd5b5061037660048036036020811015610a1257600080fd5b50356001600160a01b0316611c07565b60606000368080601f0160208091040260200160405190810160405280939291908181526020018383808284376000920191909152509293505050505b90565b606080600a54604051908082528060200260200182016040528015610a91578160200160208202803883390190505b509050600060015b600a548111610af9576000818152600960205260409020600401546001600160a01b031615610af1576000818152600960205260409020548351849084908110610adf57fe5b60209081029190910101526001909101905b600101610a99565b50606081604051908082528060200260200182016040528015610b26578160200160208202803883390190505b50905060005b82811015610b6757838181518110610b4057fe5b6020026020010151828281518110610b5457fe5b6020908102919091010152600101610b2c565b509250505090565b600060606000806060600086118015610b8f5750610b8b611063565b8611155b610be0576040805162461bcd60e51b815260206004820152601960248201527f5468652073746f7265204964206973206e6f74207661696c6400000000000000604482015290519081900360640190fd5b600086815260066020908152604091829020805460028083015460038401546001808601805489516101009382161593909302600019011694909404601f81018890048802820188019098528781529396929591946001600160a01b03909116936004909101929091869190830182828015610c9d5780601f10610c7257610100808354040283529160200191610c9d565b820191906000526020600020905b815481529060010190602001808311610c8057829003601f168201915b50508454604080516020808402820181019092528281529599508694509092508401905082828015610cee57602002820191906000526020600020905b815481526020019060010190808311610cda575b505050505090509450945094509450945091939590929450565b600a5490565b610d16611d11565b6000546001600160a01b03908116911614610d78576040805162461bcd60e51b815260206004820181905260248201527f4f776e61626c653a2063616c6c6572206973206e6f7420746865206f776e6572604482015290519081900360640190fd5b610d80611d11565b6001600160a01b0316ff5b6000606080600080600086118015610daa5750610da6610d08565b8611155b610dfb576040805162461bcd60e51b815260206004820152601b60248201527f5468652070726f64756374204964206973206e6f74207661696c640000000000604482015290519081900360640190fd5b6000868152600960209081526040918290208054600382015460048301546001808501805488516002610100948316159490940260001901909116839004601f810189900489028201890190995288815294979096919095019492936001600160a01b03909216928691830182828015610eb65780601f10610e8b57610100808354040283529160200191610eb6565b820191906000526020600020905b815481529060010190602001808311610e9957829003601f168201915b5050865460408051602060026001851615610100026000190190941693909304601f810184900484028201840190925281815295995088945092508401905082828015610f445780601f10610f1957610100808354040283529160200191610f44565b820191906000526020600020905b815481529060010190602001808311610f2757829003601f168201915b50989f979e50929c50939a50919850939650505050505050565b606080600754604051908082528060200260200182016040528015610f8d578160200160208202803883390190505b509050600060015b6007548111610ff5576000818152600660205260409020600301546001600160a01b031615610fed576000818152600660205260409020548351849084908110610fdb57fe5b60209081029190910101526001909101905b600101610f95565b50606081604051908082528060200260200182016040528015611022578160200160208202803883390190505b50905060005b82811015610b675783818151811061103c57fe5b602002602001015182828151811061105057fe5b6020908102919091010152600101611028565b60075490565b6003546001600160a01b031681565b611080611d11565b6001600160a01b03811660009081526005602052604090205460ff166110d75760405162461bcd60e51b8152600401808060200182810382526029815260200180611eb96029913960400191505060405180910390fd5b60078054600101908190556040805160a081018252828152602080820186905233803183850152606083015260009384526006815292829020600401805483518186028101860190945280845291936080850193929083018282801561115c57602002820191906000526020600020905b815481526020019060010190808311611148575b505050919092525050600754600090815260066020908152604090912082518155828201518051919261119792600185019290910190611d15565b506040820151600282015560608201516003820180546001600160a01b0319166001600160a01b03909216919091179055608082015180516111e3916004840191602090910190611d93565b505060075460408051602080825286518183015286513395507fdbc4c681c741afb74673129b92c2100d80c142f4ad2df7984c385b5846f5a501938893928392918301919085019080838360005b83811015611249578181015183820152602001611231565b50505050905090810190601f1680156112765780820380516001836020036101000a031916815260200191505b509250505060405180910390a35050565b60046020526000908152604090205460ff1681565b6112a4611d11565b6000546001600160a01b03908116911614611306576040805162461bcd60e51b815260206004820181905260248201527f4f776e61626c653a2063616c6c6572206973206e6f7420746865206f776e6572604482015290519081900360640190fd5b600080546040516001600160a01b03909116907f8be0079c531659141344cd1fd0a4f28419497f9722a3daafe3b4186f6b6457e0908390a3600080546001600160a01b0319169055565b60056020526000908152604090205460ff1681565b6009602090815260009182526040918290208054600180830180548651600293821615610100026000190190911692909204601f8101869004860283018601909652858252919492939092908301828280156114025780601f106113d757610100808354040283529160200191611402565b820191906000526020600020905b8154815290600101906020018083116113e557829003601f168201915b50505060028085018054604080516020601f60001961010060018716150201909416959095049283018590048502810185019091528181529596959450909250908301828280156114945780601f1061146957610100808354040283529160200191611494565b820191906000526020600020905b81548152906001019060200180831161147757829003601f168201915b5050505060038301546004840154600590940154929390926001600160a01b03909116915086565b6000600a5411611513576040805162461bcd60e51b815260206004820152601f60248201527f5468652070726f647563742073686f756c6420626520617661696c61626c6500604482015290519081900360640190fd5b6000811180156115255750600a548111155b611576576040805162461bcd60e51b815260206004820152601960248201527f5468652070726f647563742073686f756c642065786973747300000000000000604482015290519081900360640190fd5b60008181526009602052604090206008546115c25760405162461bcd60e51b8152600401808060200182810382526031815260200180611e886031913960400191505060405180910390fd5b60048101546001600160a01b03161561160c5760405162461bcd60e51b8152600401808060200182810382526029815260200180611e386029913960400191505060405180910390fd5b60048101546001600160a01b03163314156116585760405162461bcd60e51b815260040180806020018281038252603f815260200180611ee2603f913960400191505060405180910390fd5b3481600301541461169a5760405162461bcd60e51b815260040180806020018281038252602a815260200180611de8602a913960400191505060405180910390fd5b6116a2611d11565b6004820180546001600160a01b039283166001600160a01b031990911617908190556040519116903480156108fc02916000818181858888f193505050501580156116f1573d6000803e3d6000fd5b5060048101546003820154604080516020810183905281815260018086018054600260001993821615610100029390930116919091049282018390526001600160a01b039094169386937fd405904c761d8820244add9e01bb3c0237a52715fc5cb71b5a671952634212d6939192909181906060820190859080156117b75780601f1061178c576101008083540402835291602001916117b7565b820191906000526020600020905b81548152906001019060200180831161179a57829003601f168201915b5050935050505060405180910390a35050565b6000546001600160a01b031690565b6117e1611d11565b6001600160a01b03811660009081526004602052604090205460ff166118385760405162461bcd60e51b8152600401808060200182810382526027815260200180611e616027913960400191505060405180910390fd5b6001600160a01b038216600081815260056020526040808220805460ff19166001179055517f632c478d4510e5cd586269712169624deb8069be220c1e95ad1453982128955b9190a25050565b6006602090815260009182526040918290208054600180830180548651600293821615610100026000190190911692909204601f8101869004860283018601909652858252919492939092908301828280156119225780601f106118f757610100808354040283529160200191611922565b820191906000526020600020905b81548152906001019060200180831161190557829003601f168201915b5050505060028301546003909301549192916001600160a01b0316905084565b60015481565b611950611d11565b6001600160a01b03811660009081526005602052604090205460ff16801561199757506007546000908152600660205260409020600301546001600160a01b038281169116145b6119d25760405162461bcd60e51b815260040180806020018281038252602b815260200180611f21602b913960400191505060405180910390fd5b600a80546001908101918290556040805160c08101825283815260208082018981528284018990526060830188905233608084015260075460a084015260009586526009825292909420815181559151805191949293611a389390850192910190611d15565b5060408201518051611a54916002840191602090910190611d15565b506060820151816003015560808201518160040160006101000a8154816001600160a01b0302191690836001600160a01b0316021790555060a08201518160050155905050600660006007548152602001908152602001600020600401600a549080600181540180825580915050600190039060005260206000200160009091909190915055600860008154809291906001019190505550600a547fdc8901680a14494fba03af97e072192a5137e162a96b38a660e3a4d867b779e7858585600254604051808060200180602001858152602001848152602001838103835287818151815260200191508051906020019080838360005b83811015611b63578181015183820152602001611b4b565b50505050905090810190601f168015611b905780820380516001836020036101000a031916815260200191505b50838103825286518152865160209182019188019080838360005b83811015611bc3578181015183820152602001611bab565b50505050905090810190601f168015611bf05780820380516001836020036101000a031916815260200191505b50965050505050505060405180910390a250505050565b611c0f611d11565b6000546001600160a01b03908116911614611c71576040805162461bcd60e51b815260206004820181905260248201527f4f776e61626c653a2063616c6c6572206973206e6f7420746865206f776e6572604482015290519081900360640190fd5b6001600160a01b038116611cb65760405162461bcd60e51b8152600401808060200182810382526026815260200180611e126026913960400191505060405180910390fd5b600080546040516001600160a01b03808516939216917f8be0079c531659141344cd1fd0a4f28419497f9722a3daafe3b4186f6b6457e091a3600080546001600160a01b0319166001600160a01b0392909216919091179055565b3390565b828054600181600116156101000203166002900490600052602060002090601f016020900481019282601f10611d5657805160ff1916838001178555611d83565b82800160010185558215611d83579182015b82811115611d83578251825591602001919060010190611d68565b50611d8f929150611dcd565b5090565b828054828255906000526020600020908101928215611d835791602002820182811115611d83578251825591602001919060010190611d68565b610a5f91905b80821115611d8f5760008155600101611dd356fe546865206d73672e76616c756520646f6573206e6f74206d617463682070726f647563742070726963654f776e61626c653a206e6577206f776e657220697320746865207a65726f20616464726573735468652070726f647563742073686f756c64206e6f742068617665206265656e20736f6c64207965744d75737420626520616e2061646d696e20746f2063616c6c20746869732066756e6374696f6e2e54686572652073686f756c64206265206174206c65617374206f6e652070726f6475637420696e207468652073746f72654f6e6c7920612073746f7265206f776e65722063616e2063616c6c207468732066756e6374696f6e2e5468652073746f7265206f776e65722073686f756c64206e6f7420626520616c6c6f77656420746f20627579207468656972206f776e2070726f64756374734f6e6c79207468652073746f7265206f776e65722063616e2063616c6c207468732066756e6374696f6e2ea2646970667358221220f8514b7f395b67624f66b514c4abab2fd417b61359d4a1f96f526d111c9355e864736f6c63430006010033",
  "source": "// SPDX-License-Identifier: MIT\n\npragma solidity >=0.6.0 < 0.7.0;\n/**\n * @title OnlineMP\n * @author zen2see\n * @notice Implements an Online Market Place\n */\n\n// import \"./GSN/Context.sol\";\nimport \"./Ownable.sol\";\n\n/*********************************************************************\\\n * @notice  Simple OnlineMarketPlace that operates on the blockchain *\n\\*********************************************************************/\n    \ncontract OnlineMP is Ownable {\n    \n    uint public fb;\n    uint storeIdp;\n    address public mpAdmin;\n    mapping(address => bool) public isMPadmins;\n    mapping(address => bool) public isStoreOwners;\n\n    /**\n     *  @notice A Store:\n     *  @param Store id: @storeId\n     *  @param Store name: @storeName\n     *  @param Store balance: @storeBal\n     *  @param Store owner: @storeOwner\n     *  @param Store products: @products\n     */\n    struct Store {\n        uint storeId;\n        string storeName;\n        uint256 storeBal;\n        address payable storeOwner;\n        uint[] storeProducts;\n    }\n\n    /**\n     *  @notice state variables, declare a store as a structure type through mapping\n     */ \n    mapping(uint => Store) public stores;\n    \n    uint storeCounter;\n    \n    /**\n     *  @notice store the stores product count (public for getter())\n     */\n    uint storeProdCounter;\n\n    /**\n     *  @notice A Product: \n     *  @param Product id: @prodId\n     *  @param Product name: @prodName\n     *  @param Product desc: @prodDescription\n     *  @param Product price: @prodPrice\n     *  @param Product purchaser: purchaser\n     *  @param Product id of store it belongs to\n     */\n    struct Product {\n        uint prodId;\n        string prodName;\n        string prodDescription;\n        uint256 prodPrice;\n        address payable purchaser;\n        uint storeIdp;\n    }\n\n    mapping(uint => Product) public products; \n    uint prodCounter;\n\n    /**\n     *  @notice LogAddStore should provide info about the store ID, store owner and store name\n     *  @param _storeId the store id\n     *  @param _storeOwner the store owner\n     *  @param _storeName the store name\n     */\n    event LogAddStore(\n        uint indexed _storeId,\n        address indexed _storeOwner,\n        string _storeName  \n    );\n\n    /**\n        LogSelectStore should provide info about the store selected\n    \n    event LogSelectStore(\n      uint indexed _storeId,\n      string _storeName\n      uint256 _storeBal,\n      address _storeOwner\n      uint[] _storeProducts\n    );\n    */\n\n    /**\n     *  @notice LogAddProduct should provide info about product ID, name, desc and price\n     *  @param _prodId the product id\n     *  @param _prodName the product name\n     *  @param _prodDescription the product description\n     *  @param _prodPrice the product price\n     *  @param _storeIdp the id of the store this product belongs to\n     */\n    event LogAddProduct(\n        uint indexed _prodId,\n        string _prodName,\n        string _prodDescription,\n        uint256 _prodPrice,\n        uint _storeIdp\n    );\n\n\n    /**\n     *  @notice LogSellProduct should provide info about the product ID, seller (store owner), product name and price\n     */\n    event LogSellProduct(\n        uint indexed _storeID,\n        address indexed _storeOwner,\n        string  _productName,\n        uint256 _price\n    );\n\n    /**\n     *  @notice LogBuyTickets should provide info about prod ID, seller (store owner), purchaser, prod name and prod price\n     */ \n    event LogBuyProduct(\n        uint indexed _productId,\n        address indexed _purchaser,\n        string  _productName,\n        uint256 _price\n    );\n    /**\n     *  @notice LogMsgData should provide the MsgData\n     */\n    event LogMsgData(\n        bytes data\n    );\n\n    /**\n     *  @notice LogAddStoreOwner should provide info about a new store owner\n     */\n    event LogAddStoreOwner(\n        address indexed _newStoreOwner\n    );\n\n    /**\n     *  @notice Create a modifier that throws an error if the address !isAdmin\n     */\n    modifier onlyAdmin(address _isAdmin) {\n        require(\n            isMPadmins[_isAdmin],\n            \"Must be an admin to call this function.\"\n        );\n        _;\n    }\n\n    /**\n     *  @notice Create a modifier that throws an error if the address !isStoreOwner\n     */\n    modifier isStoreOwner(address _isStoreOwner) {\n        require(\n            isStoreOwners[_isStoreOwner],\n            \"Only a store owner can call ths function.\"\n        );\n        _;\n    }\n\n    /**\n     *  @notice Create a modifier that throws an error if the address !storeOwner of the store\n     */\n    modifier onlyStoreOwner(address _onlyStoreOwner) {\n        require(\n            isStoreOwners[_onlyStoreOwner] && stores[storeCounter].storeOwner == _onlyStoreOwner,\n            \"Only the store owner can call ths function.\"\n        );\n        _;\n    }\n\n    /** \n     *  @notice Calling the Ownable constructor to insure that the address deploying this contract is \n     *  regsitered as owner and to set owner as an admin\n     */\n    constructor() \n        public\n        Ownable()\n    {\n        mpAdmin = owner();      \n        addAdmin(mpAdmin);\n    }\n\n    /**\n     *  @notice Payable fallback\n     */\n    receive() external payable {\n        emit LogMsgData(_msgData());\n    }\n\n    /**\n     *  @notice kill the smart contract\n     */\n    function kill() public onlyOwner {\n        selfdestruct(_msgSender());\n    }\n    \n    /**\n     *  @notice This function adds an MPadmin\n     *  @param _newAdmin the new admin\n     */\n    function addAdmin(address _newAdmin)\n        internal\n        virtual\n        onlyOwner\n    {  \n        isMPadmins[_newAdmin] = true;\n    }\n\n    /**\n     *  @notice This function adds an address as a store owner\n     *  @param _newStoreOwner the new store owner\n     */ \n    function addStoreOwner(address _newStoreOwner)\n        public\n        onlyAdmin(_msgSender())\n    {\n        isStoreOwners[_newStoreOwner] = true;\n\n        emit LogAddStoreOwner(_newStoreOwner);\n    }\n\n\n    /**\n     *  @notice This function adds values for the store id, name and owner:\n     *  @param _storeName the store name\n     */\n    function addStore(string memory _storeName)\n        public\n        isStoreOwner(_msgSender())\n    {\n\n        /**\n         *  @notice store counter\n         */\n        storeCounter++;\n\n        /**\n         *  @notice update via StoreId\n         */\n        stores[storeCounter] = Store(\n            storeCounter,\n            _storeName,\n            msg.sender.balance,\n            msg.sender,\n            stores[storeCounter].storeProducts\n        ); \n\n        emit LogAddStore(storeCounter, msg.sender, _storeName);\n    }\n\n    /**\n     *  @notice This function adds a product\n     *  @dev the prodcut id is derived from the counter\n     *  @param _prodName the product name\n     *  @param _prodDescription the product description\n     *  @param _prodPrice the product price\n     *  @dev the store id of which the product is listed \n     */\n    function addProduct(\n        string memory _prodName,\n        string memory _prodDescription,\n        uint _prodPrice\n    )\n        public\n        onlyStoreOwner(_msgSender())\n    {\n    \n        /*\n          require(\n              products[prodCounter].purchaser == \n              product.purchaser == address(0),\n              \"The product should not have been sold yet\"\n          );\n        */\n\n        prodCounter++;\n    \n        /**\n         *  @notice update via storeId\n         */\n        products[prodCounter] = Product(\n            prodCounter,\n            _prodName,\n            _prodDescription,\n            _prodPrice,\n             msg.sender,\n            storeCounter\n        );\n\n        stores[storeCounter].storeProducts.push(prodCounter);\n        storeProdCounter++;\n\n        emit LogAddProduct(prodCounter, _prodName, _prodDescription, _prodPrice, storeIdp);\n    }\n\n    /**\n     *  @notice This function gets the store counter\n     *  @return the number of stores\n     */\n    function getNumberOfStores() public view returns (uint) {\n        return storeCounter;\n    }\n\n    /**\n     *  @notice This function gets all the stores\n     *  @return the number of stores owned \n     */\n    function getStoresOwned() public view returns (uint[] memory) {\n        \n       /**\n        *  @notice Store IDs\n        */\n        uint[] memory storeIds = new uint[](storeCounter);\n\n        uint numberOfStores = 0;\n\n       /**\n        *  @notice Collect IDs of stores available\n        */\n       for (uint i = 1; i <= storeCounter; i++) {\n           if (stores[i].storeOwner != address(0)) {\n               storeIds[numberOfStores] = stores[i].storeId;\n               numberOfStores++;\n           }  \n        }\n\n        /**\n         *  @notice Create a storesOwned array\n         */\n         uint[] memory storesOwned = new uint[](numberOfStores);\n         for(uint j = 0; j < numberOfStores; j++) {\n             storesOwned[j] = storeIds[j];\n         }\n         return storesOwned;\n      }\n\n    /**\n     *  @notice Select a store via id\n     *  @param _storeId the store id\n     *  @return the store id\n     *  @return the store name\n     *  @return the store owner\n     *  @return the store products\n     */\n    function selectStore(uint _storeId)\n        public\n        view\n        returns (\n            uint,\n            string memory,\n            uint256,\n            address,\n            uint[] memory\n        )\n    {\n      require(\n         _storeId > 0 && _storeId <= getNumberOfStores(),\n         \"The store Id is not vaild\"\n      );\n\n      return (\n          stores[_storeId].storeId,\n          stores[_storeId].storeName,\n          stores[_storeId].storeBal,\n          stores[_storeId].storeOwner,\n          stores[_storeId].storeProducts\n      );\n\n      /*\n      emit LogSelectStore(\n          stores[_storeId].storeId,\n          stores[_storeId].storeName\n          //stores[_storeId].storeBal,\n          //stores[_storeId].storeOwnedBy\n      );\n      */\n    }\n\n    /**\n     *  @notice This function gets the product counter\n     *  @return the product counter\n     */\n    function getNumberOfProducts() public view returns (uint) {\n        return prodCounter;\n    }\n\n    /**\n     *  @notice This function gets the products for sale\n     *  @return the products for sale\n     */\n    function getProductsForSale() public view returns (uint[] memory) {\n\n        /**\n         *  @notice Store product IDs\n         */\n        uint[] memory productIds = new uint[](prodCounter);\n\n        uint numberOfProductsForSale = 0;\n\n        /**\n         *  @notice Collect IDs of products still for available for sale\n         */\n        for (uint i = 1; i <= prodCounter; i++) {\n            if (products[i].purchaser != address(0)) {\n                productIds[numberOfProductsForSale] = products[i].prodId;\n                numberOfProductsForSale++;\n            }\n        }\n\n        /**\n         *  @notice Create a forSale array\n         */\n         uint[] memory forSale = new uint[](numberOfProductsForSale);\n         for(uint j = 0; j < numberOfProductsForSale; j++) {\n             forSale[j] = productIds[j];\n         }\n         return forSale;\n    }\n\n    /*\n        This function gets the store's products by Id (can't return string[]\n        unless the experimental ABIEncoderv2 is enabled)\n\n    function getStoreProductsById (uint _storeId)\n      public\n      view\n      returns (uint[] memory) {\n\n        Store IDs\n\n      require(\n        _storeId > 0 && _storeId <= getNumberOfStores(),\n        \"The store Id is not vaild\"\n      );\n      uint[] memory storeProdIds = new uint[](prodCounter);\n\n      string[] memory storeProdNames = new string[](prodCounter);\n\n      uint numOfStoresProd = 0;\n\n\n        Collect IDs of stores products\n\n      for (uint i = 1; i <= prodCounter; i++) {\n        if (stores[_storeId].products[i] != 0) {\n          storeProdIds[numOfStoresProd] = stores[_storeId].products[i].prodId;\n          // storeProdNames[numOfStoresProd] = stores[_storeId].products[i].prodName;\n          numOfStoresProd++;\n        }\n      }\n\n\n\n        Create a prodIdsForSale and prodNamesForSale arrays\n\n      uint[] memory prodIdsForSale = new uint[](numOfStoresProd);\n\n      string[] memory prodNamesForSale = new string[](numOfStoresProd);\n\n      for(uint j = 0; j < numOfStoresProd; j++) {\n        prodIdsForSale[j] = storeProdIds[j];\n        prodNamesForSale[j] = storeProdNames[j];\n      }\n      return prodIdsForSale;\n    }\n    */\n\n    /**\n     *  @notice Select a product via id\n     *  @return product's prodId\n     *  @return product's prodName\n     *  @return product's prodDescription\n     *  @return product's productPrice\n     *  @return product's product.purchaser\n     */\n    function selectProduct(uint _prodId)\n        public\n        view\n        returns (\n            uint,\n            string memory,\n            string memory,\n            uint256,\n            address\n        )\n    {\n          require(\n              _prodId > 0 && _prodId <= getNumberOfProducts(),\n              \"The product Id is not vaild\"\n          );\n\n          return (\n              products[_prodId].prodId,\n              products[_prodId].prodName,\n              products[_prodId].prodDescription,\n              products[_prodId].prodPrice,\n              products[_prodId].purchaser\n        );\n    }\n\n    /**\n     *  @notice This function buys a product from store:\n     *  @param _productId the product id\n     */\n    function buyProduct(uint _productId)\n        public\n        payable\n    {\n        require(\n            prodCounter > 0,\n            \"The product should be available\"\n        );\n\n        require(\n            _productId > 0 && _productId <= prodCounter,\n            \"The product should exists\"\n        );\n\n        /**\n         * @notice retrieve product\n         */\n        Product storage btproduct = products[_productId];\n\n        require(\n            storeProdCounter > 0,\n            \"There should be at least one product in the store\"\n        );\n\n        require(\n            btproduct.purchaser == address(0),\n            \"The product should not have been sold yet\"\n        );\n     \n        require(\n            btproduct.purchaser != msg.sender,\n            \"The store owner should not be allowed to buy their own products\"\n         );\n  \n        require(\n            btproduct.prodPrice == msg.value,\n            \"The msg.value does not match product price\"\n        );\n\n        /**\n         *  @notice update purchaser\n         */\n        btproduct.purchaser = _msgSender();\n\n        /**\n         *  @notice purchaser ma es purchase avoid re-entrancy here\n         */\n        btproduct.purchaser.transfer(msg.value); \n\n        /**\n         *  @notice emit LogBuyProduct event\n         */\n        emit LogBuyProduct(\n            _productId,\n            btproduct.purchaser,\n            btproduct.prodName,\n            btproduct.prodPrice\n        );\n    }\n\n    /**\n     *  @notice transfer ownership\n     \n    function */\n}",
  "sourcePath": "/Users/kokom/DEV/ETHEREUM/CONSENSYS/FPROJ/contracts/OnlineMP.sol",
  "compiler": {
    "name": "solc",
    "version": "0.6.1+commit.e6f7d5a4.Emscripten.clang"
  },
  "schemaVersion": "3.0.23",
  "updatedAt": "2020-05-24T06:09:37.590Z",
  "networkType": "ethereum",
  "devdoc": {
    "methods": {
      "addProduct(string,string,uint256)": {
        "details": "the prodcut id is derived from the counterthe store id of which the product is listed ",
        "params": {
          "_prodDescription": "the product description",
          "_prodName": "the product name",
          "_prodPrice": "the product price"
        }
      },
      "addStore(string)": {
        "params": {
          "_storeName": "the store name"
        }
      },
      "addStoreOwner(address)": {
        "params": {
          "_newStoreOwner": "the new store owner"
        }
      },
      "buyProduct(uint256)": {
        "params": {
          "_productId": "the product id"
        }
      },
      "owner()": {
        "details": "Returns the address of the current owner."
      },
      "renounceOwnership()": {
        "details": "Leaves the contract without owner. It will not be possible to call `onlyOwner` functions anymore. Can only be called by the current owner.     * NOTE: Renouncing ownership will leave the contract without an owner, thereby removing any functionality that is only available to the owner."
      },
      "selectStore(uint256)": {
        "params": {
          "_storeId": "the store id"
        },
        "returns": {
          "_0": "the store id",
          "_1": "the store name",
          "_2": "the store owner",
          "_3": "the store products"
        }
      },
      "transferOwnership(address)": {
        "details": "Transfers ownership of the contract to a new account (`newOwner`). Can only be called by the current owner."
      }
    }
  },
  "userdoc": {
    "methods": {
      "addProduct(string,string,uint256)": {
        "notice": "This function adds a product"
      },
      "addStore(string)": {
        "notice": "This function adds values for the store id, name and owner:"
      },
      "addStoreOwner(address)": {
        "notice": "This function adds an address as a store owner"
      },
      "buyProduct(uint256)": {
        "notice": "This function buys a product from store:"
      },
      "constructor": "Calling the Ownable constructor to insure that the address deploying this contract is  regsitered as owner and to set owner as an admin",
      "getNumberOfProducts()": {
        "notice": "This function gets the product counter"
      },
      "getNumberOfStores()": {
        "notice": "This function gets the store counter"
      },
      "getProductsForSale()": {
        "notice": "This function gets the products for sale"
      },
      "getStoresOwned()": {
        "notice": "This function gets all the stores"
      },
      "kill()": {
        "notice": "kill the smart contract"
      },
      "selectProduct(uint256)": {
        "notice": "Select a product via id"
      },
      "selectStore(uint256)": {
        "notice": "Select a store via id"
      }
    },
    "notice": "*******************************************************************\\Simple OnlineMarketPlace that operates on the blockchain * \\********************************************************************"
  }
}