{
  "contractName": "OnlineMP",
  "abi": [
    {
      "constant": true,
      "inputs": [
        {
          "name": "",
          "type": "address"
        }
      ],
      "name": "isStoreOwners",
      "outputs": [
        {
          "name": "",
          "type": "bool"
        }
      ],
      "payable": false,
      "stateMutability": "view",
      "type": "function"
    },
    {
      "constant": true,
      "inputs": [
        {
          "name": "",
          "type": "uint256"
        }
      ],
      "name": "products",
      "outputs": [
        {
          "name": "prodId",
          "type": "uint256"
        },
        {
          "name": "prodName",
          "type": "string"
        },
        {
          "name": "prodDescription",
          "type": "string"
        },
        {
          "name": "prodPrice",
          "type": "uint256"
        },
        {
          "name": "purchaser",
          "type": "address"
        }
      ],
      "payable": false,
      "stateMutability": "view",
      "type": "function"
    },
    {
      "constant": true,
      "inputs": [
        {
          "name": "",
          "type": "uint256"
        }
      ],
      "name": "stores",
      "outputs": [
        {
          "name": "storeId",
          "type": "uint256"
        },
        {
          "name": "storeName",
          "type": "string"
        },
        {
          "name": "storeBal",
          "type": "uint256"
        },
        {
          "name": "storeOwnedBy",
          "type": "address"
        }
      ],
      "payable": false,
      "stateMutability": "view",
      "type": "function"
    },
    {
      "inputs": [
        {
          "name": "_defaultStoreName",
          "type": "string"
        },
        {
          "name": "_defaultAddress",
          "type": "address"
        }
      ],
      "payable": false,
      "stateMutability": "nonpayable",
      "type": "constructor"
    },
    {
      "payable": true,
      "stateMutability": "payable",
      "type": "fallback"
    },
    {
      "anonymous": false,
      "inputs": [
        {
          "indexed": true,
          "name": "_storesId",
          "type": "uint256"
        },
        {
          "indexed": false,
          "name": "_storesName",
          "type": "string"
        },
        {
          "indexed": false,
          "name": "_storeOwner",
          "type": "address"
        }
      ],
      "name": "LogAddStore",
      "type": "event"
    },
    {
      "anonymous": false,
      "inputs": [
        {
          "indexed": true,
          "name": "_prodId",
          "type": "uint256"
        },
        {
          "indexed": false,
          "name": "_productName",
          "type": "string"
        },
        {
          "indexed": false,
          "name": "_prodDescription",
          "type": "string"
        },
        {
          "indexed": false,
          "name": "_prodPrice",
          "type": "uint256"
        }
      ],
      "name": "LogAddProduct",
      "type": "event"
    },
    {
      "anonymous": false,
      "inputs": [
        {
          "indexed": true,
          "name": "_storeOwner",
          "type": "address"
        },
        {
          "indexed": false,
          "name": "_productName",
          "type": "string"
        },
        {
          "indexed": false,
          "name": "_price",
          "type": "uint256"
        }
      ],
      "name": "LogSellProduct",
      "type": "event"
    },
    {
      "anonymous": false,
      "inputs": [
        {
          "indexed": true,
          "name": "_productId",
          "type": "uint256"
        },
        {
          "indexed": true,
          "name": "_purchaser",
          "type": "address"
        },
        {
          "indexed": false,
          "name": "_productName",
          "type": "string"
        },
        {
          "indexed": false,
          "name": "_price",
          "type": "uint256"
        }
      ],
      "name": "LogBuyProduct",
      "type": "event"
    },
    {
      "constant": false,
      "inputs": [
        {
          "name": "_storeName",
          "type": "string"
        },
        {
          "name": "_newStoreOwner",
          "type": "address"
        }
      ],
      "name": "addStore",
      "outputs": [],
      "payable": false,
      "stateMutability": "nonpayable",
      "type": "function"
    },
    {
      "constant": false,
      "inputs": [
        {
          "name": "_prodName",
          "type": "string"
        },
        {
          "name": "_prodDescription",
          "type": "string"
        },
        {
          "name": "_prodPrice",
          "type": "uint256"
        }
      ],
      "name": "addProduct",
      "outputs": [],
      "payable": false,
      "stateMutability": "nonpayable",
      "type": "function"
    },
    {
      "constant": true,
      "inputs": [],
      "name": "getNumberOfStores",
      "outputs": [
        {
          "name": "",
          "type": "uint256"
        }
      ],
      "payable": false,
      "stateMutability": "view",
      "type": "function"
    },
    {
      "constant": true,
      "inputs": [],
      "name": "getStoresOwned",
      "outputs": [
        {
          "name": "",
          "type": "uint256[]"
        }
      ],
      "payable": false,
      "stateMutability": "view",
      "type": "function"
    },
    {
      "constant": true,
      "inputs": [
        {
          "name": "_storeId",
          "type": "uint256"
        }
      ],
      "name": "selectStore",
      "outputs": [
        {
          "name": "",
          "type": "uint256"
        },
        {
          "name": "",
          "type": "string"
        },
        {
          "name": "",
          "type": "uint256"
        },
        {
          "name": "",
          "type": "address"
        },
        {
          "name": "",
          "type": "bytes32[20]"
        }
      ],
      "payable": false,
      "stateMutability": "view",
      "type": "function"
    },
    {
      "constant": true,
      "inputs": [],
      "name": "getNumberOfProducts",
      "outputs": [
        {
          "name": "",
          "type": "uint256"
        }
      ],
      "payable": false,
      "stateMutability": "view",
      "type": "function"
    },
    {
      "constant": true,
      "inputs": [],
      "name": "getProductsForSale",
      "outputs": [
        {
          "name": "",
          "type": "uint256[]"
        }
      ],
      "payable": false,
      "stateMutability": "view",
      "type": "function"
    },
    {
      "constant": false,
      "inputs": [
        {
          "name": "_productId",
          "type": "uint256"
        }
      ],
      "name": "buyProduct",
      "outputs": [],
      "payable": true,
      "stateMutability": "payable",
      "type": "function"
    }
  ],
  "bytecode": "0x60806040523480156200001157600080fd5b5060405162001dee38038062001dee833981018060405260408110156200003757600080fd5b8101908080516401000000008111156200005057600080fd5b828101905060208101848111156200006757600080fd5b81518560018202830111640100000000821117156200008557600080fd5b505092919060200180519060200190929190505050336000806101000a81548173ffffffffffffffffffffffffffffffffffffffff021916908373ffffffffffffffffffffffffffffffffffffffff160217905550620000ec8282620000f460201b60201c565b50506200043d565b6004600081548092919060010191905055506040518060a001604052806004548152602001838152602001600081526020018273ffffffffffffffffffffffffffffffffffffffff16815260200160036000600454815260200190815260200160002060040160148060200260405190810160405280929190826014801562000193576020028201915b8154815260200190600101908083116200017e575b5050505050815250600360006004548152602001908152602001600020600082015181600001556020820151816001019080519060200190620001d892919062000321565b506040820151816002015560608201518160030160006101000a81548173ffffffffffffffffffffffffffffffffffffffff021916908373ffffffffffffffffffffffffffffffffffffffff16021790555060808201518160040190601462000243929190620003a8565b509050506004547f5d98e012832cf0e77f65c08aa1710eef1ba2011d66552b0b503926c8849e7d24838360405180806020018373ffffffffffffffffffffffffffffffffffffffff1673ffffffffffffffffffffffffffffffffffffffff168152602001828103825284818151815260200191508051906020019080838360005b83811015620002e1578082015181840152602081019050620002c4565b50505050905090810190601f1680156200030f5780820380516001836020036101000a031916815260200191505b50935050505060405180910390a25050565b828054600181600116156101000203166002900490600052602060002090601f016020900481019282601f106200036457805160ff191683800117855562000395565b8280016001018555821562000395579182015b828111156200039457825182559160200191906001019062000377565b5b509050620003a49190620003ed565b5090565b8260148101928215620003da579160200282015b82811115620003d9578251825591602001919060010190620003bc565b5b509050620003e9919062000415565b5090565b6200041291905b808211156200040e576000816000905550600101620003f4565b5090565b90565b6200043a91905b80821115620004365760008160009055506001016200041c565b5090565b90565b6119a1806200044d6000396000f3fe60806040526004361061009b5760003560e01c8063597aa5b211610064578063597aa5b2146103ac57806377a2a439146103d75780637acc0b20146104405780638642269e146105a1578063e8a59cd8146105cf578063f28ea1c1146106c45761009b565b8062e840bf1461009d5780633e505685146101095780633ffd81fb1461022d578063553b8b6914610258578063553fabfb146102c4575b005b3480156100a957600080fd5b506100b261082d565b6040518080602001828103825283818151815260200191508051906020019060200280838360005b838110156100f55780820151818401526020810190506100da565b505050509050019250505060405180910390f35b34801561011557600080fd5b506101426004803603602081101561012c57600080fd5b81019080803590602001909291905050506109af565b60405180868152602001806020018581526020018473ffffffffffffffffffffffffffffffffffffffff1673ffffffffffffffffffffffffffffffffffffffff16815260200183601460200280838360005b838110156101af578082015181840152602081019050610194565b50505050905001828103825286818151815260200191508051906020019080838360005b838110156101ee5780820151818401526020810190506101d3565b50505050905090810190601f16801561021b5780820380516001836020036101000a031916815260200191505b50965050505050505060405180910390f35b34801561023957600080fd5b50610242610bc6565b6040518082815260200191505060405180910390f35b34801561026457600080fd5b5061026d610bd0565b6040518080602001828103825283818151815260200191508051906020019060200280838360005b838110156102b0578082015181840152602081019050610295565b505050509050019250505060405180910390f35b3480156102d057600080fd5b506103aa600480360360408110156102e757600080fd5b810190808035906020019064010000000081111561030457600080fd5b82018360208201111561031657600080fd5b8035906020019184600183028401116401000000008311171561033857600080fd5b91908080601f016020809104026020016040519081016040528093929190818152602001838380828437600081840152601f19601f820116905080830192505050505050509192919290803573ffffffffffffffffffffffffffffffffffffffff169060200190929190505050610d51565b005b3480156103b857600080fd5b506103c1610f75565b6040518082815260200191505060405180910390f35b3480156103e357600080fd5b50610426600480360360208110156103fa57600080fd5b81019080803573ffffffffffffffffffffffffffffffffffffffff169060200190929190505050610f7f565b604051808215151515815260200191505060405180910390f35b34801561044c57600080fd5b506104796004803603602081101561046357600080fd5b8101908080359060200190929190505050610f9f565b6040518086815260200180602001806020018581526020018473ffffffffffffffffffffffffffffffffffffffff1673ffffffffffffffffffffffffffffffffffffffff168152602001838103835287818151815260200191508051906020019080838360005b838110156104fb5780820151818401526020810190506104e0565b50505050905090810190601f1680156105285780820380516001836020036101000a031916815260200191505b50838103825286818151815260200191508051906020019080838360005b83811015610561578082015181840152602081019050610546565b50505050905090810190601f16801561058e5780820380516001836020036101000a031916815260200191505b5097505050505050505060405180910390f35b6105cd600480360360208110156105b757600080fd5b8101908080359060200190929190505050611125565b005b3480156105db57600080fd5b50610608600480360360208110156105f257600080fd5b81019080803590602001909291905050506114f3565b60405180858152602001806020018481526020018373ffffffffffffffffffffffffffffffffffffffff1673ffffffffffffffffffffffffffffffffffffffff168152602001828103825285818151815260200191508051906020019080838360005b8381101561068657808201518184015260208101905061066b565b50505050905090810190601f1680156106b35780820380516001836020036101000a031916815260200191505b509550505050505060405180910390f35b3480156106d057600080fd5b5061082b600480360360608110156106e757600080fd5b810190808035906020019064010000000081111561070457600080fd5b82018360208201111561071657600080fd5b8035906020019184600183028401116401000000008311171561073857600080fd5b91908080601f016020809104026020016040519081016040528093929190818152602001838380828437600081840152601f19601f8201169050808301925050505050505091929192908035906020019064010000000081111561079b57600080fd5b8201836020820111156107ad57600080fd5b803590602001918460018302840111640100000000831117156107cf57600080fd5b91908080601f016020809104026020016040519081016040528093929190818152602001838380828437600081840152601f19601f820116905080830192505050505050509192919290803590602001909291905050506115db565b005b6060806006546040519080825280602002602001820160405280156108615781602001602082028038833980820191505090505b50905060008090506000600190505b600654811161092957600073ffffffffffffffffffffffffffffffffffffffff166005600083815260200190815260200160002060040160009054906101000a900473ffffffffffffffffffffffffffffffffffffffff1673ffffffffffffffffffffffffffffffffffffffff16141561091c57600560008281526020019081526020016000206000015483838151811061090757fe5b60200260200101818152505081806001019250505b8080600101915050610870565b5060608160405190808252806020026020018201604052801561095b5781602001602082028038833980820191505090505b50905060008090505b828110156109a55783818151811061097857fe5b602002602001015182828151811061098c57fe5b6020026020010181815250508080600101915050610964565b5080935050505090565b600060606000806109be6117f2565b6000861180156109d557506109d1610f75565b8611155b610a47576040517f08c379a00000000000000000000000000000000000000000000000000000000081526004018080602001828103825260198152602001807f5468652073746f7265204964206973206e6f74207661696c640000000000000081525060200191505060405180910390fd5b6003600087815260200190815260200160002060000154600360008881526020019081526020016000206001016003600089815260200190815260200160002060020154600360008a815260200190815260200160002060030160009054906101000a900473ffffffffffffffffffffffffffffffffffffffff16600360008b8152602001908152602001600020600401838054600181600116156101000203166002900480601f016020809104026020016040519081016040528092919081815260200182805460018160011615610100020316600290048015610b6d5780601f10610b4257610100808354040283529160200191610b6d565b820191906000526020600020905b815481529060010190602001808311610b5057829003601f168201915b5050505050935080601480602002604051908101604052809291908260148015610bac576020028201915b815481526020019060010190808311610b98575b505050505090509450945094509450945091939590929450565b6000600654905090565b606080600454604051908082528060200260200182016040528015610c045781602001602082028038833980820191505090505b50905060008090506000600190505b6004548111610ccb57600073ffffffffffffffffffffffffffffffffffffffff166003600083815260200190815260200160002060030160009054906101000a900473ffffffffffffffffffffffffffffffffffffffff1673ffffffffffffffffffffffffffffffffffffffff1614610cbe576003600082815260200190815260200160002060000154838381518110610ca957fe5b60200260200101818152505081806001019250505b8080600101915050610c13565b50606081604051908082528060200260200182016040528015610cfd5781602001602082028038833980820191505090505b50905060008090505b82811015610d4757838181518110610d1a57fe5b6020026020010151828281518110610d2e57fe5b6020026020010181815250508080600101915050610d06565b5080935050505090565b6004600081548092919060010191905055506040518060a001604052806004548152602001838152602001600081526020018273ffffffffffffffffffffffffffffffffffffffff168152602001600360006004548152602001908152602001600020600401601480602002604051908101604052809291908260148015610dee576020028201915b815481526020019060010190808311610dda575b5050505050815250600360006004548152602001908152602001600020600082015181600001556020820151816001019080519060200190610e31929190611815565b506040820151816002015560608201518160030160006101000a81548173ffffffffffffffffffffffffffffffffffffffff021916908373ffffffffffffffffffffffffffffffffffffffff160217905550608082015181600401906014610e9a929190611895565b509050506004547f5d98e012832cf0e77f65c08aa1710eef1ba2011d66552b0b503926c8849e7d24838360405180806020018373ffffffffffffffffffffffffffffffffffffffff1673ffffffffffffffffffffffffffffffffffffffff168152602001828103825284818151815260200191508051906020019080838360005b83811015610f36578082015181840152602081019050610f1b565b50505050905090810190601f168015610f635780820380516001836020036101000a031916815260200191505b50935050505060405180910390a25050565b6000600454905090565b60026020528060005260406000206000915054906101000a900460ff1681565b6005602052806000526040600020600091509050806000015490806001018054600181600116156101000203166002900480601f0160208091040260200160405190810160405280929190818152602001828054600181600116156101000203166002900480156110515780601f1061102657610100808354040283529160200191611051565b820191906000526020600020905b81548152906001019060200180831161103457829003601f168201915b505050505090806002018054600181600116156101000203166002900480601f0160208091040260200160405190810160405280929190818152602001828054600181600116156101000203166002900480156110ef5780601f106110c4576101008083540402835291602001916110ef565b820191906000526020600020905b8154815290600101906020018083116110d257829003601f168201915b5050505050908060030154908060040160009054906101000a900473ffffffffffffffffffffffffffffffffffffffff16905085565b60006006541161119d576040517f08c379a000000000000000000000000000000000000000000000000000000000815260040180806020018281038252601f8152602001807f5468652070726f647563742073686f756c6420626520617661696c61626c650081525060200191505060405180910390fd5b6000811180156111af57506006548111155b611221576040517f08c379a00000000000000000000000000000000000000000000000000000000081526004018080602001828103825260198152602001807f5468652070726f647563742073686f756c64206578697374730000000000000081525060200191505060405180910390fd5b6000600560008381526020019081526020016000209050600073ffffffffffffffffffffffffffffffffffffffff168160040160009054906101000a900473ffffffffffffffffffffffffffffffffffffffff1673ffffffffffffffffffffffffffffffffffffffff16146112e1576040517f08c379a000000000000000000000000000000000000000000000000000000000815260040180806020018281038252602981526020018061194d6029913960400191505060405180910390fd5b8060030154341461133d576040517f08c379a000000000000000000000000000000000000000000000000000000000815260040180806020018281038252602d815260200180611920602d913960400191505060405180910390fd5b338160040160006101000a81548173ffffffffffffffffffffffffffffffffffffffff021916908373ffffffffffffffffffffffffffffffffffffffff1602179055508060040160009054906101000a900473ffffffffffffffffffffffffffffffffffffffff1673ffffffffffffffffffffffffffffffffffffffff166108fc349081150290604051600060405180830381858888f193505050501580156113ea573d6000803e3d6000fd5b508060040160009054906101000a900473ffffffffffffffffffffffffffffffffffffffff1673ffffffffffffffffffffffffffffffffffffffff16827fd405904c761d8820244add9e01bb3c0237a52715fc5cb71b5a671952634212d683600101846003015460405180806020018381526020018281038252848181546001816001161561010002031660029004815260200191508054600181600116156101000203166002900480156114e05780601f106114b5576101008083540402835291602001916114e0565b820191906000526020600020905b8154815290600101906020018083116114c357829003601f168201915b5050935050505060405180910390a35050565b6003602052806000526040600020600091509050806000015490806001018054600181600116156101000203166002900480601f0160208091040260200160405190810160405280929190818152602001828054600181600116156101000203166002900480156115a55780601f1061157a576101008083540402835291602001916115a5565b820191906000526020600020905b81548152906001019060200180831161158857829003601f168201915b5050505050908060020154908060030160009054906101000a900473ffffffffffffffffffffffffffffffffffffffff16905084565b6006600081548092919060010191905055506040518060a0016040528060065481526020018481526020018381526020018281526020013373ffffffffffffffffffffffffffffffffffffffff16815250600560006006548152602001908152602001600020600082015181600001556020820151816001019080519060200190611667929190611815565b506040820151816002019080519060200190611684929190611815565b506060820151816003015560808201518160040160006101000a81548173ffffffffffffffffffffffffffffffffffffffff021916908373ffffffffffffffffffffffffffffffffffffffff1602179055509050506006547fdbdff3ba4a4fc23f5acb23f9a3bfb4f45453e90f674268adf3fd87178d8538fd848484604051808060200180602001848152602001838103835286818151815260200191508051906020019080838360005b8381101561174a57808201518184015260208101905061172f565b50505050905090810190601f1680156117775780820380516001836020036101000a031916815260200191505b50838103825285818151815260200191508051906020019080838360005b838110156117b0578082015181840152602081019050611795565b50505050905090810190601f1680156117dd5780820380516001836020036101000a031916815260200191505b509550505050505060405180910390a2505050565b604051806102800160405280601490602082028038833980820191505090505090565b828054600181600116156101000203166002900490600052602060002090601f016020900481019282601f1061185657805160ff1916838001178555611884565b82800160010185558215611884579182015b82811115611883578251825591602001919060010190611868565b5b50905061189191906118d5565b5090565b82601481019282156118c4579160200282015b828111156118c35782518255916020019190600101906118a8565b5b5090506118d191906118fa565b5090565b6118f791905b808211156118f35760008160009055506001016118db565b5090565b90565b61191c91905b80821115611918576000816000905550600101611900565b5090565b9056fe546865206d73672e76616c756520636f72726573706f6e647320746f207468652070726f6475742070726963655468652070726f647563742073686f756c64206e6f742068617665206265656e20736f6c6420796574a165627a7a72305820a272025488efefccc4359909683934e468061c818f8caee1120b34c7d40bbeb00029",
  "source": "pragma solidity >=0.5.0;\n\nimport \"./Ownable.sol\";\n    /// @author zen2see\n    /// @title OnlineMarketPlace project\n\n    /*\n        Simple OnlineMarketPlace that operates on the blockchain.\n    */\ncontract OnlineMP is Ownable {\n    /*\n        state variables\n    */\n    address storeOwner;\n    mapping (address => bool) public isStoreOwners;\n\n    /*\n        @notice A Store:\n        Store id: @storeId\n        Store name: @storeName\n        Store balance: @storeBal\n        Store owner: @storeOwnedBy\n        Store products: @products\n    */\n    struct Store {\n      uint storeId;\n      string storeName;\n      uint256 storeBal;\n      address storeOwnedBy;\n      bytes32[20] products;\n    }\n\n    /*\n        state variables, declare a store as a structure type through mapping\n    */\n    mapping (uint => Store) public stores;\n    uint storeCounter;\n\n    /*\n        @notice A Product:\n        Product id: @prodId\n        Product name: @prodName\n        Product desc: @prodDescription\n        Product price: @prodPrice\n        Product purchaser: purchaser\n    */\n    struct Product {\n      uint prodId;\n      string prodName;\n      string prodDescription;\n      uint256 prodPrice;\n      address payable purchaser;\n    }\n\n    /*\n         more state variables as a structure type..\n    */\n    mapping (uint => Product) public products;\n    uint prodCounter;\n\n    /*\n        LogAddStore should provide info about the store ID and store name\n    */\n    event LogAddStore(\n      uint indexed _storesId,\n      string _storesName,\n      address _storeOwner\n    );\n\n    /*\n        LogAddProduct should provide info about product ID, name, desc and price\n    */\n    event LogAddProduct(\n      uint indexed _prodId,\n      string _productName,\n      string _prodDescription,\n      uint256 _prodPrice\n    );\n\n    /*\n        LogSellProduct should provide info about the product ID and product name\n    */\n    event LogSellProduct(\n      address indexed _storeOwner,\n      string  _productName,\n      uint256 _price\n    );\n\n    /*\n        LogBuyTickets should provide info about purchaser and # of prod bought\n    */\n    event LogBuyProduct(\n      uint indexed _productId,\n      address indexed _purchaser,\n      string  _productName,\n      uint256 _price\n    );\n\n    /*\n        Create a modifier that throws an error if the address !storeOwner\n    */\n    modifier isStoreOwner(address _isStoreOwner) {\n      require(\n        isStoreOwners[_isStoreOwner] == true,\n        \"Only store owner can call ths function.\"\n      );\n      _;\n    }\n\n    /*\n        Define a constructor.\n    */\n    constructor (string memory _defaultStoreName, address _defaultAddress)\n      public\n    {\n      addStore(_defaultStoreName, _defaultAddress);\n    }\n\n    /*\n        @notice Payable fallback\n    */\n    function() external payable {\n\n    }\n\n    /*\n        This function adds values for:\n          storeId\n          storeName\n          storeOwner\n    */\n    function addStore(string memory _storeName, address _newStoreOwner)\n      public\n    {\n\n    /*\n        store count\n    */\n      storeCounter++;\n\n    /*\n        update via StoreId\n    */\n      stores[storeCounter] = Store(\n        storeCounter,\n        _storeName,\n        0,\n        _newStoreOwner,\n        stores[storeCounter].products\n      );\n\n      emit LogAddStore(storeCounter, _storeName, _newStoreOwner);\n    }\n\n    /*\n        This function adds values for:\n          prodId\n          prodName\n          prodDescription\n          prodPrice\n    */\n    function addProduct(\n      string memory _prodName, string memory _prodDescription, uint _prodPrice)\n      public\n    {\n\n    /*\n        store count\n    */\n      prodCounter++;\n\n    /*\n        update via storeId\n    */\n      products[prodCounter] = Product(\n        prodCounter,\n        _prodName,\n        _prodDescription,\n        _prodPrice,\n        msg.sender\n      );\n\n      emit LogAddProduct(prodCounter, _prodName, _prodDescription, _prodPrice);\n    }\n\n    /*\n        This function gets the store counter\n    */\n    function getNumberOfStores() public view returns (uint) {\n      return storeCounter;\n    }\n\n    /*\n        This function gets all the stores\n    */\n    function getStoresOwned() public view returns (uint[] memory) {\n\n    /*\n        Store IDs\n    */\n      uint[] memory storeIds = new uint[](storeCounter);\n\n      uint numberOfStores = 0;\n\n    /*\n        Collect IDs of stores available\n    */\n      for (uint i = 1; i <= storeCounter; i++) {\n        if (stores[i].storeOwnedBy != address(0)) {\n          storeIds[numberOfStores] = stores[i].storeId;\n          numberOfStores++;\n        }\n      }\n\n    /*\n        Create a storesOwned array\n    */\n      uint[] memory storesOwned = new uint[](numberOfStores);\n      for(uint j = 0; j < numberOfStores; j++) {\n        storesOwned[j] = storeIds[j];\n      }\n      return storesOwned;\n    }\n\n    /*\n        Select a store via id\n    */\n    function selectStore(uint _storeId)\n      public\n      view\n      returns (\n        uint,\n        string memory,\n        uint256,\n        address,\n        bytes32[20] memory\n      )\n    {\n      require(\n        _storeId > 0 && _storeId <= getNumberOfStores(),\n        \"The store Id is not vaild\"\n      );\n      return (\n        stores[_storeId].storeId,\n        stores[_storeId].storeName,\n        stores[_storeId].storeBal,\n        stores[_storeId].storeOwnedBy,\n        stores[_storeId].products\n      );\n    }\n\n    /*\n        This function gets the product counter\n    */\n    function getNumberOfProducts() public view returns (uint) {\n      return prodCounter;\n    }\n\n    /*\n        This function gets the products for sale\n    */\n    function getProductsForSale() public view returns (uint[] memory) {\n    /*\n        Store product IDs\n    */\n      uint[] memory productIds = new uint[](prodCounter);\n\n      uint numberOfProductsForSale = 0;\n\n    /*\n        Collect IDs of products still for available for sale\n    */\n      for (uint i  =1; i <= prodCounter; i++) {\n        if (products[i].purchaser == address(0x0)) {\n          productIds[numberOfProductsForSale] = products[i].prodId;\n          numberOfProductsForSale++;\n        }\n      }\n    /*\n        Create a forSale array\n    */\n      uint[] memory forSale = new uint[](numberOfProductsForSale);\n      for(uint j = 0; j < numberOfProductsForSale; j++) {\n        forSale[j] = productIds[j];\n      }\n      return forSale;\n    }\n\n\n\n    /*\n        This function buys a product from store:\n          storeId\n          prodId\n          prodName\n          prodPrice\n    */\n    function buyProduct(uint _productId)\n      payable\n      public\n    {\n      require(\n        prodCounter > 0,\n        \"The product should be available\"\n      );\n\n      require(\n        _productId > 0 && _productId <= prodCounter,\n        \"The product should exists\"\n      );\n\n    /*\n        retrieve product\n    */\n        Product storage product = products[_productId];\n\n        require(\n          product.purchaser == address(0x0),\n          \"The product should not have been sold yet\"\n        );\n\n    /*\n        require(\n          stores[_storesId].storeOwner != msg.sender,\n          \"The store owner should not be allowed to buy products\"\n        );\n    */\n        require(\n          msg.value == product.prodPrice,\n          \"The msg.value corresponds to the produt price\"\n        );\n\n    /*\n        update purchaser\n    */\n        product.purchaser = msg.sender;\n\n    /*\n        purchaser makes purchase avoid re-entrancy here\n    */\n        product.purchaser.transfer(msg.value);\n\n    /*\n        emit LogBuyProduct event\n    */\n        emit LogBuyProduct(_productId, product.purchaser, product.prodName, product.prodPrice);\n    }\n\n\n}",
  "sourcePath": "/Users/kokom/DEV/ETHEREUM/CONSENSYS/FPROJ/contracts/OnlineMP.sol",
  "compiler": {
    "name": "solc",
    "version": "0.5.8+commit.23d335f2.Emscripten.clang"
  },
  "schemaVersion": "3.0.11",
  "updatedAt": "2019-08-11T16:01:13.256Z",
  "devdoc": {
    "author": "zen2see",
    "methods": {},
    "title": "OnlineMarketPlace project"
  },
  "userdoc": {
    "methods": {}
  }
}