{
  "contractName": "OnlineMP",
  "abi": [
    {
      "inputs": [
        {
          "internalType": "string",
          "name": "_defaultStoreName",
          "type": "string"
        },
        {
          "internalType": "address payable",
          "name": "_defaultAddress",
          "type": "address"
        }
      ],
      "stateMutability": "nonpayable",
      "type": "constructor"
    },
    {
      "anonymous": false,
      "inputs": [
        {
          "indexed": true,
          "internalType": "uint256",
          "name": "_prodId",
          "type": "uint256"
        },
        {
          "indexed": false,
          "internalType": "string",
          "name": "_productName",
          "type": "string"
        },
        {
          "indexed": false,
          "internalType": "string",
          "name": "_prodDescription",
          "type": "string"
        },
        {
          "indexed": false,
          "internalType": "uint256",
          "name": "_prodPrice",
          "type": "uint256"
        }
      ],
      "name": "LogAddProduct",
      "type": "event"
    },
    {
      "anonymous": false,
      "inputs": [
        {
          "indexed": true,
          "internalType": "uint256",
          "name": "_storesId",
          "type": "uint256"
        },
        {
          "indexed": false,
          "internalType": "string",
          "name": "_storesName",
          "type": "string"
        },
        {
          "indexed": false,
          "internalType": "address",
          "name": "_storeOwner",
          "type": "address"
        }
      ],
      "name": "LogAddStore",
      "type": "event"
    },
    {
      "anonymous": false,
      "inputs": [
        {
          "indexed": true,
          "internalType": "uint256",
          "name": "_productId",
          "type": "uint256"
        },
        {
          "indexed": true,
          "internalType": "address",
          "name": "_purchaser",
          "type": "address"
        },
        {
          "indexed": false,
          "internalType": "string",
          "name": "_productName",
          "type": "string"
        },
        {
          "indexed": false,
          "internalType": "uint256",
          "name": "_price",
          "type": "uint256"
        }
      ],
      "name": "LogBuyProduct",
      "type": "event"
    },
    {
      "anonymous": false,
      "inputs": [
        {
          "indexed": true,
          "internalType": "address",
          "name": "_storeOwner",
          "type": "address"
        },
        {
          "indexed": false,
          "internalType": "string",
          "name": "_productName",
          "type": "string"
        },
        {
          "indexed": false,
          "internalType": "uint256",
          "name": "_price",
          "type": "uint256"
        }
      ],
      "name": "LogSellProduct",
      "type": "event"
    },
    {
      "inputs": [
        {
          "internalType": "address",
          "name": "",
          "type": "address"
        }
      ],
      "name": "isStoreOwners",
      "outputs": [
        {
          "internalType": "bool",
          "name": "",
          "type": "bool"
        }
      ],
      "stateMutability": "view",
      "type": "function",
      "constant": true
    },
    {
      "inputs": [],
      "name": "prodCounter",
      "outputs": [
        {
          "internalType": "uint256",
          "name": "",
          "type": "uint256"
        }
      ],
      "stateMutability": "view",
      "type": "function",
      "constant": true
    },
    {
      "inputs": [
        {
          "internalType": "uint256",
          "name": "",
          "type": "uint256"
        }
      ],
      "name": "products",
      "outputs": [
        {
          "internalType": "uint256",
          "name": "prodId",
          "type": "uint256"
        },
        {
          "internalType": "string",
          "name": "prodName",
          "type": "string"
        },
        {
          "internalType": "string",
          "name": "prodDescription",
          "type": "string"
        },
        {
          "internalType": "uint256",
          "name": "prodPrice",
          "type": "uint256"
        },
        {
          "internalType": "address payable",
          "name": "purchaser",
          "type": "address"
        }
      ],
      "stateMutability": "view",
      "type": "function",
      "constant": true
    },
    {
      "inputs": [],
      "name": "storeProdCounter",
      "outputs": [
        {
          "internalType": "uint256",
          "name": "",
          "type": "uint256"
        }
      ],
      "stateMutability": "view",
      "type": "function",
      "constant": true
    },
    {
      "inputs": [
        {
          "internalType": "uint256",
          "name": "",
          "type": "uint256"
        }
      ],
      "name": "stores",
      "outputs": [
        {
          "internalType": "uint256",
          "name": "storeId",
          "type": "uint256"
        },
        {
          "internalType": "string",
          "name": "storeName",
          "type": "string"
        },
        {
          "internalType": "uint256",
          "name": "storeBal",
          "type": "uint256"
        },
        {
          "internalType": "address payable",
          "name": "storeOwnedBy",
          "type": "address"
        }
      ],
      "stateMutability": "view",
      "type": "function",
      "constant": true
    },
    {
      "stateMutability": "payable",
      "type": "receive",
      "payable": true
    },
    {
      "inputs": [],
      "name": "kill",
      "outputs": [],
      "stateMutability": "nonpayable",
      "type": "function"
    },
    {
      "inputs": [
        {
          "internalType": "string",
          "name": "_storeName",
          "type": "string"
        },
        {
          "internalType": "uint256",
          "name": "_storeBal",
          "type": "uint256"
        },
        {
          "internalType": "address payable",
          "name": "_newStoreOwner",
          "type": "address"
        }
      ],
      "name": "addStore",
      "outputs": [],
      "stateMutability": "nonpayable",
      "type": "function"
    },
    {
      "inputs": [
        {
          "internalType": "string",
          "name": "_prodName",
          "type": "string"
        },
        {
          "internalType": "string",
          "name": "_prodDescription",
          "type": "string"
        },
        {
          "internalType": "uint256",
          "name": "_prodPrice",
          "type": "uint256"
        }
      ],
      "name": "addProduct",
      "outputs": [],
      "stateMutability": "nonpayable",
      "type": "function"
    },
    {
      "inputs": [],
      "name": "getNumberOfStores",
      "outputs": [
        {
          "internalType": "uint256",
          "name": "",
          "type": "uint256"
        }
      ],
      "stateMutability": "view",
      "type": "function",
      "constant": true
    },
    {
      "inputs": [],
      "name": "getStoresOwned",
      "outputs": [
        {
          "internalType": "uint256[]",
          "name": "",
          "type": "uint256[]"
        }
      ],
      "stateMutability": "view",
      "type": "function",
      "constant": true
    },
    {
      "inputs": [
        {
          "internalType": "uint256",
          "name": "_storeId",
          "type": "uint256"
        }
      ],
      "name": "selectStore",
      "outputs": [
        {
          "internalType": "uint256",
          "name": "",
          "type": "uint256"
        },
        {
          "internalType": "string",
          "name": "",
          "type": "string"
        },
        {
          "internalType": "uint256",
          "name": "",
          "type": "uint256"
        },
        {
          "internalType": "address",
          "name": "",
          "type": "address"
        },
        {
          "internalType": "uint256[]",
          "name": "",
          "type": "uint256[]"
        }
      ],
      "stateMutability": "view",
      "type": "function",
      "constant": true
    },
    {
      "inputs": [],
      "name": "getNumberOfProducts",
      "outputs": [
        {
          "internalType": "uint256",
          "name": "",
          "type": "uint256"
        }
      ],
      "stateMutability": "view",
      "type": "function",
      "constant": true
    },
    {
      "inputs": [],
      "name": "getProductsForSale",
      "outputs": [
        {
          "internalType": "uint256[]",
          "name": "",
          "type": "uint256[]"
        }
      ],
      "stateMutability": "view",
      "type": "function",
      "constant": true
    },
    {
      "inputs": [
        {
          "internalType": "uint256",
          "name": "_prodId",
          "type": "uint256"
        }
      ],
      "name": "selectProduct",
      "outputs": [
        {
          "internalType": "uint256",
          "name": "",
          "type": "uint256"
        },
        {
          "internalType": "string",
          "name": "",
          "type": "string"
        },
        {
          "internalType": "string",
          "name": "",
          "type": "string"
        },
        {
          "internalType": "uint256",
          "name": "",
          "type": "uint256"
        },
        {
          "internalType": "address",
          "name": "",
          "type": "address"
        }
      ],
      "stateMutability": "view",
      "type": "function",
      "constant": true
    },
    {
      "inputs": [
        {
          "internalType": "uint256",
          "name": "_productId",
          "type": "uint256"
        }
      ],
      "name": "buyProduct",
      "outputs": [],
      "stateMutability": "payable",
      "type": "function",
      "payable": true
    }
  ],
  "bytecode": "0x60806040523480156200001157600080fd5b5060405162001b3838038062001b38833981810160405260408110156200003757600080fd5b81019080805160405193929190846401000000008211156200005857600080fd5b9083019060208201858111156200006e57600080fd5b82516401000000008111828201881017156200008957600080fd5b82525081516020918201929091019080838360005b83811015620000b85781810151838201526020016200009e565b50505050905090810190601f168015620000e65780820380516001836020036101000a031916815260200191505b5060405260200151600080546001600160a01b031916331781559092506200011b91508390836001600160e01b036200012316565b5050620003e2565b60038054600101908190556040805160a08101825282815260208082018790528183018690526001600160a01b0385166060830152600093845260028152928290206004018054835181860281018601909452808452919360808501939290830182828015620001b357602002820191906000526020600020905b8154815260200190600101908083116200019e575b5050509190925250506003546000908152600260209081526040909120825181558282015180519192620001f09260018501929091019062000300565b506040820151600282015560608201516003820180546001600160a01b0319166001600160a01b03909216919091179055608082015180516200023e91600484019160209091019062000385565b509050506003547f5d98e012832cf0e77f65c08aa1710eef1ba2011d66552b0b503926c8849e7d2484836040518080602001836001600160a01b03166001600160a01b03168152602001828103825284818151815260200191508051906020019080838360005b83811015620002bf578181015183820152602001620002a5565b50505050905090810190601f168015620002ed5780820380516001836020036101000a031916815260200191505b50935050505060405180910390a2505050565b828054600181600116156101000203166002900490600052602060002090601f016020900481019282601f106200034357805160ff191683800117855562000373565b8280016001018555821562000373579182015b828111156200037357825182559160200191906001019062000356565b5062000381929150620003c2565b5090565b8280548282559060005260206000209081019282156200037357916020028201828111156200037357825182559160200191906001019062000356565b620003df91905b80821115620003815760008155600101620003c9565b90565b61174680620003f26000396000f3fe6080604052600436106100eb5760003560e01c806357a930891161008a5780637acc0b20116100595780637acc0b201461052f5780638642269e14610559578063e8a59cd814610576578063f28ea1c114610635576100f2565b806357a93089146103fd578063597aa5b2146104be57806373c186f8146104d357806377a2a439146104e8576100f2565b80633ffd81fb116100c65780633ffd81fb1461028d57806341c0e1b5146102a2578063440113dd146102b9578063553b8b69146103e8576100f2565b8062e840bf146100f75780630eb408d21461015c5780633e50568514610183576100f2565b366100f257005b600080fd5b34801561010357600080fd5b5061010c610771565b60408051602080825283518183015283519192839290830191858101910280838360005b83811015610148578181015183820152602001610130565b505050509050019250505060405180910390f35b34801561016857600080fd5b5061017161087f565b60408051918252519081900360200190f35b34801561018f57600080fd5b506101ad600480360360208110156101a657600080fd5b5035610885565b6040518086815260200180602001858152602001846001600160a01b03166001600160a01b0316815260200180602001838103835287818151815260200191508051906020019080838360005b838110156102125781810151838201526020016101fa565b50505050905090810190601f16801561023f5780820380516001836020036101000a031916815260200191505b508381038252845181528451602091820191808701910280838360005b8381101561027457818101518382015260200161025c565b5050505090500197505050505050505060405180910390f35b34801561029957600080fd5b50610171610a16565b3480156102ae57600080fd5b506102b7610a1c565b005b3480156102c557600080fd5b506102e3600480360360208110156102dc57600080fd5b5035610a73565b604051808681526020018060200180602001858152602001846001600160a01b03166001600160a01b03168152602001838103835287818151815260200191508051906020019080838360005b83811015610348578181015183820152602001610330565b50505050905090810190601f1680156103755780820380516001836020036101000a031916815260200191505b50838103825286518152865160209182019188019080838360005b838110156103a8578181015183820152602001610390565b50505050905090810190601f1680156103d55780820380516001836020036101000a031916815260200191505b5097505050505050505060405180910390f35b3480156103f457600080fd5b5061010c610c46565b34801561040957600080fd5b506102b76004803603606081101561042057600080fd5b81019060208101813564010000000081111561043b57600080fd5b82018360208201111561044d57600080fd5b8035906020019184600183028401116401000000008311171561046f57600080fd5b91908080601f01602080910402602001604051908101604052809392919081815260200183838082843760009201919091525092955050823593505050602001356001600160a01b0316610d4b565b3480156104ca57600080fd5b50610171610f1f565b3480156104df57600080fd5b50610171610f25565b3480156104f457600080fd5b5061051b6004803603602081101561050b57600080fd5b50356001600160a01b0316610f2b565b604080519115158252519081900360200190f35b34801561053b57600080fd5b506102e36004803603602081101561055257600080fd5b5035610f40565b6102b76004803603602081101561056f57600080fd5b503561108f565b34801561058257600080fd5b506105a06004803603602081101561059957600080fd5b503561130a565b604080518581529081018390526001600160a01b038216606082015260806020808301828152865192840192909252855160a084019187019080838360005b838110156105f75781810151838201526020016105df565b50505050905090810190601f1680156106245780820380516001836020036101000a031916815260200191505b509550505050505060405180910390f35b34801561064157600080fd5b506102b76004803603606081101561065857600080fd5b81019060208101813564010000000081111561067357600080fd5b82018360208201111561068557600080fd5b803590602001918460018302840111640100000000831117156106a757600080fd5b91908080601f01602080910402602001604051908101604052809392919081815260200183838082843760009201919091525092959493602081019350359150506401000000008111156106fa57600080fd5b82018360208201111561070c57600080fd5b8035906020019184600183028401116401000000008311171561072e57600080fd5b91908080601f01602080910402602001604051908101604052809392919081815260200183838082843760009201919091525092955050913592506113c5915050565b6060806006546040519080825280602002602001820160405280156107a0578160200160208202803883390190505b509050600060015b6006548111610808576000818152600560205260409020600401546001600160a01b0316156108005760008181526005602052604090205483518490849081106107ee57fe5b60209081029190910101526001909101905b6001016107a8565b50606081604051908082528060200260200182016040528015610835578160200160208202803883390190505b50905060005b828110156108765783818151811061084f57fe5b602002602001015182828151811061086357fe5b602090810291909101015260010161083b565b50925050505b90565b60065481565b6000606060008060606000861180156108a557506108a1610f1f565b8611155b6108f6576040805162461bcd60e51b815260206004820152601960248201527f5468652073746f7265204964206973206e6f74207661696c6400000000000000604482015290519081900360640190fd5b60008681526002602081815260409283902080548184015460038301546001808501805489516101009382161593909302600019011697909704601f8101879004870282018701909852878152929691946001600160a01b0390911693600401929186918301828280156109ab5780601f10610980576101008083540402835291602001916109ab565b820191906000526020600020905b81548152906001019060200180831161098e57829003601f168201915b505084546040805160208084028201810190925282815295995086945090925084019050828280156109fc57602002820191906000526020600020905b8154815260200190600101908083116109e8575b505050505090509450945094509450945091939590929450565b60065490565b6000546001600160a01b03163314610a655760405162461bcd60e51b815260040180806020018281038252602281526020018061169d6022913960400191505060405180910390fd5b6000546001600160a01b0316ff5b6000606080600080600086118015610a925750610a8e610a16565b8611155b610ae3576040805162461bcd60e51b815260206004820152601b60248201527f5468652070726f64756374204964206973206e6f74207661696c640000000000604482015290519081900360640190fd5b6000868152600560209081526040918290208054600382015460048301546001808501805488516002610100948316159490940260001901909116839004601f810189900489028201890190995288815294979096919095019492936001600160a01b03909216928691830182828015610b9e5780601f10610b7357610100808354040283529160200191610b9e565b820191906000526020600020905b815481529060010190602001808311610b8157829003601f168201915b5050865460408051602060026001851615610100026000190190941693909304601f810184900484028201840190925281815295995088945092508401905082828015610c2c5780601f10610c0157610100808354040283529160200191610c2c565b820191906000526020600020905b815481529060010190602001808311610c0f57829003601f168201915b50989f979e50929c50939a50919850939650505050505050565b606080600354604051908082528060200260200182016040528015610c75578160200160208202803883390190505b509050600060015b6003548111610cdd576000818152600260205260409020600301546001600160a01b031615610cd5576000818152600260205260409020548351849084908110610cc357fe5b60209081029190910101526001909101905b600101610c7d565b50606081604051908082528060200260200182016040528015610d0a578160200160208202803883390190505b50905060005b8281101561087657838181518110610d2457fe5b6020026020010151828281518110610d3857fe5b6020908102919091010152600101610d10565b60038054600101908190556040805160a08101825282815260208082018790528183018690526001600160a01b0385166060830152600093845260028152928290206004018054835181860281018601909452808452919360808501939290830182828015610dd957602002820191906000526020600020905b815481526020019060010190808311610dc5575b5050509190925250506003546000908152600260209081526040909120825181558282015180519192610e14926001850192909101906115ca565b506040820151600282015560608201516003820180546001600160a01b0319166001600160a01b0390921691909117905560808201518051610e60916004840191602090910190611648565b509050506003547f5d98e012832cf0e77f65c08aa1710eef1ba2011d66552b0b503926c8849e7d2484836040518080602001836001600160a01b03166001600160a01b03168152602001828103825284818151815260200191508051906020019080838360005b83811015610edf578181015183820152602001610ec7565b50505050905090810190601f168015610f0c5780820380516001836020036101000a031916815260200191505b50935050505060405180910390a2505050565b60035490565b60045481565b60016020526000908152604090205460ff1681565b6005602090815260009182526040918290208054600180830180548651600293821615610100026000190190911692909204601f810186900486028301860190965285825291949293909290830182828015610fdd5780601f10610fb257610100808354040283529160200191610fdd565b820191906000526020600020905b815481529060010190602001808311610fc057829003601f168201915b50505060028085018054604080516020601f600019610100600187161502019094169590950492830185900485028101850190915281815295969594509092509083018282801561106f5780601f106110445761010080835404028352916020019161106f565b820191906000526020600020905b81548152906001019060200180831161105257829003601f168201915b5050505060038301546004909301549192916001600160a01b0316905085565b6000600654116110e6576040805162461bcd60e51b815260206004820152601f60248201527f5468652070726f647563742073686f756c6420626520617661696c61626c6500604482015290519081900360640190fd5b6000811180156110f857506006548111155b611149576040805162461bcd60e51b815260206004820152601960248201527f5468652070726f647563742073686f756c642065786973747300000000000000604482015290519081900360640190fd5b600081815260056020526040902060048101546001600160a01b0316156111a15760405162461bcd60e51b81526004018080602001828103825260298152602001806116bf6029913960400191505060405180910390fd5b80600301543410156111e45760405162461bcd60e51b81526004018080602001828103825260298152602001806116e86029913960400191505060405180910390fd5b6004810180546001600160a01b0319163317908190556040516001600160a01b0391909116903480156108fc02916000818181858888f19350505050158015611231573d6000803e3d6000fd5b5060048101546003820154604080516020810183905281815260018086018054600260001993821615610100029390930116919091049282018390526001600160a01b039094169386937fd405904c761d8820244add9e01bb3c0237a52715fc5cb71b5a671952634212d6939192909181906060820190859080156112f75780601f106112cc576101008083540402835291602001916112f7565b820191906000526020600020905b8154815290600101906020018083116112da57829003601f168201915b5050935050505060405180910390a35050565b60026020818152600092835260409283902080546001808301805487519281161561010002600019011695909504601f81018590048502820185019096528581529094919390929091908301828280156113a55780601f1061137a576101008083540402835291602001916113a5565b820191906000526020600020905b81548152906001019060200180831161138857829003601f168201915b5050505060028301546003909301549192916001600160a01b0316905084565b600680546001908101918290556040805160a0810182528381526020808201888152828401889052606083018790523360808401526000958652600582529290942081518155915180519194929361142393908501929101906115ca565b506040820151805161143f9160028401916020909101906115ca565b50606082810151600383810191909155608093840151600493840180546001600160a01b0319166001600160a01b0390921691909117905554600090815260026020908152604080832060068054855260058452828520549187018054600181810183559187528587200192909255865490910190955593548451948501879052838552885193850193909352875192947fdbdff3ba4a4fc23f5acb23f9a3bfb4f45453e90f674268adf3fd87178d8538fd9489948994899492938493848101939185019290890191908190849084905b83811015611528578181015183820152602001611510565b50505050905090810190601f1680156115555780820380516001836020036101000a031916815260200191505b50838103825285518152855160209182019187019080838360005b83811015611588578181015183820152602001611570565b50505050905090810190601f1680156115b55780820380516001836020036101000a031916815260200191505b509550505050505060405180910390a2505050565b828054600181600116156101000203166002900490600052602060002090601f016020900481019282601f1061160b57805160ff1916838001178555611638565b82800160010185558215611638579182015b8281111561163857825182559160200191906001019061161d565b50611644929150611682565b5090565b828054828255906000526020600020908101928215611638579160200282018281111561163857825182559160200191906001019061161d565b61087c91905b80821115611644576000815560010161168856fe4f6e6c79206f776e65722063616e2063616c6c20746869732066756e6374696f6e2e5468652070726f647563742073686f756c64206e6f742068617665206265656e20736f6c6420796574546865206d73672e76616c756520636f7665727320746f207468652070726f64756374207072696365a264697066735822122001c088907c17b2ebfc8b7ee70b01e9947ed2205cad31a79a5b20ad496867c73e64736f6c63430006010033",
  "source": "pragma solidity >=0.6.0 < 0.7.0;\n\n//import \"./Ownable.sol\";\n\n    /// @author zen2see\n    /// @title OnlineMarketPlace project\n\n    /*\n        Simple OnlineMarketPlace that operates on the blockchain\n    */\ncontract OnlineMP {\n\n    /*\n        state variables\n    */\n    // address storeOwner;\n    address payable owner;\n    mapping (address => bool) public isStoreOwners;\n\n    /*\n        @notice A Store:\n        Store id: @storeId\n        Store name: @storeName\n        Store balance: @storeBal\n        Store owner: @storeOwnedBy\n        Store products: @products\n    */\n    struct Store {\n      uint storeId;\n      string storeName;\n      uint256 storeBal;\n      address payable storeOwnedBy;\n      uint[] products;\n      // address payable seller;\n      // address buyer;\n    }\n\n    /*\n        state variables, declare a store as a structure type through mapping\n    */\n    mapping (uint => Store) public stores;\n    uint storeCounter;\n    // store the stores product count (public for getter())\n    uint public storeProdCounter;\n\n    /*\n        @notice A Product:\n        Product id: @prodId\n        Product name: @prodName\n        Product desc: @prodDescription\n        Product price: @prodPrice\n        Product purchaser: purchaser\n    */\n    struct Product {\n      uint prodId;\n      string prodName;\n      string prodDescription;\n      uint256 prodPrice;\n      address payable purchaser;\n    }\n\n    /*\n         more state variables as a structure type..\n    */\n    mapping (uint => Product) public products;\n    uint public prodCounter;\n\n    /*\n        LogAddStore should provide info about the store ID and store name\n    */\n    event LogAddStore(\n      uint indexed _storesId,\n      string _storesName,\n      address _storeOwner\n    );\n\n    /*\n        LogSelectStore should provide info about the store selected\n    \n    event LogSelectStore(\n      uint indexed _storesId,\n      string _storesName\n      uint256 _storeBal,\n      address _storeOwner\n      uint[] _storeProducts\n    );\n    */\n\n    /*\n        LogAddProduct should provide info about product ID, name, desc and price\n    */\n    event LogAddProduct(\n      uint indexed _prodId,\n      string _productName,\n      string _prodDescription,\n      uint256 _prodPrice\n    );\n\n    /*\n        LogSellProduct should provide info about the product ID and product name\n    */\n    event LogSellProduct(\n      address indexed _storeOwner,\n      string  _productName,\n      uint256 _price\n    );\n\n    /*\n        LogBuyTickets should provide info about purchaser and # of prod bought\n    */\n    event LogBuyProduct(\n      uint indexed _productId,\n      address indexed _purchaser,\n      string  _productName,\n      uint256 _price\n    );\n\n    /*\n        Create a modifier, throws an error if the msg.sender is not the owner\n    */\n    modifier isOwner() {\n      require(\n        msg.sender == owner,\n        \"Only owner can call this function.\"\n        );\n        _;\n    }\n\n    /*\n        Create a modifier that throws an error if the address !storeOwner\n    */\n    modifier isStoreOwner(address _isStoreOwner) {\n      require(\n        isStoreOwners[_isStoreOwner] == true,\n        \"Only store owner can call ths function.\"\n      );\n      _;\n    }\n\n    /*\n        Define a constructor.\n    */\n    constructor (string memory _defaultStoreName, address payable _defaultAddress)\n      public\n    {\n      owner = msg.sender;\n      addStore(_defaultStoreName, 0, _defaultAddress);\n    }\n\n    /*\n        @notice Payable fallback\n    */\n    receive() external payable {\n    }\n\n    // kill the smart contract\n    function kill() public isOwner {\n      selfdestruct(owner);\n    }\n\n    /*\n        This function adds values for:\n          storeId\n          storeName\n          storeOwner\n    */\n    function addStore(string memory _storeName, uint _storeBal, address payable _newStoreOwner)\n      public\n    {\n\n    /*\n        store count\n    */\n      storeCounter++;\n\n    /*\n        update via StoreId\n    */\n      stores[storeCounter] = Store(\n        storeCounter,\n        _storeName,\n        _storeBal,\n        _newStoreOwner,\n        stores[storeCounter].products\n      );\n\n      emit LogAddStore(storeCounter, _storeName, _newStoreOwner);\n    }\n\n    /*\n        This function adds values for:\n          prodId\n          prodName\n          prodDescription\n          prodPrice\n    */\n    function addProduct(\n      string memory _prodName,\n      string memory _prodDescription,\n      uint _prodPrice\n    )\n      public\n    {\n\n    /*\n        prod count\n    */\n      prodCounter++;\n\n    /*\n        update via storeId\n    */\n      products[prodCounter] = Product(\n        prodCounter,\n        _prodName,\n        _prodDescription,\n        _prodPrice,\n        msg.sender\n      );\n\n      stores[storeCounter].products.push(products[prodCounter].prodId);\n      storeProdCounter++;\n\n      emit LogAddProduct(prodCounter, _prodName, _prodDescription, _prodPrice);\n    }\n\n    /*\n        This function gets the store counter\n    */\n    function getNumberOfStores() public view returns (uint) {\n      return storeCounter;\n    }\n\n    /*\n        This function gets all the stores\n    */\n    function getStoresOwned() public view returns (uint[] memory) {\n\n    /*\n        Store IDs\n    */\n      uint[] memory storeIds = new uint[](storeCounter);\n\n      uint numberOfStores = 0;\n\n    /*\n        Collect IDs of stores available\n    */\n      for (uint i = 1; i <= storeCounter; i++) {\n        if (stores[i].storeOwnedBy != address(0)) {\n          storeIds[numberOfStores] = stores[i].storeId;\n          numberOfStores++;\n        }\n      }\n\n    /*\n        Create a storesOwned array\n    */\n      uint[] memory storesOwned = new uint[](numberOfStores);\n      for(uint j = 0; j < numberOfStores; j++) {\n        storesOwned[j] = storeIds[j];\n      }\n      return storesOwned;\n    }\n\n    /*\n        Select a store via id\n    */\n    function selectStore(uint _storeId)\n      public\n      view\n      returns (\n        uint,\n        string memory,\n        uint256,\n        address,\n        uint[] memory\n      )\n    {\n      require(\n        _storeId > 0 && _storeId <= getNumberOfStores(),\n        \"The store Id is not vaild\"\n      );\n\n      return (\n        stores[_storeId].storeId,\n        stores[_storeId].storeName,\n        stores[_storeId].storeBal,\n        stores[_storeId].storeOwnedBy,\n        stores[_storeId].products\n      );\n\n      /*\n      emit LogSelectStore(\n          stores[_storeId].storeId,\n          stores[_storeId].storeName\n          //stores[_storeId].storeBal,\n          //stores[_storeId].storeOwnedBy\n      );\n      */\n    }\n\n    /*\n        This function gets the product counter\n    */\n    function getNumberOfProducts() public view returns (uint) {\n      return prodCounter;\n    }\n\n    /*\n        This function gets the products for sale\n    */\n    function getProductsForSale() public view returns (uint[] memory) {\n\n    /*\n        Store product IDs\n    */\n      uint[] memory productIds = new uint[](prodCounter);\n\n      uint numberOfProductsForSale = 0;\n\n    /*\n        Collect IDs of products still for available for sale\n    */\n      for (uint i = 1; i <= prodCounter; i++) {\n        if (products[i].purchaser != address(0)) {\n          productIds[numberOfProductsForSale] = products[i].prodId;\n          numberOfProductsForSale++;\n        }\n      }\n\n    /*\n        Create a forSale array\n    */\n      uint[] memory forSale = new uint[](numberOfProductsForSale);\n      for(uint j = 0; j < numberOfProductsForSale; j++) {\n        forSale[j] = productIds[j];\n      }\n      return forSale;\n    }\n\n    /*\n        This function gets the store's products by Id (can't return string[]\n        unless the experimental ABIEncoderv2 is enabled)\n\n    function getStoreProductsById (uint _storeId)\n      public\n      view\n      returns (uint[] memory) {\n\n        Store IDs\n\n      require(\n        _storeId > 0 && _storeId <= getNumberOfStores(),\n        \"The store Id is not vaild\"\n      );\n      uint[] memory storeProdIds = new uint[](prodCounter);\n\n      string[] memory storeProdNames = new string[](prodCounter);\n\n      uint numOfStoresProd = 0;\n\n\n        Collect IDs of stores products\n\n      for (uint i = 1; i <= prodCounter; i++) {\n        if (stores[_storeId].products[i] != 0) {\n          storeProdIds[numOfStoresProd] = stores[_storeId].products[i].prodId;\n          // storeProdNames[numOfStoresProd] = stores[_storeId].products[i].prodName;\n          numOfStoresProd++;\n        }\n      }\n\n\n\n        Create a prodIdsForSale and prodNamesForSale arrays\n\n      uint[] memory prodIdsForSale = new uint[](numOfStoresProd);\n\n      string[] memory prodNamesForSale = new string[](numOfStoresProd);\n\n      for(uint j = 0; j < numOfStoresProd; j++) {\n        prodIdsForSale[j] = storeProdIds[j];\n        prodNamesForSale[j] = storeProdNames[j];\n      }\n      return prodIdsForSale;\n    }\n    */\n\n    /*\n        Select a product via id\n    */\n    function selectProduct(uint _prodId)\n      public\n      view\n      returns (\n        uint,\n        string memory,\n        string memory,\n        uint256,\n        address\n      )\n    {\n      require(\n        _prodId > 0 && _prodId <= getNumberOfProducts(),\n        \"The product Id is not vaild\"\n      );\n      return (\n        products[_prodId].prodId,\n        products[_prodId].prodName,\n        products[_prodId].prodDescription,\n        products[_prodId].prodPrice,\n        products[_prodId].purchaser\n      );\n    }\n\n    /*\n        This function buys a product from store:\n          storeId\n          prodId\n          prodName\n          prodPrice\n    */\n    function buyProduct(uint _productId)\n      public\n      payable\n    {\n      require(\n        prodCounter > 0,\n        \"The product should be available\"\n      );\n\n      require(\n        _productId > 0 && _productId <= prodCounter,\n        \"The product should exists\"\n      );\n\n    /*\n        retrieve product\n    */\n      Product storage btproduct = products[_productId];\n\n      require(\n          btproduct.purchaser == address(0),\n          \"The product should not have been sold yet\"\n        );\n\n    /*\n        require(\n          stores[_storesId].storeOwner != msg.sender,\n          \"The store owner should not be allowed to buy products\"\n        );\n    */\n        require(\n          msg.value >= btproduct.prodPrice,\n          \"The msg.value covers to the product price\"\n        );\n\n    /*\n        update purchaser\n    */\n        btproduct.purchaser = msg.sender;\n\n    /*\n        purchaser ma es purchase avoid re-entrancy here\n    */\n        btproduct.purchaser.transfer(msg.value); \n\n    /*\n        emit LogBuyProduct event\n    */\n        emit LogBuyProduct(\n          _productId,\n          btproduct.purchaser,\n          btproduct.prodName,\n          btproduct.prodPrice\n        );\n    }\n}",
  "sourcePath": "/Users/kokom/DEV/ETHEREUM/CONSENSYS/FPROJ/contracts/OnlineMP.sol",
  "compiler": {
    "name": "solc",
    "version": "0.6.1+commit.e6f7d5a4.Emscripten.clang"
  },
  "schemaVersion": "3.0.23",
  "updatedAt": "2020-04-23T05:04:40.657Z",
  "networkType": "ethereum",
  "devdoc": {
    "author": "zen2see",
    "methods": {},
    "title": "OnlineMarketPlace project"
  },
  "userdoc": {
    "methods": {}
  }
}