{
  "contractName": "OnlineMP",
  "abi": [
    {
      "constant": true,
      "inputs": [
        {
          "name": "",
          "type": "address"
        }
      ],
      "name": "isStoreOwners",
      "outputs": [
        {
          "name": "",
          "type": "bool"
        }
      ],
      "payable": false,
      "stateMutability": "view",
      "type": "function"
    },
    {
      "constant": true,
      "inputs": [
        {
          "name": "",
          "type": "uint256"
        }
      ],
      "name": "products",
      "outputs": [
        {
          "name": "prodId",
          "type": "uint256"
        },
        {
          "name": "prodName",
          "type": "string"
        },
        {
          "name": "prodDescription",
          "type": "string"
        },
        {
          "name": "prodPrice",
          "type": "uint256"
        }
      ],
      "payable": false,
      "stateMutability": "view",
      "type": "function"
    },
    {
      "constant": true,
      "inputs": [
        {
          "name": "",
          "type": "uint256"
        }
      ],
      "name": "stores",
      "outputs": [
        {
          "name": "storeId",
          "type": "uint256"
        },
        {
          "name": "storeName",
          "type": "string"
        },
        {
          "name": "storeBal",
          "type": "uint256"
        },
        {
          "name": "storeOwnedBy",
          "type": "address"
        }
      ],
      "payable": false,
      "stateMutability": "view",
      "type": "function"
    },
    {
      "inputs": [],
      "payable": false,
      "stateMutability": "nonpayable",
      "type": "constructor"
    },
    {
      "payable": true,
      "stateMutability": "payable",
      "type": "fallback"
    },
    {
      "anonymous": false,
      "inputs": [
        {
          "indexed": true,
          "name": "_storesId",
          "type": "uint256"
        },
        {
          "indexed": false,
          "name": "_storesName",
          "type": "string"
        }
      ],
      "name": "LogAddStore",
      "type": "event"
    },
    {
      "anonymous": false,
      "inputs": [
        {
          "indexed": true,
          "name": "_storeId",
          "type": "uint256"
        },
        {
          "indexed": true,
          "name": "_productId",
          "type": "uint256"
        },
        {
          "indexed": false,
          "name": "_productName",
          "type": "string"
        }
      ],
      "name": "LogAddProduct",
      "type": "event"
    },
    {
      "anonymous": false,
      "inputs": [
        {
          "indexed": true,
          "name": "_storeOwner",
          "type": "address"
        },
        {
          "indexed": true,
          "name": "_buyer",
          "type": "address"
        },
        {
          "indexed": false,
          "name": "_productName",
          "type": "string"
        },
        {
          "indexed": false,
          "name": "_price",
          "type": "uint256"
        }
      ],
      "name": "LogSellProduct",
      "type": "event"
    },
    {
      "anonymous": false,
      "inputs": [
        {
          "indexed": true,
          "name": "_Id",
          "type": "uint256"
        },
        {
          "indexed": true,
          "name": "_storeOwner",
          "type": "address"
        },
        {
          "indexed": true,
          "name": "_buyer",
          "type": "address"
        },
        {
          "indexed": false,
          "name": "_productName",
          "type": "string"
        },
        {
          "indexed": false,
          "name": "_price",
          "type": "uint256"
        }
      ],
      "name": "LogBuyProduct",
      "type": "event"
    },
    {
      "constant": false,
      "inputs": [
        {
          "name": "_storeName",
          "type": "string"
        }
      ],
      "name": "addStore",
      "outputs": [],
      "payable": false,
      "stateMutability": "nonpayable",
      "type": "function"
    },
    {
      "constant": true,
      "inputs": [],
      "name": "getStore",
      "outputs": [
        {
          "name": "_storeId",
          "type": "uint256"
        },
        {
          "name": "_storeName",
          "type": "string"
        },
        {
          "name": "_storeBal",
          "type": "uint256"
        },
        {
          "name": "_storeOwner",
          "type": "address"
        },
        {
          "name": "_products",
          "type": "bytes32[]"
        }
      ],
      "payable": false,
      "stateMutability": "pure",
      "type": "function"
    }
  ],
  "bytecode": "0x608060405234801561001057600080fd5b50336000806101000a81548173ffffffffffffffffffffffffffffffffffffffff021916908373ffffffffffffffffffffffffffffffffffffffff160217905550610a73806100606000396000f3fe60806040526004361061004a5760003560e01c8063662feffc1461004c57806377a2a439146101145780637acc0b201461017d578063c2722ecc146102ab578063e8a59cd8146103c4575b005b34801561005857600080fd5b506101126004803603602081101561006f57600080fd5b810190808035906020019064010000000081111561008c57600080fd5b82018360208201111561009e57600080fd5b803590602001918460018302840111640100000000831117156100c057600080fd5b91908080601f016020809104026020016040519081016040528093929190818152602001838380828437600081840152601f19601f8201169050808301925050505050505091929192905050506104b9565b005b34801561012057600080fd5b506101636004803603602081101561013757600080fd5b81019080803573ffffffffffffffffffffffffffffffffffffffff1690602001909291905050506106b6565b604051808215151515815260200191505060405180910390f35b34801561018957600080fd5b506101b6600480360360208110156101a057600080fd5b81019080803590602001909291905050506106d6565b604051808581526020018060200180602001848152602001838103835286818151815260200191508051906020019080838360005b838110156102065780820151818401526020810190506101eb565b50505050905090810190601f1680156102335780820380516001836020036101000a031916815260200191505b50838103825285818151815260200191508051906020019080838360005b8381101561026c578082015181840152602081019050610251565b50505050905090810190601f1680156102995780820380516001836020036101000a031916815260200191505b50965050505050505060405180910390f35b3480156102b757600080fd5b506102c0610836565b60405180868152602001806020018581526020018473ffffffffffffffffffffffffffffffffffffffff1673ffffffffffffffffffffffffffffffffffffffff16815260200180602001838103835287818151815260200191508051906020019080838360005b83811015610342578082015181840152602081019050610327565b50505050905090810190601f16801561036f5780820380516001836020036101000a031916815260200191505b50838103825284818151815260200191508051906020019060200280838360005b838110156103ab578082015181840152602081019050610390565b5050505090500197505050505050505060405180910390f35b3480156103d057600080fd5b506103fd600480360360208110156103e757600080fd5b8101908080359060200190929190505050610855565b60405180858152602001806020018481526020018373ffffffffffffffffffffffffffffffffffffffff1673ffffffffffffffffffffffffffffffffffffffff168152602001828103825285818151815260200191508051906020019080838360005b8381101561047b578082015181840152602081019050610460565b50505050905090810190601f1680156104a85780820380516001836020036101000a031916815260200191505b509550505050505060405180910390f35b6005600081548092919060010191905055506040518060a0016040528060056000815480929190600101919050558152602001828152602001600081526020013373ffffffffffffffffffffffffffffffffffffffff168152602001600460006005548152602001908152602001600020600401600880602002604051908101604052809291908260088015610564576020028201915b815481526020019060010190808311610550575b50505050508152506004600060055481526020019081526020016000206000820151816000015560208201518160010190805190602001906105a792919061093d565b506040820151816002015560608201518160030160006101000a81548173ffffffffffffffffffffffffffffffffffffffff021916908373ffffffffffffffffffffffffffffffffffffffff1602179055506080820151816004019060086106109291906109bd565b509050506005547fc07e4372fa365db386646af93f798817e2118ab90167a32543aa1b239c1af919826040518080602001828103825283818151815260200191508051906020019080838360005b8381101561067957808201518184015260208101905061065e565b50505050905090810190601f1680156106a65780820380516001836020036101000a031916815260200191505b509250505060405180910390a250565b60036020528060005260406000206000915054906101000a900460ff1681565b6006602052806000526040600020600091509050806000015490806001018054600181600116156101000203166002900480601f0160208091040260200160405190810160405280929190818152602001828054600181600116156101000203166002900480156107885780601f1061075d57610100808354040283529160200191610788565b820191906000526020600020905b81548152906001019060200180831161076b57829003601f168201915b505050505090806002018054600181600116156101000203166002900480601f0160208091040260200160405190810160405280929190818152602001828054600181600116156101000203166002900480156108265780601f106107fb57610100808354040283529160200191610826565b820191906000526020600020905b81548152906001019060200180831161080957829003601f168201915b5050505050908060030154905084565b6000606060008060608484848484945094509450945094509091929394565b6004602052806000526040600020600091509050806000015490806001018054600181600116156101000203166002900480601f0160208091040260200160405190810160405280929190818152602001828054600181600116156101000203166002900480156109075780601f106108dc57610100808354040283529160200191610907565b820191906000526020600020905b8154815290600101906020018083116108ea57829003601f168201915b5050505050908060020154908060030160009054906101000a900473ffffffffffffffffffffffffffffffffffffffff16905084565b828054600181600116156101000203166002900490600052602060002090601f016020900481019282601f1061097e57805160ff19168380011785556109ac565b828001600101855582156109ac579182015b828111156109ab578251825591602001919060010190610990565b5b5090506109b991906109fd565b5090565b82600881019282156109ec579160200282015b828111156109eb5782518255916020019190600101906109d0565b5b5090506109f99190610a22565b5090565b610a1f91905b80821115610a1b576000816000905550600101610a03565b5090565b90565b610a4491905b80821115610a40576000816000905550600101610a28565b5090565b9056fea165627a7a723058201482b66484344159fe55fceb854390d004d51f60ff72f8deb082d420f980a1750029",
  "source": "pragma solidity >=0.5.0;\n\nimport \"./Ownable.sol\";\n    /// @author zen2see\n    /// @title OnlineMarketPlace project\n\n    /*\n        Simple OnlineMarketPlace that operates on the blockchain.\n    */\ncontract OnlineMP is Ownable {\n    // state variables\n    address storeOwner;\n    address buyer;\n    mapping (address => bool) public isStoreOwners;\n\n    /*\n        @notice A Store:\n        Store id: @storeId\n        Store name: @storeName\n        Store balance: @storeBal\n        Store owner: @storeOwnedBy\n        Store products: @products\n    */\n    struct Store {\n      uint storeId;\n      string storeName;\n      uint256 storeBal;\n      address storeOwnedBy;\n      bytes32[8] products;\n    }\n\n    /*\n        state variables, declare a store as a structure type through mapping\n    */\n    mapping(uint => Store) public stores;\n    uint storeCounter;\n\n    /*\n        @notice A Product:\n        Product id: @prodId\n        Product name: @prodName\n        Product desc: @prodDescription\n        Product price: @prodPrice\n    */\n    struct Product {\n      uint prodId;\n      string prodName;\n      string prodDescription;\n      uint256 prodPrice;\n    }\n\n    /*\n         more state variables as a structure type..\n    */\n    mapping(uint => Product) public products;\n    uint prodCounter;\n\n    /*\n        LogAddStore should provide infromation about the store ID and store name\n    */\n    event LogAddStore(\n      uint indexed _storesId,\n      string _storesName\n    );\n\n    /*\n        LogAddProduct should provide infromation about the product ID, store ID and product name.\n    */\n    event LogAddProduct(\n      uint256 indexed _storeId,\n      uint indexed _productId,\n      string _productName\n    );\n\n    /*\n        LogSellProduct should provide information about the product ID and product name.\n    */\n    event LogSellProduct(\n      address indexed _storeOwner,\n      address indexed _buyer,\n      string  _productName,\n      uint256 _price\n    );\n\n    /*\n        LogBuyTickets should provide information about the purchaser and the # of prodcuts purchased.\n    */\n    event LogBuyProduct(\n      uint indexed _Id,\n      address indexed _storeOwner,\n      address indexed _buyer,\n      string  _productName,\n      uint256 _price\n    );\n\n    /*\n        Create a modifier that throws an error if the address !storeOwner.\n    */\n    modifier isStoreOwner(address _isStoreOwner) {\n      require(\n        isStoreOwners[_isStoreOwner] == true,\n        \"Only store owner can call ths function.\"\n      );\n      _;\n    }\n\n    /*\n        Define a constructor.\n    */\n    constructor ()\n      public\n    {\n      //addStore(\"Default Store name\", owner);\n    }\n\n    /*\n        @notice Payable fallback\n    */\n    function() external payable {\n\n    }\n\n    /*\n        This function adds values for:\n          storeId\n          storeName\n          storeOwner\n    */\n    function addStore(string memory _storeName)\n      public\n    {\n      // store count\n      storeCounter++;\n\n      // update via storeId\n      stores[storeCounter] = Store(\n        storeCounter++,\n        _storeName,\n        0,\n        msg.sender,\n        stores[storeCounter].products\n      );\n\n      emit LogAddStore(storeCounter, _storeName);\n    }\n\n    /*\n        This function retrieves values for:\n          storeId\n          storeName\n          storeBBal\n          storeOwner\n    */\n    function getStore()\n      public\n      pure\n      returns(\n        uint _storeId,\n        string memory _storeName,\n        uint _storeBal,\n        address _storeOwner,\n        bytes32[] memory _products\n      )\n    {\n        return(_storeId, _storeName, _storeBal, _storeOwner, _products);\n    }\n}",
  "sourcePath": "/Users/kokom/DEV/ETHEREUM/CONSENSYS/FPROJ/contracts/OnlineMP.sol",
  "compiler": {
    "name": "solc",
    "version": "0.5.8+commit.23d335f2.Emscripten.clang"
  },
  "schemaVersion": "3.0.11",
  "updatedAt": "2019-08-04T22:28:37.389Z",
  "devdoc": {
    "author": "zen2see",
    "methods": {},
    "title": "OnlineMarketPlace project"
  },
  "userdoc": {
    "methods": {}
  }
}