{
  "contractName": "OnlineMP",
  "abi": [
    {
      "inputs": [],
      "stateMutability": "nonpayable",
      "type": "constructor"
    },
    {
      "anonymous": false,
      "inputs": [
        {
          "indexed": true,
          "internalType": "uint256",
          "name": "_prodId",
          "type": "uint256"
        },
        {
          "indexed": false,
          "internalType": "string",
          "name": "_prodName",
          "type": "string"
        },
        {
          "indexed": false,
          "internalType": "string",
          "name": "_prodDescription",
          "type": "string"
        },
        {
          "indexed": false,
          "internalType": "uint256",
          "name": "_prodPrice",
          "type": "uint256"
        }
      ],
      "name": "LogAddProduct",
      "type": "event"
    },
    {
      "anonymous": false,
      "inputs": [
        {
          "indexed": true,
          "internalType": "uint256",
          "name": "_storeId",
          "type": "uint256"
        },
        {
          "indexed": true,
          "internalType": "address",
          "name": "_storeOwner",
          "type": "address"
        },
        {
          "indexed": false,
          "internalType": "string",
          "name": "_storeName",
          "type": "string"
        }
      ],
      "name": "LogAddStore",
      "type": "event"
    },
    {
      "anonymous": false,
      "inputs": [
        {
          "indexed": true,
          "internalType": "uint256",
          "name": "_productId",
          "type": "uint256"
        },
        {
          "indexed": true,
          "internalType": "address",
          "name": "_purchaser",
          "type": "address"
        },
        {
          "indexed": false,
          "internalType": "string",
          "name": "_productName",
          "type": "string"
        },
        {
          "indexed": false,
          "internalType": "uint256",
          "name": "_price",
          "type": "uint256"
        }
      ],
      "name": "LogBuyProduct",
      "type": "event"
    },
    {
      "anonymous": false,
      "inputs": [
        {
          "indexed": true,
          "internalType": "uint256",
          "name": "_storeID",
          "type": "uint256"
        },
        {
          "indexed": true,
          "internalType": "address",
          "name": "_storeOwner",
          "type": "address"
        },
        {
          "indexed": false,
          "internalType": "string",
          "name": "_productName",
          "type": "string"
        },
        {
          "indexed": false,
          "internalType": "uint256",
          "name": "_price",
          "type": "uint256"
        }
      ],
      "name": "LogSellProduct",
      "type": "event"
    },
    {
      "inputs": [
        {
          "internalType": "address",
          "name": "",
          "type": "address"
        }
      ],
      "name": "isStoreOwners",
      "outputs": [
        {
          "internalType": "bool",
          "name": "",
          "type": "bool"
        }
      ],
      "stateMutability": "view",
      "type": "function",
      "constant": true
    },
    {
      "inputs": [
        {
          "internalType": "uint256",
          "name": "",
          "type": "uint256"
        }
      ],
      "name": "products",
      "outputs": [
        {
          "internalType": "uint256",
          "name": "prodId",
          "type": "uint256"
        },
        {
          "internalType": "string",
          "name": "prodName",
          "type": "string"
        },
        {
          "internalType": "string",
          "name": "prodDescription",
          "type": "string"
        },
        {
          "internalType": "uint256",
          "name": "prodPrice",
          "type": "uint256"
        },
        {
          "internalType": "address payable",
          "name": "purchaser",
          "type": "address"
        }
      ],
      "stateMutability": "view",
      "type": "function",
      "constant": true
    },
    {
      "inputs": [
        {
          "internalType": "uint256",
          "name": "",
          "type": "uint256"
        }
      ],
      "name": "stores",
      "outputs": [
        {
          "internalType": "uint256",
          "name": "storeId",
          "type": "uint256"
        },
        {
          "internalType": "string",
          "name": "storeName",
          "type": "string"
        },
        {
          "internalType": "uint256",
          "name": "storeBal",
          "type": "uint256"
        },
        {
          "internalType": "address payable",
          "name": "storeOwner",
          "type": "address"
        }
      ],
      "stateMutability": "view",
      "type": "function",
      "constant": true
    },
    {
      "stateMutability": "payable",
      "type": "receive",
      "payable": true
    },
    {
      "inputs": [],
      "name": "kill",
      "outputs": [],
      "stateMutability": "nonpayable",
      "type": "function"
    },
    {
      "inputs": [
        {
          "internalType": "string",
          "name": "_storeName",
          "type": "string"
        }
      ],
      "name": "addStore",
      "outputs": [],
      "stateMutability": "nonpayable",
      "type": "function"
    },
    {
      "inputs": [
        {
          "internalType": "string",
          "name": "_prodName",
          "type": "string"
        },
        {
          "internalType": "string",
          "name": "_prodDescription",
          "type": "string"
        },
        {
          "internalType": "uint256",
          "name": "_prodPrice",
          "type": "uint256"
        }
      ],
      "name": "addProduct",
      "outputs": [],
      "stateMutability": "nonpayable",
      "type": "function"
    },
    {
      "inputs": [],
      "name": "getNumberOfStores",
      "outputs": [
        {
          "internalType": "uint256",
          "name": "",
          "type": "uint256"
        }
      ],
      "stateMutability": "view",
      "type": "function",
      "constant": true
    },
    {
      "inputs": [],
      "name": "getStoresOwned",
      "outputs": [
        {
          "internalType": "uint256[]",
          "name": "",
          "type": "uint256[]"
        }
      ],
      "stateMutability": "view",
      "type": "function",
      "constant": true
    },
    {
      "inputs": [
        {
          "internalType": "uint256",
          "name": "_storeId",
          "type": "uint256"
        }
      ],
      "name": "selectStore",
      "outputs": [
        {
          "internalType": "uint256",
          "name": "",
          "type": "uint256"
        },
        {
          "internalType": "string",
          "name": "",
          "type": "string"
        },
        {
          "internalType": "uint256",
          "name": "",
          "type": "uint256"
        },
        {
          "internalType": "address",
          "name": "",
          "type": "address"
        },
        {
          "internalType": "uint256[]",
          "name": "",
          "type": "uint256[]"
        }
      ],
      "stateMutability": "view",
      "type": "function",
      "constant": true
    },
    {
      "inputs": [],
      "name": "getNumberOfProducts",
      "outputs": [
        {
          "internalType": "uint256",
          "name": "",
          "type": "uint256"
        }
      ],
      "stateMutability": "view",
      "type": "function",
      "constant": true
    },
    {
      "inputs": [],
      "name": "getProductsForSale",
      "outputs": [
        {
          "internalType": "uint256[]",
          "name": "",
          "type": "uint256[]"
        }
      ],
      "stateMutability": "view",
      "type": "function",
      "constant": true
    },
    {
      "inputs": [
        {
          "internalType": "uint256",
          "name": "_prodId",
          "type": "uint256"
        }
      ],
      "name": "selectProduct",
      "outputs": [
        {
          "internalType": "uint256",
          "name": "",
          "type": "uint256"
        },
        {
          "internalType": "string",
          "name": "",
          "type": "string"
        },
        {
          "internalType": "string",
          "name": "",
          "type": "string"
        },
        {
          "internalType": "uint256",
          "name": "",
          "type": "uint256"
        },
        {
          "internalType": "address",
          "name": "",
          "type": "address"
        }
      ],
      "stateMutability": "view",
      "type": "function",
      "constant": true
    },
    {
      "inputs": [
        {
          "internalType": "uint256",
          "name": "_productId",
          "type": "uint256"
        }
      ],
      "name": "buyProduct",
      "outputs": [],
      "stateMutability": "payable",
      "type": "function",
      "payable": true
    }
  ],
  "bytecode": "0x608060405234801561001057600080fd5b50600080546001600160a01b031916331790556117b1806100326000396000f3fe6080604052600436106100c55760003560e01c8063597aa5b21161007f5780637acc0b20116100595780637acc0b20146104d15780638642269e146104fb578063e8a59cd814610518578063f28ea1c1146105d7576100cc565b8063597aa5b2146103c2578063662feffc146103d757806377a2a4391461048a576100cc565b8062e840bf146100d15780633e505685146101365780633ffd81fb1461024057806341c0e1b514610267578063440113dd1461027e578063553b8b69146103ad576100cc565b366100cc57005b600080fd5b3480156100dd57600080fd5b506100e6610713565b60408051602080825283518183015283519192839290830191858101910280838360005b8381101561012257818101518382015260200161010a565b505050509050019250505060405180910390f35b34801561014257600080fd5b506101606004803603602081101561015957600080fd5b5035610821565b6040518086815260200180602001858152602001846001600160a01b03166001600160a01b0316815260200180602001838103835287818151815260200191508051906020019080838360005b838110156101c55781810151838201526020016101ad565b50505050905090810190601f1680156101f25780820380516001836020036101000a031916815260200191505b508381038252845181528451602091820191808701910280838360005b8381101561022757818101518382015260200161020f565b5050505090500197505050505050505060405180910390f35b34801561024c57600080fd5b506102556109b2565b60408051918252519081900360200190f35b34801561027357600080fd5b5061027c6109b8565b005b34801561028a57600080fd5b506102a8600480360360208110156102a157600080fd5b5035610a0f565b604051808681526020018060200180602001858152602001846001600160a01b03166001600160a01b03168152602001838103835287818151815260200191508051906020019080838360005b8381101561030d5781810151838201526020016102f5565b50505050905090810190601f16801561033a5780820380516001836020036101000a031916815260200191505b50838103825286518152865160209182019188019080838360005b8381101561036d578181015183820152602001610355565b50505050905090810190601f16801561039a5780820380516001836020036101000a031916815260200191505b5097505050505050505060405180910390f35b3480156103b957600080fd5b506100e6610be2565b3480156103ce57600080fd5b50610255610ce7565b3480156103e357600080fd5b5061027c600480360360208110156103fa57600080fd5b81019060208101813564010000000081111561041557600080fd5b82018360208201111561042757600080fd5b8035906020019184600183028401116401000000008311171561044957600080fd5b91908080601f016020809104026020016040519081016040528093929190818152602001838380828437600092019190915250929550610ced945050505050565b34801561049657600080fd5b506104bd600480360360208110156104ad57600080fd5b50356001600160a01b0316610e9c565b604080519115158252519081900360200190f35b3480156104dd57600080fd5b506102a8600480360360208110156104f457600080fd5b5035610eb1565b61027c6004803603602081101561051157600080fd5b5035611000565b34801561052457600080fd5b506105426004803603602081101561053b57600080fd5b5035611304565b604080518581529081018390526001600160a01b038216606082015260806020808301828152865192840192909252855160a084019187019080838360005b83811015610599578181015183820152602001610581565b50505050905090810190601f1680156105c65780820380516001836020036101000a031916815260200191505b509550505050505060405180910390f35b3480156105e357600080fd5b5061027c600480360360608110156105fa57600080fd5b81019060208101813564010000000081111561061557600080fd5b82018360208201111561062757600080fd5b8035906020019184600183028401116401000000008311171561064957600080fd5b91908080601f016020809104026020016040519081016040528093929190818152602001838380828437600092019190915250929594936020810193503591505064010000000081111561069c57600080fd5b8201836020820111156106ae57600080fd5b803590602001918460018302840111640100000000831117156106d057600080fd5b91908080601f01602080910402602001604051908101604052809392919081815260200183838082843760009201919091525092955050913592506113bf915050565b606080600654604051908082528060200260200182016040528015610742578160200160208202803883390190505b509050600060015b60065481116107aa576000818152600560205260409020600401546001600160a01b0316156107a257600081815260056020526040902054835184908490811061079057fe5b60209081029190910101526001909101905b60010161074a565b506060816040519080825280602002602001820160405280156107d7578160200160208202803883390190505b50905060005b82811015610818578381815181106107f157fe5b602002602001015182828151811061080557fe5b60209081029190910101526001016107dd565b50925050505b90565b600060606000806060600086118015610841575061083d610ce7565b8611155b610892576040805162461bcd60e51b815260206004820152601960248201527f5468652073746f7265204964206973206e6f74207661696c6400000000000000604482015290519081900360640190fd5b60008681526002602081815260409283902080548184015460038301546001808501805489516101009382161593909302600019011697909704601f8101879004870282018701909852878152929691946001600160a01b0390911693600401929186918301828280156109475780601f1061091c57610100808354040283529160200191610947565b820191906000526020600020905b81548152906001019060200180831161092a57829003601f168201915b5050845460408051602080840282018101909252828152959950869450909250840190508282801561099857602002820191906000526020600020905b815481526020019060010190808311610984575b505050505090509450945094509450945091939590929450565b60065490565b6000546001600160a01b03163314610a015760405162461bcd60e51b81526004018080602001828103825260228152602001806116c16022913960400191505060405180910390fd5b6000546001600160a01b0316ff5b6000606080600080600086118015610a2e5750610a2a6109b2565b8611155b610a7f576040805162461bcd60e51b815260206004820152601b60248201527f5468652070726f64756374204964206973206e6f74207661696c640000000000604482015290519081900360640190fd5b6000868152600560209081526040918290208054600382015460048301546001808501805488516002610100948316159490940260001901909116839004601f810189900489028201890190995288815294979096919095019492936001600160a01b03909216928691830182828015610b3a5780601f10610b0f57610100808354040283529160200191610b3a565b820191906000526020600020905b815481529060010190602001808311610b1d57829003601f168201915b5050865460408051602060026001851615610100026000190190941693909304601f810184900484028201840190925281815295995088945092508401905082828015610bc85780601f10610b9d57610100808354040283529160200191610bc8565b820191906000526020600020905b815481529060010190602001808311610bab57829003601f168201915b50989f979e50929c50939a50919850939650505050505050565b606080600354604051908082528060200260200182016040528015610c11578160200160208202803883390190505b509050600060015b6003548111610c79576000818152600260205260409020600301546001600160a01b031615610c71576000818152600260205260409020548351849084908110610c5f57fe5b60209081029190910101526001909101905b600101610c19565b50606081604051908082528060200260200182016040528015610ca6578160200160208202803883390190505b50905060005b8281101561081857838181518110610cc057fe5b6020026020010151828281518110610cd457fe5b6020908102919091010152600101610cac565b60035490565b60038054600101908190556040805160a0810182528281526020808201859052338031838501526060830152600093845260028152928290206004018054835181860281018601909452808452919360808501939290830182828015610d7257602002820191906000526020600020905b815481526020019060010190808311610d5e575b5050509190925250506003546000908152600260209081526040909120825181558282015180519192610dad926001850192909101906115c4565b506040820151600282015560608201516003820180546001600160a01b0319166001600160a01b0390921691909117905560808201518051610df9916004840191602090910190611642565b505060035460408051602080825285518183015285513395507fdbc4c681c741afb74673129b92c2100d80c142f4ad2df7984c385b5846f5a501938793928392918301919085019080838360005b83811015610e5f578181015183820152602001610e47565b50505050905090810190601f168015610e8c5780820380516001836020036101000a031916815260200191505b509250505060405180910390a350565b60016020526000908152604090205460ff1681565b6005602090815260009182526040918290208054600180830180548651600293821615610100026000190190911692909204601f810186900486028301860190965285825291949293909290830182828015610f4e5780601f10610f2357610100808354040283529160200191610f4e565b820191906000526020600020905b815481529060010190602001808311610f3157829003601f168201915b50505060028085018054604080516020601f6000196101006001871615020190941695909504928301859004850281018501909152818152959695945090925090830182828015610fe05780601f10610fb557610100808354040283529160200191610fe0565b820191906000526020600020905b815481529060010190602001808311610fc357829003601f168201915b5050505060038301546004909301549192916001600160a01b0316905085565b600060065411611057576040805162461bcd60e51b815260206004820152601f60248201527f5468652070726f647563742073686f756c6420626520617661696c61626c6500604482015290519081900360640190fd5b60008111801561106957506006548111155b6110ba576040805162461bcd60e51b815260206004820152601960248201527f5468652070726f647563742073686f756c642065786973747300000000000000604482015290519081900360640190fd5b60008181526005602052604090206004546111065760405162461bcd60e51b815260040180806020018281038252603181526020018061170c6031913960400191505060405180910390fd5b60048101546001600160a01b0316156111505760405162461bcd60e51b81526004018080602001828103825260298152602001806116e36029913960400191505060405180910390fd5b60048101546001600160a01b031633141561119c5760405162461bcd60e51b815260040180806020018281038252603f81526020018061173d603f913960400191505060405180910390fd5b348160030154146111de5760405162461bcd60e51b815260040180806020018281038252602a815260200180611697602a913960400191505060405180910390fd5b6004810180546001600160a01b0319163317908190556040516001600160a01b0391909116903480156108fc02916000818181858888f1935050505015801561122b573d6000803e3d6000fd5b5060048101546003820154604080516020810183905281815260018086018054600260001993821615610100029390930116919091049282018390526001600160a01b039094169386937fd405904c761d8820244add9e01bb3c0237a52715fc5cb71b5a671952634212d6939192909181906060820190859080156112f15780601f106112c6576101008083540402835291602001916112f1565b820191906000526020600020905b8154815290600101906020018083116112d457829003601f168201915b5050935050505060405180910390a35050565b60026020818152600092835260409283902080546001808301805487519281161561010002600019011695909504601f810185900485028201850190965285815290949193909290919083018282801561139f5780601f106113745761010080835404028352916020019161139f565b820191906000526020600020905b81548152906001019060200180831161138257829003601f168201915b5050505060028301546003909301549192916001600160a01b0316905084565b600680546001908101918290556040805160a0810182528381526020808201888152828401889052606083018790523360808401526000958652600582529290942081518155915180519194929361141d93908501929101906115c4565b50604082015180516114399160028401916020909101906115c4565b50606082810151600383810191909155608093840151600493840180546001600160a01b0319166001600160a01b0390921691909117905554600090815260026020908152604080832060068054855260058452828520549187018054600181810183559187528587200192909255865490910190955593548451948501879052838552885193850193909352875192947fdbdff3ba4a4fc23f5acb23f9a3bfb4f45453e90f674268adf3fd87178d8538fd9489948994899492938493848101939185019290890191908190849084905b8381101561152257818101518382015260200161150a565b50505050905090810190601f16801561154f5780820380516001836020036101000a031916815260200191505b50838103825285518152855160209182019187019080838360005b8381101561158257818101518382015260200161156a565b50505050905090810190601f1680156115af5780820380516001836020036101000a031916815260200191505b509550505050505060405180910390a2505050565b828054600181600116156101000203166002900490600052602060002090601f016020900481019282601f1061160557805160ff1916838001178555611632565b82800160010185558215611632579182015b82811115611632578251825591602001919060010190611617565b5061163e92915061167c565b5090565b8280548282559060005260206000209081019282156116325791602002820182811115611632578251825591602001919060010190611617565b61081e91905b8082111561163e576000815560010161168256fe546865206d73672e76616c756520646f6573206e6f74206d617463682070726f647563742070726963654f6e6c79206f776e65722063616e2063616c6c20746869732066756e6374696f6e2e5468652070726f647563742073686f756c64206e6f742068617665206265656e20736f6c642079657454686572652073686f756c64206265206174206c65617374206f6e652070726f6475637420696e207468652073746f72655468652073746f7265206f776e65722073686f756c64206e6f7420626520616c6c6f77656420746f20627579207468656972206f776e2070726f6475637473a26469706673582212204d9e68c5fc308c5e119c131a637f812ea834c5448a23926bf484605b2d31155964736f6c63430006010033",
  "source": "pragma solidity >=0.6.0 < 0.7.0;\n\n//import \"./Ownable.sol\";\n\n    /// @author zen2see\n    /// @title OnlineMarketPlace project\n\n    /*\n        Simple OnlineMarketPlace that operates on the blockchain\n    */\ncontract OnlineMP {\n\n    /*\n        state variables\n    */\n    // address storeOwner;\n    address payable owner;\n    mapping (address => bool) public isStoreOwners;\n\n    /*\n        @notice A Store:\n        Store id: @storeId\n        Store name: @storeName\n        Store balance: @storeBal\n        Store owner: @storeOwner\n        Store products: @products\n    */\n    struct Store {\n      uint storeId;\n      string storeName;\n      uint256 storeBal;\n      address payable storeOwner;\n      uint[] products;\n    }\n\n    /*\n        state variables, declare a store as a structure type through mapping\n    */\n    mapping (uint => Store) public stores;\n    // store the stores count (public for getter())\n    uint storeCounter;\n    // store the stores product count (public for getter())\n    uint storeProdCounter;\n\n    /*\n        @notice A Product:\n        Product id: @prodId\n        Product name: @prodName\n        Product desc: @prodDescription\n        Product price: @prodPrice\n        Product purchaser: purchaser\n    */\n    struct Product {\n      uint prodId;\n      string prodName;\n      string prodDescription;\n      uint256 prodPrice;\n      address payable purchaser;\n    }\n\n    /*\n         more state variables as a structure type..\n    */\n    mapping (uint => Product) public products;\n    uint prodCounter;\n\n    /*\n        LogAddStore should provide info about the store ID, store owner and store name\n    */\n    event LogAddStore(\n      uint indexed _storeId,\n      address indexed _storeOwner,\n      string _storeName  \n    );\n\n    /*\n        LogSelectStore should provide info about the store selected\n    \n    event LogSelectStore(\n      uint indexed _storeId,\n      string _storeName\n      uint256 _storeBal,\n      address _storeOwner\n      uint[] _storeProducts\n    );\n    */\n\n    /*\n        LogAddProduct should provide info about product ID, name, desc and price\n    */\n    event LogAddProduct(\n      uint indexed _prodId,\n      string _prodName,\n      string _prodDescription,\n      uint256 _prodPrice\n    );\n\n    /*\n        LogSellProduct should provide info about the product ID, seller (store owner), product name and price\n    */\n    event LogSellProduct(\n      uint indexed _storeID,\n      address indexed _storeOwner,\n      string  _productName,\n      uint256 _price\n    );\n\n    /*\n        LogBuyTickets should provide info about prod ID, seller (store owner), purchaser, prod name and prod price\n    */\n    event LogBuyProduct(\n      uint indexed _productId,\n      address indexed _purchaser,\n      string  _productName,\n      uint256 _price\n    );\n\n    /*\n        Create a modifier, throws an error if the msg.sender is not the owner\n    */\n    modifier isOwner() {\n      require(\n        msg.sender == owner,\n        \"Only owner can call this function.\"\n        );\n        _;\n    }\n\n    /*\n        Create a modifier that throws an error if the address !storeOwner\n    */\n    modifier isStoreOwner(address _isStoreOwner) {\n      require(\n        isStoreOwners[_isStoreOwner] == true,\n        \"Only store owner can call ths function.\"\n      );\n      _;\n    }\n\n    /*\n        Define a constructor.\n    \n    constructor (string memory _defaultStoreName, address payable _defaultAddress)\n      public\n    {\n      owner = msg.sender;\n      addStore(_defaultStoreName, 0, _defaultAddress);\n    }\n    */\n    constructor()\n      public\n    {\n      owner = msg.sender;\n    }\n\n    /*\n        @notice Payable fallback\n    */\n    receive() external payable {\n    }\n\n    // kill the smart contract\n    function kill() public isOwner {\n      selfdestruct(owner);\n    }\n\n    /*\n        This function adds values for:\n          storeId\n          storeName\n          storeOwner\n    */\n    function addStore(string memory _storeName)\n      public\n    {\n\n    /*\n        store count\n    */\n      storeCounter++;\n\n    /*\n        update via StoreId\n    */\n      stores[storeCounter] = Store(\n        storeCounter,\n        _storeName,\n        msg.sender.balance,\n        msg.sender,\n        stores[storeCounter].products\n      ); \n\n      emit LogAddStore(storeCounter, msg.sender, _storeName);\n    }\n\n    /*\n        This function adds values for:\n          prodId\n          prodName\n          prodDescription\n          prodPrice\n    */\n    function addProduct(\n      string memory _prodName,\n      string memory _prodDescription,\n      uint _prodPrice\n    )\n      public\n    {\n    \n    /*\n    require(\n        products[prodCounter].purchaser == \n        product.purchaser == address(0),\n        \"The product should not have been sold yet\"\n      );\n    */\n\n    /*\n        prod count\n    */\n      prodCounter++;\n\n    /*\n        update via storeId\n    */\n      products[prodCounter] = Product(\n        prodCounter,\n        _prodName,\n        _prodDescription,\n        _prodPrice,\n        msg.sender\n      );\n\n      stores[storeCounter].products.push(products[prodCounter].prodId);\n      storeProdCounter++;\n\n      emit LogAddProduct(prodCounter, _prodName, _prodDescription, _prodPrice);\n    }\n\n    /*\n        This function gets the store counter\n    */\n    function getNumberOfStores() public view returns (uint) {\n      return storeCounter;\n    }\n\n    /*\n        This function gets all the stores\n    */\n    function getStoresOwned() public view returns (uint[] memory) {\n      \n    /*\n        Store IDs\n    */\n      uint[] memory storeIds = new uint[](storeCounter);\n\n      uint numberOfStores = 0;\n\n    /*\n        Collect IDs of stores available\n    */\n      for (uint i = 1; i <= storeCounter; i++) {\n        if (stores[i].storeOwner != address(0)) {\n          storeIds[numberOfStores] = stores[i].storeId;\n          numberOfStores++;\n        }\n      }\n\n    /*\n        Create a storesOwned array\n    */\n      uint[] memory storesOwned = new uint[](numberOfStores);\n      for(uint j = 0; j < numberOfStores; j++) {\n        storesOwned[j] = storeIds[j];\n      }\n      return storesOwned;\n    }\n\n    /*\n        Select a store via id\n    */\n    function selectStore(uint _storeId)\n      public\n      view\n      returns (\n        uint,\n        string memory,\n        uint256,\n        address,\n        uint[] memory\n      )\n    {\n      require(\n        _storeId > 0 && _storeId <= getNumberOfStores(),\n        \"The store Id is not vaild\"\n      );\n\n      return (\n        stores[_storeId].storeId,\n        stores[_storeId].storeName,\n        stores[_storeId].storeBal,\n        stores[_storeId].storeOwner,\n        stores[_storeId].products\n      );\n\n      /*\n      emit LogSelectStore(\n          stores[_storeId].storeId,\n          stores[_storeId].storeName\n          //stores[_storeId].storeBal,\n          //stores[_storeId].storeOwnedBy\n      );\n      */\n    }\n\n    /*\n        This function gets the product counter\n    */\n    function getNumberOfProducts() public view returns (uint) {\n      return prodCounter;\n    }\n\n    /*\n        This function gets the products for sale\n    */\n    function getProductsForSale() public view returns (uint[] memory) {\n\n    /*\n        Store product IDs\n    */\n      uint[] memory productIds = new uint[](prodCounter);\n\n      uint numberOfProductsForSale = 0;\n\n    /*\n        Collect IDs of products still for available for sale\n    */\n      for (uint i = 1; i <= prodCounter; i++) {\n        if (products[i].purchaser != address(0)) {\n          productIds[numberOfProductsForSale] = products[i].prodId;\n          numberOfProductsForSale++;\n        }\n      }\n\n    /*\n        Create a forSale array\n    */\n      uint[] memory forSale = new uint[](numberOfProductsForSale);\n      for(uint j = 0; j < numberOfProductsForSale; j++) {\n        forSale[j] = productIds[j];\n      }\n      return forSale;\n    }\n\n    /*\n        This function gets the store's products by Id (can't return string[]\n        unless the experimental ABIEncoderv2 is enabled)\n\n    function getStoreProductsById (uint _storeId)\n      public\n      view\n      returns (uint[] memory) {\n\n        Store IDs\n\n      require(\n        _storeId > 0 && _storeId <= getNumberOfStores(),\n        \"The store Id is not vaild\"\n      );\n      uint[] memory storeProdIds = new uint[](prodCounter);\n\n      string[] memory storeProdNames = new string[](prodCounter);\n\n      uint numOfStoresProd = 0;\n\n\n        Collect IDs of stores products\n\n      for (uint i = 1; i <= prodCounter; i++) {\n        if (stores[_storeId].products[i] != 0) {\n          storeProdIds[numOfStoresProd] = stores[_storeId].products[i].prodId;\n          // storeProdNames[numOfStoresProd] = stores[_storeId].products[i].prodName;\n          numOfStoresProd++;\n        }\n      }\n\n\n\n        Create a prodIdsForSale and prodNamesForSale arrays\n\n      uint[] memory prodIdsForSale = new uint[](numOfStoresProd);\n\n      string[] memory prodNamesForSale = new string[](numOfStoresProd);\n\n      for(uint j = 0; j < numOfStoresProd; j++) {\n        prodIdsForSale[j] = storeProdIds[j];\n        prodNamesForSale[j] = storeProdNames[j];\n      }\n      return prodIdsForSale;\n    }\n    */\n\n    /*\n        Select a product via id\n    */\n    function selectProduct(uint _prodId)\n      public\n      view\n      returns (\n        uint,\n        string memory,\n        string memory,\n        uint256,\n        address\n      )\n    {\n      require(\n        _prodId > 0 && _prodId <= getNumberOfProducts(),\n        \"The product Id is not vaild\"\n      );\n      return (\n        products[_prodId].prodId,\n        products[_prodId].prodName,\n        products[_prodId].prodDescription,\n        products[_prodId].prodPrice,\n        products[_prodId].purchaser\n      );\n    }\n\n    /*\n        This function buys a product from store:\n          storeId\n          prodId\n          prodName\n          prodPrice\n    */\n    function buyProduct(uint _productId)\n      public\n      payable\n    {\n      require(\n        prodCounter > 0,\n        \"The product should be available\"\n      );\n\n      require(\n        _productId > 0 && _productId <= prodCounter,\n        \"The product should exists\"\n      );\n\n    /*\n        retrieve product\n    */\n      Product storage btproduct = products[_productId];\n\n      require(\n        storeProdCounter > 0,\n       \"There should be at least one product in the store\"\n      );\n\n      require(\n        btproduct.purchaser == address(0),\n        \"The product should not have been sold yet\"\n      );\n     \n      require(\n        btproduct.purchaser != msg.sender,\n        \"The store owner should not be allowed to buy their own products\"\n      );\n  \n      require(\n        btproduct.prodPrice == msg.value,\n          \"The msg.value does not match product price\"\n      );\n\n    /*\n        update purchaser\n    */\n        btproduct.purchaser = msg.sender;\n\n    /*\n        purchaser ma es purchase avoid re-entrancy here\n    */\n        btproduct.purchaser.transfer(msg.value); \n\n    /*\n        emit LogBuyProduct event\n    */\n        emit LogBuyProduct(\n          _productId,\n          btproduct.purchaser,\n          btproduct.prodName,\n          btproduct.prodPrice\n        );\n    }\n}",
  "sourcePath": "/Users/kokom/DEV/ETHEREUM/CONSENSYS/FPROJ/contracts/OnlineMP.sol",
  "compiler": {
    "name": "solc",
    "version": "0.6.1+commit.e6f7d5a4.Emscripten.clang"
  },
  "schemaVersion": "3.0.23",
  "updatedAt": "2020-04-28T06:18:29.961Z",
  "networkType": "ethereum",
  "devdoc": {
    "author": "zen2see",
    "methods": {},
    "title": "OnlineMarketPlace project"
  },
  "userdoc": {
    "methods": {}
  }
}