{
  "contractName": "OnlineMP",
  "abi": [
    {
      "constant": true,
      "inputs": [
        {
          "name": "",
          "type": "address"
        }
      ],
      "name": "isAdmin",
      "outputs": [
        {
          "name": "",
          "type": "bool"
        }
      ],
      "payable": false,
      "stateMutability": "view",
      "type": "function"
    },
    {
      "constant": true,
      "inputs": [
        {
          "name": "",
          "type": "uint256"
        }
      ],
      "name": "storeOwners",
      "outputs": [
        {
          "name": "",
          "type": "address"
        }
      ],
      "payable": false,
      "stateMutability": "view",
      "type": "function"
    },
    {
      "constant": true,
      "inputs": [
        {
          "name": "",
          "type": "uint256"
        }
      ],
      "name": "mpAdmins",
      "outputs": [
        {
          "name": "",
          "type": "address"
        }
      ],
      "payable": false,
      "stateMutability": "view",
      "type": "function"
    },
    {
      "constant": true,
      "inputs": [],
      "name": "buyer",
      "outputs": [
        {
          "name": "",
          "type": "address"
        }
      ],
      "payable": false,
      "stateMutability": "view",
      "type": "function"
    },
    {
      "constant": true,
      "inputs": [
        {
          "name": "",
          "type": "uint256"
        }
      ],
      "name": "products",
      "outputs": [
        {
          "name": "prodId",
          "type": "uint256"
        },
        {
          "name": "prodName",
          "type": "string"
        },
        {
          "name": "prodDescription",
          "type": "string"
        },
        {
          "name": "prodPrice",
          "type": "uint256"
        }
      ],
      "payable": false,
      "stateMutability": "view",
      "type": "function"
    },
    {
      "inputs": [],
      "payable": false,
      "stateMutability": "nonpayable",
      "type": "constructor"
    },
    {
      "anonymous": false,
      "inputs": [
        {
          "indexed": false,
          "name": "_logAstoresId",
          "type": "uint256"
        },
        {
          "indexed": false,
          "name": "_logAstoresName",
          "type": "string"
        }
      ],
      "name": "LogAddStore",
      "type": "event"
    },
    {
      "anonymous": false,
      "inputs": [
        {
          "indexed": false,
          "name": "_logAproductId",
          "type": "uint256"
        },
        {
          "indexed": false,
          "name": "_logAproductName",
          "type": "string"
        }
      ],
      "name": "LogAddProduct",
      "type": "event"
    },
    {
      "anonymous": false,
      "inputs": [
        {
          "indexed": false,
          "name": "_logSprodId",
          "type": "uint256"
        },
        {
          "indexed": false,
          "name": "_logSproductName",
          "type": "string"
        }
      ],
      "name": "LogSellProduct",
      "type": "event"
    },
    {
      "anonymous": false,
      "inputs": [
        {
          "indexed": false,
          "name": "_purchaser",
          "type": "address"
        },
        {
          "indexed": false,
          "name": "_products",
          "type": "uint256"
        }
      ],
      "name": "LogBuyProduct",
      "type": "event"
    },
    {
      "constant": false,
      "inputs": [
        {
          "name": "_idOfStore",
          "type": "uint256"
        },
        {
          "name": "_storeOwnerAddress",
          "type": "address"
        }
      ],
      "name": "addStoreOwners",
      "outputs": [
        {
          "name": "added",
          "type": "bool"
        }
      ],
      "payable": false,
      "stateMutability": "nonpayable",
      "type": "function"
    },
    {
      "constant": false,
      "inputs": [
        {
          "name": "storesId",
          "type": "uint256"
        },
        {
          "name": "pprice",
          "type": "uint256"
        }
      ],
      "name": "sellProduct",
      "outputs": [],
      "payable": false,
      "stateMutability": "nonpayable",
      "type": "function"
    },
    {
      "constant": false,
      "inputs": [],
      "name": "buyProduct",
      "outputs": [],
      "payable": false,
      "stateMutability": "nonpayable",
      "type": "function"
    }
  ],
  "bytecode": "0x6080604052606460045534801561001557600080fd5b506107fd806100256000396000f3fe608060405234801561001057600080fd5b50600436106100885760003560e01c80637150d8ae1161005b5780637150d8ae146101fd5780637acc0b20146102475780639ada9b7b14610368578063eccc008a1461037257610088565b806318b30a481461008d57806324d7806c146100c557806344d5099314610121578063575792321461018f575b600080fd5b6100c3600480360360408110156100a357600080fd5b8101908080359060200190929190803590602001909291905050506103d8565b005b610107600480360360208110156100db57600080fd5b81019080803573ffffffffffffffffffffffffffffffffffffffff1690602001909291905050506103f9565b604051808215151515815260200191505060405180910390f35b61014d6004803603602081101561013757600080fd5b8101908080359060200190929190505050610419565b604051808273ffffffffffffffffffffffffffffffffffffffff1673ffffffffffffffffffffffffffffffffffffffff16815260200191505060405180910390f35b6101bb600480360360208110156101a557600080fd5b8101908080359060200190929190505050610455565b604051808273ffffffffffffffffffffffffffffffffffffffff1673ffffffffffffffffffffffffffffffffffffffff16815260200191505060405180910390f35b610205610491565b604051808273ffffffffffffffffffffffffffffffffffffffff1673ffffffffffffffffffffffffffffffffffffffff16815260200191505060405180910390f35b6102736004803603602081101561025d57600080fd5b81019080803590602001909291905050506104b7565b604051808581526020018060200180602001848152602001838103835286818151815260200191508051906020019080838360005b838110156102c35780820151818401526020810190506102a8565b50505050905090810190601f1680156102f05780820380516001836020036101000a031916815260200191505b50838103825285818151815260200191508051906020019080838360005b8381101561032957808201518184015260208101905061030e565b50505050905090810190601f1680156103565780820380516001836020036101000a031916815260200191505b50965050505050505060405180910390f35b610370610617565b005b6103be6004803603604081101561038857600080fd5b8101908080359060200190929190803573ffffffffffffffffffffffffffffffffffffffff169060200190929190505050610686565b604051808215151515815260200191505060405180910390f35b81600560000181905550806005600201600082825403925050819055505050565b60036020528060005260406000206000915054906101000a900460ff1681565b6001818154811061042657fe5b906000526020600020016000915054906101000a900473ffffffffffffffffffffffffffffffffffffffff1681565b6000818154811061046257fe5b906000526020600020016000915054906101000a900473ffffffffffffffffffffffffffffffffffffffff1681565b600260009054906101000a900473ffffffffffffffffffffffffffffffffffffffff1681565b600a602052806000526040600020600091509050806000015490806001018054600181600116156101000203166002900480601f0160208091040260200160405190810160405280929190818152602001828054600181600116156101000203166002900480156105695780601f1061053e57610100808354040283529160200191610569565b820191906000526020600020905b81548152906001019060200180831161054c57829003601f168201915b505050505090806002018054600181600116156101000203166002900480601f0160208091040260200160405190810160405280929190818152602001828054600181600116156101000203166002900480156106075780601f106105dc57610100808354040283529160200191610607565b820191906000526020600020905b8154815290600101906020018083116105ea57829003601f168201915b5050505050908060030154905084565b6000600b5411610672576040517f08c379a000000000000000000000000000000000000000000000000000000000815260040180806020018281038252602381526020018061078a6023913960400191505060405180910390fd5b600b60008154809291906001019190505550565b600060011515600360003373ffffffffffffffffffffffffffffffffffffffff1673ffffffffffffffffffffffffffffffffffffffff16815260200190815260200160002060009054906101000a900460ff16151514610731576040517f08c379a00000000000000000000000000000000000000000000000000000000081526004018080602001828103825260258152602001806107ad6025913960400191505060405180910390fd5b8260056000018190555081600560030160006101000a81548173ffffffffffffffffffffffffffffffffffffffff021916908373ffffffffffffffffffffffffffffffffffffffff160217905550600190509291505056fe566572696679207468657265206172652070726f647563747320617661696c61626c654f6e6c7920616e2041646d696e2063616e2063616c6c20746869732066756e6374696f6e2ea165627a7a723058203dfd275b3736433186e95d963031c12c6d8755c9c6b7d65b65578b6b6f5f79a20029",
  "source": "pragma solidity >=0.5.0;\n\n    /// @author zen2see\n    /// @title OnlineMarketPlace project\n\n\n    /*\n        Simple OnlineMarketPlace that operates on the blockchain.\n    */\ncontract OnlineMP {\n    // state variables\n    address[] public mpAdmins;\n    address[] public storeOwners;\n    address public buyer;\n    mapping (address => bool) public isAdmin;\n    uint DEFAULT_PRICE = 100 wei;\n\n    /*\n        @notice A Store contains @storeId, @storeName, @storeBal, @storeOwner, @products, @shoppers\n        The struct has 5 fields: storeName, sroreBBal, storeOwner, product\n        Choose the appropriate variable type for each field.\n        The \"buyers\" field should keep track of addresses and how many tickets each buyer purchases.\n    */\n    struct Store {\n      uint storeId;\n      string storeName;\n      uint storeBal;\n      address storeOwner;\n      uint[] products;\n      // mapping (address => uint) shoppers;\n    }\n\n    Store stores;\n\n    /*\n        @notice A product:\n        Product id: @prodId\n        Product name: @prodName\n        Product desc: @prodDescription\n        Product price: @prodPrice\n    */\n    struct Product {\n      uint prodId;\n      string prodName;\n      string prodDescription;\n      uint prodPrice;\n    }\n\n    //  more state variables\n    mapping (uint => Product) public products;\n    uint prodCounter;\n\n    /*\n        LogAddStore should provide infromation about the store ID and store name\n    */\n    event LogAddStore(\n      uint _logAstoresId,\n      string _logAstoresName\n    );\n\n    /*\n        LogBuyTickets should provide information about the purchaser and the number of tickets purchased.\n        LogAddProduct should provide infromation about the product ID  and product name\n    */\n    event LogAddProduct(\n      uint _logAproductId,\n      string _logAproductName\n    );\n\n    /*\n        LogSellProduct should provide information about the product ID and product name\n    */\n    event LogSellProduct(\n      uint _logSprodId,\n      string _logSproductName\n    );\n\n    /*\n        LogBuyTickets should provide information about the purchaser and the # of prodcuts purchased.\n    */\n    event LogBuyProduct(\n      address _purchaser,\n      uint _products\n    );\n\n\n    /*\n        Create a modifier that throws an error if the msg.sender is not the owner.\n\n    modifier isOwner() {\n      require(\n        msg.sender == owner,\n        \"Only owner can call this function.\"\n      );\n      _;\n    }\n    */\n\n    /*\n        Create a modifier that throws an error if the msg.sender is not the owner.\n    */\n    modifier isAddressAdmin() {\n      require(\n        isAdmin[msg.sender] == true,\n        \"Only an Admin can call this function.\"\n      );\n      _;\n    }\n\n\n    /*\n        Define a constructor.\n        The constructor takes 3 arguments, the description, the URL and the number of tickets for sale.\n        Set the owner to the creator of the contract.\n        Set the appropriate myEvent details.\n    */\n    constructor ()\n      public\n    {\n      //mpAdmins[0] = msg.sender;\n    }\n\n    // Add store OWNER\n    function addStoreOwners(uint _idOfStore, address _storeOwnerAddress)\n      public\n      isAddressAdmin()\n      returns(bool added)\n    {   // need to put an if condition and return false if fails\n        stores.storeId = _idOfStore;\n        stores.storeOwner = _storeOwnerAddress;\n        return true;\n    }\n\n    // sell a product\n    function sellProduct(uint storesId, uint pprice)\n      // payable\n      public\n    {\n      stores.storeId = storesId;\n      stores.storeBal -= pprice;\n\n    }\n\n    // buy a products\n    function buyProduct()\n      public\n    {\n      // check if products are available\n\n      require(\n        prodCounter > 0,\n        \"Verify there are products available\"\n      );\n      // require buyer is not store owner or admin\n      prodCounter++;\n    }\n\n    //function addStore(string _storename)\n\n    /*\n    centralMarketStores -- managed by admins who can add stores\n    admins -- allow storeOwners to addStores() to centralMarket\n    storeOwners -- can manage their stores funds and inventory\n    stores\n      inventory funds\n      goods\n    shoppers can purchase goods in stock from store storeOwners\n    */\n\n    /*\n    LogBuyTickets should provide information about the purchaser and the number of tickets purchased.\n    LogGetRefund should provide information about the refund requester and the number of tickets refunded.\n    LogEndSale should provide infromation about the contract owner and the balance transferred to them.\n    */\n}\n",
  "sourcePath": "/Users/kokom/DEV/ETHEREUM/CONSENSYS/FPROJ/contracts/OnlineMP.sol",
  "compiler": {
    "name": "solc",
    "version": "0.5.8+commit.23d335f2.Emscripten.clang"
  },
  "schemaVersion": "3.0.11",
  "updatedAt": "2019-07-28T20:16:14.060Z",
  "devdoc": {
    "author": "zen2see",
    "methods": {},
    "title": "OnlineMarketPlace project"
  },
  "userdoc": {
    "methods": {}
  }
}