{
  "contractName": "OnlineMP",
  "abi": [
    {
      "inputs": [],
      "stateMutability": "nonpayable",
      "type": "constructor"
    },
    {
      "anonymous": false,
      "inputs": [
        {
          "indexed": true,
          "internalType": "uint256",
          "name": "_prodId",
          "type": "uint256"
        },
        {
          "indexed": false,
          "internalType": "string",
          "name": "_prodName",
          "type": "string"
        },
        {
          "indexed": false,
          "internalType": "string",
          "name": "_prodDesc",
          "type": "string"
        },
        {
          "indexed": false,
          "internalType": "uint256",
          "name": "_prodPrice",
          "type": "uint256"
        },
        {
          "indexed": true,
          "internalType": "uint256",
          "name": "_storesId",
          "type": "uint256"
        }
      ],
      "name": "LogAddProduct",
      "type": "event"
    },
    {
      "anonymous": false,
      "inputs": [
        {
          "indexed": true,
          "internalType": "uint256",
          "name": "_storeIdp",
          "type": "uint256"
        },
        {
          "indexed": true,
          "internalType": "address",
          "name": "_storeOwner",
          "type": "address"
        },
        {
          "indexed": false,
          "internalType": "string",
          "name": "_storeName",
          "type": "string"
        }
      ],
      "name": "LogAddStore",
      "type": "event"
    },
    {
      "anonymous": false,
      "inputs": [
        {
          "indexed": true,
          "internalType": "address",
          "name": "_newStoreOwner",
          "type": "address"
        }
      ],
      "name": "LogAddStoreOwner",
      "type": "event"
    },
    {
      "anonymous": false,
      "inputs": [
        {
          "indexed": true,
          "internalType": "address",
          "name": "_isAdminFail",
          "type": "address"
        }
      ],
      "name": "LogAdminFail",
      "type": "event"
    },
    {
      "anonymous": false,
      "inputs": [
        {
          "indexed": true,
          "internalType": "uint256",
          "name": "_prodId",
          "type": "uint256"
        },
        {
          "indexed": true,
          "internalType": "address",
          "name": "_prodOwner",
          "type": "address"
        },
        {
          "indexed": true,
          "internalType": "address",
          "name": "_purchaser",
          "type": "address"
        },
        {
          "indexed": false,
          "internalType": "string",
          "name": "_prodName",
          "type": "string"
        },
        {
          "indexed": false,
          "internalType": "uint256",
          "name": "_prodPrice",
          "type": "uint256"
        },
        {
          "indexed": false,
          "internalType": "uint256",
          "name": "_storeIdp",
          "type": "uint256"
        }
      ],
      "name": "LogBuyProduct",
      "type": "event"
    },
    {
      "anonymous": false,
      "inputs": [
        {
          "indexed": false,
          "internalType": "bytes",
          "name": "data",
          "type": "bytes"
        }
      ],
      "name": "LogMsgData",
      "type": "event"
    },
    {
      "anonymous": false,
      "inputs": [
        {
          "indexed": true,
          "internalType": "uint256",
          "name": "_storeIDp",
          "type": "uint256"
        },
        {
          "indexed": true,
          "internalType": "address",
          "name": "_storeOwner",
          "type": "address"
        },
        {
          "indexed": false,
          "internalType": "string",
          "name": "_prodName",
          "type": "string"
        },
        {
          "indexed": false,
          "internalType": "uint256",
          "name": "_prodPrice",
          "type": "uint256"
        }
      ],
      "name": "LogSellProduct",
      "type": "event"
    },
    {
      "anonymous": false,
      "inputs": [
        {
          "indexed": true,
          "internalType": "address",
          "name": "previousOwner",
          "type": "address"
        },
        {
          "indexed": true,
          "internalType": "address",
          "name": "newOwner",
          "type": "address"
        }
      ],
      "name": "OwnershipTransferred",
      "type": "event"
    },
    {
      "inputs": [],
      "name": "fb",
      "outputs": [
        {
          "internalType": "uint256",
          "name": "",
          "type": "uint256"
        }
      ],
      "stateMutability": "view",
      "type": "function",
      "constant": true
    },
    {
      "inputs": [
        {
          "internalType": "address",
          "name": "",
          "type": "address"
        }
      ],
      "name": "isMPadmins",
      "outputs": [
        {
          "internalType": "bool",
          "name": "",
          "type": "bool"
        }
      ],
      "stateMutability": "view",
      "type": "function",
      "constant": true
    },
    {
      "inputs": [
        {
          "internalType": "address",
          "name": "",
          "type": "address"
        }
      ],
      "name": "isStoreOwners",
      "outputs": [
        {
          "internalType": "bool",
          "name": "",
          "type": "bool"
        }
      ],
      "stateMutability": "view",
      "type": "function",
      "constant": true
    },
    {
      "inputs": [],
      "name": "mpAdmin",
      "outputs": [
        {
          "internalType": "address",
          "name": "",
          "type": "address"
        }
      ],
      "stateMutability": "view",
      "type": "function",
      "constant": true
    },
    {
      "inputs": [],
      "name": "owner",
      "outputs": [
        {
          "internalType": "address",
          "name": "",
          "type": "address"
        }
      ],
      "stateMutability": "view",
      "type": "function",
      "constant": true
    },
    {
      "inputs": [
        {
          "internalType": "uint256",
          "name": "",
          "type": "uint256"
        }
      ],
      "name": "products",
      "outputs": [
        {
          "internalType": "uint256",
          "name": "prodId",
          "type": "uint256"
        },
        {
          "internalType": "string",
          "name": "prodName",
          "type": "string"
        },
        {
          "internalType": "string",
          "name": "prodDesc",
          "type": "string"
        },
        {
          "internalType": "uint256",
          "name": "prodPrice",
          "type": "uint256"
        },
        {
          "internalType": "address payable",
          "name": "purchaser",
          "type": "address"
        },
        {
          "internalType": "address",
          "name": "prodOwner",
          "type": "address"
        },
        {
          "internalType": "uint256",
          "name": "storeIdp",
          "type": "uint256"
        }
      ],
      "stateMutability": "view",
      "type": "function",
      "constant": true
    },
    {
      "inputs": [],
      "name": "renounceOwnership",
      "outputs": [],
      "stateMutability": "nonpayable",
      "type": "function"
    },
    {
      "inputs": [
        {
          "internalType": "uint256",
          "name": "",
          "type": "uint256"
        }
      ],
      "name": "stores",
      "outputs": [
        {
          "internalType": "uint256",
          "name": "storeId",
          "type": "uint256"
        },
        {
          "internalType": "string",
          "name": "storeName",
          "type": "string"
        },
        {
          "internalType": "uint256",
          "name": "storeBal",
          "type": "uint256"
        },
        {
          "internalType": "address payable",
          "name": "storeOwner",
          "type": "address"
        }
      ],
      "stateMutability": "view",
      "type": "function",
      "constant": true
    },
    {
      "inputs": [
        {
          "internalType": "address",
          "name": "newOwner",
          "type": "address"
        }
      ],
      "name": "transferOwnership",
      "outputs": [],
      "stateMutability": "nonpayable",
      "type": "function"
    },
    {
      "stateMutability": "payable",
      "type": "receive",
      "payable": true
    },
    {
      "inputs": [],
      "name": "kill",
      "outputs": [],
      "stateMutability": "nonpayable",
      "type": "function"
    },
    {
      "inputs": [
        {
          "internalType": "address",
          "name": "_newStoreOwner",
          "type": "address"
        }
      ],
      "name": "addStoreOwner",
      "outputs": [],
      "stateMutability": "nonpayable",
      "type": "function"
    },
    {
      "inputs": [
        {
          "internalType": "string",
          "name": "_storeName",
          "type": "string"
        }
      ],
      "name": "addStore",
      "outputs": [],
      "stateMutability": "nonpayable",
      "type": "function"
    },
    {
      "inputs": [
        {
          "internalType": "string",
          "name": "_prodName",
          "type": "string"
        },
        {
          "internalType": "string",
          "name": "_prodDesc",
          "type": "string"
        },
        {
          "internalType": "uint256",
          "name": "_prodPrice",
          "type": "uint256"
        },
        {
          "internalType": "uint256",
          "name": "_storesId",
          "type": "uint256"
        }
      ],
      "name": "addProduct",
      "outputs": [],
      "stateMutability": "nonpayable",
      "type": "function"
    },
    {
      "inputs": [],
      "name": "getNumberOfStores",
      "outputs": [
        {
          "internalType": "uint256",
          "name": "",
          "type": "uint256"
        }
      ],
      "stateMutability": "view",
      "type": "function",
      "constant": true
    },
    {
      "inputs": [],
      "name": "getStoresOwned",
      "outputs": [
        {
          "internalType": "uint256[]",
          "name": "",
          "type": "uint256[]"
        }
      ],
      "stateMutability": "view",
      "type": "function",
      "constant": true
    },
    {
      "inputs": [
        {
          "internalType": "uint256",
          "name": "_storeId",
          "type": "uint256"
        }
      ],
      "name": "selectStore",
      "outputs": [
        {
          "internalType": "uint256",
          "name": "",
          "type": "uint256"
        },
        {
          "internalType": "string",
          "name": "",
          "type": "string"
        },
        {
          "internalType": "uint256",
          "name": "",
          "type": "uint256"
        },
        {
          "internalType": "address",
          "name": "",
          "type": "address"
        },
        {
          "internalType": "uint256[]",
          "name": "",
          "type": "uint256[]"
        }
      ],
      "stateMutability": "view",
      "type": "function",
      "constant": true
    },
    {
      "inputs": [],
      "name": "getNumberOfProducts",
      "outputs": [
        {
          "internalType": "uint256",
          "name": "",
          "type": "uint256"
        }
      ],
      "stateMutability": "view",
      "type": "function",
      "constant": true
    },
    {
      "inputs": [],
      "name": "getProductsForSale",
      "outputs": [
        {
          "internalType": "uint256[]",
          "name": "",
          "type": "uint256[]"
        }
      ],
      "stateMutability": "view",
      "type": "function",
      "constant": true
    },
    {
      "inputs": [
        {
          "internalType": "uint256",
          "name": "_prodId",
          "type": "uint256"
        }
      ],
      "name": "selectProduct",
      "outputs": [
        {
          "internalType": "uint256",
          "name": "",
          "type": "uint256"
        },
        {
          "internalType": "string",
          "name": "",
          "type": "string"
        },
        {
          "internalType": "string",
          "name": "",
          "type": "string"
        },
        {
          "internalType": "uint256",
          "name": "",
          "type": "uint256"
        },
        {
          "internalType": "address",
          "name": "",
          "type": "address"
        }
      ],
      "stateMutability": "view",
      "type": "function",
      "constant": true
    },
    {
      "inputs": [
        {
          "internalType": "uint256",
          "name": "_prodId",
          "type": "uint256"
        }
      ],
      "name": "buyProduct",
      "outputs": [],
      "stateMutability": "payable",
      "type": "function",
      "payable": true
    }
  ],
  "bytecode": "0x60806040523480156200001157600080fd5b506000620000276001600160e01b03620000b416565b600080546001600160a01b0319166001600160a01b0383169081178255604051929350917f8be0079c531659141344cd1fd0a4f28419497f9722a3daafe3b4186f6b6457e0908290a350620000846001600160e01b03620000b816565b600380546001600160a01b0319166001600160a01b039283161790819055620000ae9116620000c7565b62000161565b3390565b6000546001600160a01b031690565b620000da6001600160e01b03620000b416565b6000546001600160a01b039081169116146200013d576040805162461bcd60e51b815260206004820181905260248201527f4f776e61626c653a2063616c6c6572206973206e6f7420746865206f776e6572604482015290519081900360640190fd5b6001600160a01b03166000908152600460205260409020805460ff19166001179055565b61206180620001716000396000f3fe6080604052600436106101225760003560e01c80636ee4bc03116100a05780638da5cb5b116100645780638da5cb5b146108ef5780639adeb5f114610904578063e8a59cd814610937578063eb666475146109f6578063f2fde38b14610a0b576101c6565b80636ee4bc03146106f4578063715018a61461073b57806377a2a439146107505780637acc0b20146107835780638642269e146108d2576101c6565b8063440113dd116100e7578063440113dd146104b7578063553b8b69146105e6578063597aa5b2146105fb5780635b6696eb14610610578063662feffc14610641576101c6565b8062e840bf146101cb57806301cecd14146102305780633e505685146103715780633ffd81fb1461047b57806341c0e1b5146104a2576101c6565b366101c6577f84a7e86a5530dbab0d699a72cd56748c29585a63e9b2b8281b9acdf52e9d161e610150610a3e565b6040805160208082528351818301528351919283929083019185019080838360005b8381101561018a578181015183820152602001610172565b50505050905090810190601f1680156101b75780820380516001836020036101000a031916815260200191505b509250505060405180910390a1005b600080fd5b3480156101d757600080fd5b506101e0610a7e565b60408051602080825283518183015283519192839290830191858101910280838360005b8381101561021c578181015183820152602001610204565b505050509050019250505060405180910390f35b34801561023c57600080fd5b5061036f6004803603608081101561025357600080fd5b81019060208101813564010000000081111561026e57600080fd5b82018360208201111561028057600080fd5b803590602001918460018302840111640100000000831117156102a257600080fd5b91908080601f01602080910402602001604051908101604052809392919081815260200183838082843760009201919091525092959493602081019350359150506401000000008111156102f557600080fd5b82018360208201111561030757600080fd5b8035906020019184600183028401116401000000008311171561032957600080fd5b91908080601f0160208091040260200160405190810160405280939291908181526020018383808284376000920191909152509295505082359350505060200135610b8b565b005b34801561037d57600080fd5b5061039b6004803603602081101561039457600080fd5b5035610e3c565b6040518086815260200180602001858152602001846001600160a01b03166001600160a01b0316815260200180602001838103835287818151815260200191508051906020019080838360005b838110156104005781810151838201526020016103e8565b50505050905090810190601f16801561042d5780820380516001836020036101000a031916815260200191505b508381038252845181528451602091820191808701910280838360005b8381101561046257818101518382015260200161044a565b5050505090500197505050505050505060405180910390f35b34801561048757600080fd5b50610490610fd5565b60408051918252519081900360200190f35b3480156104ae57600080fd5b5061036f610fdb565b3480156104c357600080fd5b506104e1600480360360208110156104da57600080fd5b5035611058565b604051808681526020018060200180602001858152602001846001600160a01b03166001600160a01b03168152602001838103835287818151815260200191508051906020019080838360005b8381101561054657818101518382015260200161052e565b50505050905090810190601f1680156105735780820380516001836020036101000a031916815260200191505b50838103825286518152865160209182019188019080838360005b838110156105a657818101518382015260200161058e565b50505050905090810190601f1680156105d35780820380516001836020036101000a031916815260200191505b5097505050505050505060405180910390f35b3480156105f257600080fd5b506101e061122b565b34801561060757600080fd5b50610490611330565b34801561061c57600080fd5b50610625611336565b604080516001600160a01b039092168252519081900360200190f35b34801561064d57600080fd5b5061036f6004803603602081101561066457600080fd5b81019060208101813564010000000081111561067f57600080fd5b82018360208201111561069157600080fd5b803590602001918460018302840111640100000000831117156106b357600080fd5b91908080601f016020809104026020016040519081016040528093929190818152602001838380828437600092019190915250929550611345945050505050565b34801561070057600080fd5b506107276004803603602081101561071757600080fd5b50356001600160a01b0316611554565b604080519115158252519081900360200190f35b34801561074757600080fd5b5061036f611569565b34801561075c57600080fd5b506107276004803603602081101561077357600080fd5b50356001600160a01b031661161d565b34801561078f57600080fd5b506107ad600480360360208110156107a657600080fd5b5035611632565b604051808881526020018060200180602001878152602001866001600160a01b03166001600160a01b03168152602001856001600160a01b03166001600160a01b03168152602001848152602001838103835289818151815260200191508051906020019080838360005b83811015610830578181015183820152602001610818565b50505050905090810190601f16801561085d5780820380516001836020036101000a031916815260200191505b5083810382528851815288516020918201918a019080838360005b83811015610890578181015183820152602001610878565b50505050905090810190601f1680156108bd5780820380516001836020036101000a031916815260200191505b50995050505050505050505060405180910390f35b61036f600480360360208110156108e857600080fd5b5035611791565b3480156108fb57600080fd5b50610625611b4a565b34801561091057600080fd5b5061036f6004803603602081101561092757600080fd5b50356001600160a01b0316611b59565b34801561094357600080fd5b506109616004803603602081101561095a57600080fd5b5035611c05565b604080518581529081018390526001600160a01b038216606082015260806020808301828152865192840192909252855160a084019187019080838360005b838110156109b85781810151838201526020016109a0565b50505050905090810190601f1680156109e55780820380516001836020036101000a031916815260200191505b509550505050505060405180910390f35b348015610a0257600080fd5b50610490611cc2565b348015610a1757600080fd5b5061036f60048036036020811015610a2e57600080fd5b50356001600160a01b0316611cc8565b60606000368080601f0160208091040260200160405190810160405280939291908181526020018383808284376000920191909152509293505050505b90565b606080600a54604051908082528060200260200182016040528015610aad578160200160208202803883390190505b509050600060015b600a548111610b15576000818152600960205260409020600401546001600160a01b031615610b0d576000818152600960205260409020548351849084908110610afb57fe5b60209081029190910101526001909101905b600101610ab5565b50606081604051908082528060200260200182016040528015610b42578160200160208202803883390190505b50905060005b82811015610b8357838181518110610b5c57fe5b6020026020010151828281518110610b7057fe5b6020908102919091010152600101610b48565b509250505090565b610b93611dd2565b6001600160a01b03811660009081526005602052604090205460ff168015610bda57506007546000908152600660205260409020600301546001600160a01b038281169116145b610c155760405162461bcd60e51b815260040180806020018281038252602c815260200180611f25602c913960400191505060405180910390fd5b600a80546001908101918290556040805160e08101825283815260208082018a81528284018a905260608301899052336080840152600060a0840181905260c084018990529586526009825292909420815181559151805191949293610c819390850192910190611dd6565b5060408201518051610c9d916002840191602090910190611dd6565b506060828101516003830155608080840151600480850180546001600160a01b039384166001600160a01b03199182161790915560a08701516005870180549190941691161790915560c090940151600693840155600086815260209384526040808220600a8054919097018054600181810183559185528785200191909155600880549091019055945485519586018990528386528a51938601939093528951879593947fdc8901680a14494fba03af97e072192a5137e162a96b38a660e3a4d867b779e7948c948c948c949293849384820193850192918901918190849084905b83811015610d98578181015183820152602001610d80565b50505050905090810190601f168015610dc55780820380516001836020036101000a031916815260200191505b50838103825285518152855160209182019187019080838360005b83811015610df8578181015183820152602001610de0565b50505050905090810190601f168015610e255780820380516001836020036101000a031916815260200191505b509550505050505060405180910390a35050505050565b600060606000806060600086118015610e5c5750610e58611330565b8611155b610ead576040805162461bcd60e51b815260206004820152601960248201527f5468652073746f7265204964206973206e6f74207661696c6400000000000000604482015290519081900360640190fd5b600086815260066020908152604091829020805460028083015460038401546001808601805489516101009382161593909302600019011694909404601f81018890048802820188019098528781529396929591946001600160a01b03909116936004909101929091869190830182828015610f6a5780601f10610f3f57610100808354040283529160200191610f6a565b820191906000526020600020905b815481529060010190602001808311610f4d57829003601f168201915b50508454604080516020808402820181019092528281529599508694509092508401905082828015610fbb57602002820191906000526020600020905b815481526020019060010190808311610fa7575b505050505090509450945094509450945091939590929450565b600a5490565b610fe3611dd2565b6000546001600160a01b03908116911614611045576040805162461bcd60e51b815260206004820181905260248201527f4f776e61626c653a2063616c6c6572206973206e6f7420746865206f776e6572604482015290519081900360640190fd5b61104d611dd2565b6001600160a01b0316ff5b60006060806000806000861180156110775750611073610fd5565b8611155b6110c8576040805162461bcd60e51b815260206004820152601b60248201527f5468652070726f64756374204964206973206e6f74207661696c640000000000604482015290519081900360640190fd5b6000868152600960209081526040918290208054600382015460048301546001808501805488516002610100948316159490940260001901909116839004601f810189900489028201890190995288815294979096919095019492936001600160a01b039092169286918301828280156111835780601f1061115857610100808354040283529160200191611183565b820191906000526020600020905b81548152906001019060200180831161116657829003601f168201915b5050865460408051602060026001851615610100026000190190941693909304601f8101849004840282018401909252818152959950889450925084019050828280156112115780601f106111e657610100808354040283529160200191611211565b820191906000526020600020905b8154815290600101906020018083116111f457829003601f168201915b50989f979e50929c50939a50919850939650505050505050565b60608060075460405190808252806020026020018201604052801561125a578160200160208202803883390190505b509050600060015b60075481116112c2576000818152600660205260409020600301546001600160a01b0316156112ba5760008181526006602052604090205483518490849081106112a857fe5b60209081029190910101526001909101905b600101611262565b506060816040519080825280602002602001820160405280156112ef578160200160208202803883390190505b50905060005b82811015610b835783818151811061130957fe5b602002602001015182828151811061131d57fe5b60209081029190910101526001016112f5565b60075490565b6003546001600160a01b031681565b61134d611dd2565b6001600160a01b03811660009081526005602052604090205460ff166113a45760405162461bcd60e51b815260040180806020018281038252602a815260200180611fa1602a913960400191505060405180910390fd5b60078054600101908190556040805160a081018252828152602080820186905233803183850152606083015260009384526006815292829020600401805483518186028101860190945280845291936080850193929083018282801561142957602002820191906000526020600020905b815481526020019060010190808311611415575b505050919092525050600754600090815260066020908152604090912082518155828201518051919261146492600185019290910190611dd6565b506040820151600282015560608201516003820180546001600160a01b0319166001600160a01b03909216919091179055608082015180516114b0916004840191602090910190611e54565b505060075460408051602080825286518183015286513395507fdbc4c681c741afb74673129b92c2100d80c142f4ad2df7984c385b5846f5a501938893928392918301919085019080838360005b838110156115165781810151838201526020016114fe565b50505050905090810190601f1680156115435780820380516001836020036101000a031916815260200191505b509250505060405180910390a35050565b60046020526000908152604090205460ff1681565b611571611dd2565b6000546001600160a01b039081169116146115d3576040805162461bcd60e51b815260206004820181905260248201527f4f776e61626c653a2063616c6c6572206973206e6f7420746865206f776e6572604482015290519081900360640190fd5b600080546040516001600160a01b03909116907f8be0079c531659141344cd1fd0a4f28419497f9722a3daafe3b4186f6b6457e0908390a3600080546001600160a01b0319169055565b60056020526000908152604090205460ff1681565b6009602090815260009182526040918290208054600180830180548651600293821615610100026000190190911692909204601f8101869004860283018601909652858252919492939092908301828280156116cf5780601f106116a4576101008083540402835291602001916116cf565b820191906000526020600020905b8154815290600101906020018083116116b257829003601f168201915b50505060028085018054604080516020601f60001961010060018716150201909416959095049283018590048502810185019091528181529596959450909250908301828280156117615780601f1061173657610100808354040283529160200191611761565b820191906000526020600020905b81548152906001019060200180831161174457829003601f168201915b505050600384015460048501546005860154600690960154949591946001600160a01b0391821694509116915087565b611799611dd2565b6001600160a01b03811660009081526005602052604090205460ff1680156117e057506007546000908152600660205260409020600301546001600160a01b038281169116145b1561181c5760405162461bcd60e51b8152600401808060200182810382526030815260200180611ffc6030913960400191505060405180910390fd5b6000600a5411611873576040805162461bcd60e51b815260206004820152601f60248201527f5468652070726f647563742073686f756c6420626520617661696c61626c6500604482015290519081900360640190fd5b6000821180156118855750600a548211155b6118d6576040805162461bcd60e51b815260206004820152601960248201527f5468652070726f647563742073686f756c642065786973747300000000000000604482015290519081900360640190fd5b60008281526009602052604090206008546119225760405162461bcd60e51b8152600401808060200182810382526031815260200180611fcb6031913960400191505060405180910390fd5b600581015460048201546001600160a01b03908116911614156119765760405162461bcd60e51b815260040180806020018281038252602c815260200180611ed3602c913960400191505060405180910390fd5b60048101546001600160a01b0316156119c05760405162461bcd60e51b8152600401808060200182810382526029815260200180611f516029913960400191505060405180910390fd5b34816003015414611a025760405162461bcd60e51b815260040180806020018281038252602a815260200180611ea9602a913960400191505060405180910390fd5b611a0a611dd2565b6004820180546001600160a01b039283166001600160a01b031990911617908190556040519116903480156108fc02916000818181858888f19350505050158015611a59573d6000803e3d6000fd5b5060048101546005820154600383015460068401546040805160208101849052908101829052606080825260018088018054600261010093821615939093026000190116919091049183018290526001600160a01b03968716969095169489947fdaf59048ac28a11d91dccf7a39e49abb3a71691d4881023bb612ef9315b8513a94919390928190608082019086908015611b355780601f10611b0a57610100808354040283529160200191611b35565b820191906000526020600020905b815481529060010190602001808311611b1857829003601f168201915b505094505050505060405180910390a4505050565b6000546001600160a01b031690565b611b61611dd2565b6001600160a01b03811660009081526004602052604090205460ff16611bb85760405162461bcd60e51b8152600401808060200182810382526027815260200180611f7a6027913960400191505060405180910390fd5b6001600160a01b038216600081815260056020526040808220805460ff19166001179055517f632c478d4510e5cd586269712169624deb8069be220c1e95ad1453982128955b9190a25050565b6006602090815260009182526040918290208054600180830180548651600293821615610100026000190190911692909204601f810186900486028301860190965285825291949293909290830182828015611ca25780601f10611c7757610100808354040283529160200191611ca2565b820191906000526020600020905b815481529060010190602001808311611c8557829003601f168201915b5050505060028301546003909301549192916001600160a01b0316905084565b60015481565b611cd0611dd2565b6000546001600160a01b03908116911614611d32576040805162461bcd60e51b815260206004820181905260248201527f4f776e61626c653a2063616c6c6572206973206e6f7420746865206f776e6572604482015290519081900360640190fd5b6001600160a01b038116611d775760405162461bcd60e51b8152600401808060200182810382526026815260200180611eff6026913960400191505060405180910390fd5b600080546040516001600160a01b03808516939216917f8be0079c531659141344cd1fd0a4f28419497f9722a3daafe3b4186f6b6457e091a3600080546001600160a01b0319166001600160a01b0392909216919091179055565b3390565b828054600181600116156101000203166002900490600052602060002090601f016020900481019282601f10611e1757805160ff1916838001178555611e44565b82800160010185558215611e44579182015b82811115611e44578251825591602001919060010190611e29565b50611e50929150611e8e565b5090565b828054828255906000526020600020908101928215611e445791602002820182811115611e44578251825591602001919060010190611e29565b610a7b91905b80821115611e505760008155600101611e9456fe546865206d73672e76616c756520646f6573206e6f74206d617463682070726f647563742070726963655468652070726f64756374206f776e65722063616e6e6f742062757920686973206f776e2070726f647563744f776e61626c653a206e6577206f776e657220697320746865207a65726f20616464726573734f6e6c79207468652073746f7265206f776e65722063616e2063616c6c20746869732066756e6374696f6e2e5468652070726f647563742073686f756c64206e6f742068617665206265656e20736f6c64207965744d75737420626520616e2061646d696e20746f2063616c6c20746869732066756e6374696f6e2e4f6e6c7920612073746f7265206f776e65722063616e2063616c6c20746869732066756e6374696f6e2e54686572652073686f756c64206265206174206c65617374206f6e652070726f6475637420696e207468652073746f726543616e6e6f74206265207468652073746f7265206f776e657220746f2063616c6c20746869732066756e6374696f6e2ea26469706673582212207da529c38537fc7011332972c9c220d8353e0b8875f60c89a38aacfe1828f4b664736f6c63430006010033",
  "source": "// SPDX-License-Identifier: MIT\n\npragma solidity >=0.6.0 < 0.7.0;\n/**\n * @title OnlineMP\n * @author zen2see\n * @notice Implements an Online Market Place\n */\n\n// import \"./GSN/Context.sol\";\nimport \"./Ownable.sol\";\n\n/*********************************************************************\\\n * @notice  Simple OnlineMarketPlace that operates on the blockchain *\n\\*********************************************************************/\n    \ncontract OnlineMP is Ownable {\n    \n    uint public fb;\n    uint storeIdp;\n    address public mpAdmin;\n    mapping(address => bool) public isMPadmins;\n    mapping(address => bool) public isStoreOwners;\n\n    /**\n     *  @notice A Store:\n     *  @param Store id: @storeId\n     *  @param Store name: @storeName\n     *  @param Store balance: @storeBal\n     *  @param Store owner: @storeOwner\n     *  @param Store products: @products\n     */\n    struct Store {\n        uint storeId;\n        string storeName;\n        uint256 storeBal;\n        address payable storeOwner;\n        uint[] storeProducts;\n    }\n\n    /**\n     *  @notice state variables, declare a store as a structure type through mapping\n     */ \n    mapping(uint => Store) public stores;\n    \n    uint storeCounter;\n    \n    /**\n     *  @notice store the stores product count (public for getter())\n     */\n    uint storeProdCounter;\n\n    /**\n     *  @notice A Product: \n     *  @param Product id: @prodId\n     *  @param Product name: @prodName\n     *  @param Product desc: @prodDesc\n     *  @param Product price: @prodPrice\n     *  @param Product purchaser: @purchaser\n     *  @param Product owner: @prodOwner\n     *  @param Product id of store it belongs to\n     */\n    struct Product {\n        uint prodId;\n        string prodName;\n        string prodDesc;\n        uint256 prodPrice;\n        address payable purchaser;\n        address prodOwner;\n        uint storeIdp;\n    }\n\n    mapping(uint => Product) public products; \n    uint prodCounter;\n\n    /**\n        LogSelectStore should provide info about the store selected\n    \n    event LogSelectStore(\n      uint indexed _storeId,\n      string _storeName\n      uint256 _storeBal,\n      address _storeOwner\n      uint[] _storeProducts\n    );\n    */\n\n    /**\n     *  @notice LogAddStore should provide info about the store ID, store owner and store name\n     *  @param _storeIdp the store id\n     *  @param _storeOwner the store owner\n     *  @param _storeName the store name\n     */\n    event LogAddStore(\n        uint indexed _storeIdp,\n        address indexed _storeOwner,\n        string _storeName  \n    );\n\n    /**\n     *  @notice LogAddProduct should provide info about product ID, name, desc and price\n     *  @param _prodId the product id\n     *  @param _prodName the product name\n     *  @param _prodDesc the product description\n     *  @param _prodPrice the product price\n     *  @param _storesId the id of the store this product belongs to\n     */\n    event LogAddProduct(\n        uint indexed _prodId,\n        string _prodName,\n        string _prodDesc,\n        uint256 _prodPrice,\n        uint indexed _storesId\n    );\n\n    /**\n     *  @notice LogBuyTickets should provide info about prod ID, seller (store owner), purchaser, prod name and prod price\n     */ \n    event LogBuyProduct(\n        uint indexed _prodId,\n        address indexed _prodOwner,\n        address indexed _purchaser,\n        string  _prodName,\n        uint256 _prodPrice,\n        uint _storeIdp\n    );\n\n    /**\n     *  @notice LogSellProduct should provide info about the product ID, seller (store owner), product name and price\n     */\n    event LogSellProduct(\n        uint indexed _storeIDp,\n        address indexed _storeOwner,\n        string  _prodName,\n        uint256 _prodPrice\n    );\n\n    /**\n     *  @notice LogMsgData should provide the MsgData\n     */\n    event LogMsgData(\n        bytes data\n    );\n\n    /**\n     *  @notice LogAddStoreOwner should provide info about a new store owner\n     */\n    event LogAddStoreOwner(\n        address indexed _newStoreOwner\n    );\n\n    /**\n     *  @notice LogAdminFail should provide info about Admin rights issue\n     */\n    event LogAdminFail(\n        address indexed _isAdminFail\n    );\n\n    /**\n     *  @notice Create a modifier that throws an error if the address !isAdmin\n     */\n    modifier onlyAdmin(address _isAdmin) {\n        require(\n            isMPadmins[_isAdmin],\n            \"Must be an admin to call this function.\"\n        );\n        _;\n    }\n\n    /**\n     *  @notice Create a modifier that throws an error if the address !isStoreOwner\n     */\n    modifier isStoreOwner(address _isStoreOwner) {\n        require(\n            isStoreOwners[_isStoreOwner],\n            \"Only a store owner can call this function.\"\n        );\n        _;\n    }\n\n    /**\n     *  @notice Create a modifier that throws an error if the address !storeOwner of the store\n     */\n    modifier onlyStoreOwner(address _onlyStoreOwner) {\n        require(\n            isStoreOwners[_onlyStoreOwner] && stores[storeCounter].storeOwner == _onlyStoreOwner,\n            \"Only the store owner can call this function.\"\n        );\n        _;\n    }\n\n    /**\n     *  @notice Create a modifier that throws an error if the address is storeOwner of the store\n     */\n    modifier notOnlyStoreOwner(address _notOnlyStoreOwner) {\n        require(\n            !(isStoreOwners[_notOnlyStoreOwner] && stores[storeCounter].storeOwner == _notOnlyStoreOwner),\n            \"Cannot be the store owner to call this function.\"\n        );\n        _;\n    }\n    \n    /** \n     *  @notice Calling the Ownable constructor to insure that the address deploying this contract is \n     *  regsitered as owner and to set owner as an admin\n     */\n    constructor() \n        public\n        Ownable()\n    {\n        mpAdmin = owner();      \n        addAdmin(mpAdmin);\n    }\n\n    /**\n     *  @notice Payable fallback\n     */\n    receive() external payable {\n        emit LogMsgData(_msgData());\n    }\n\n    /**\n     *  @notice kill the smart contract\n     */\n    function kill() public onlyOwner {\n        selfdestruct(_msgSender());\n    }\n    \n    /**\n     *  @notice This function adds an MPadmin\n     *  @param _newAdmin the new admin\n     */\n    function addAdmin(address _newAdmin)\n        internal\n        virtual\n        onlyOwner\n    {  \n        isMPadmins[_newAdmin] = true;\n    }\n\n    /**\n     *  @notice This function adds an address as a store owner\n     *  @param _newStoreOwner the new store owner\n     */ \n    function addStoreOwner(address _newStoreOwner)\n        public\n        onlyAdmin(_msgSender())\n    {\n        isStoreOwners[_newStoreOwner] = true;\n        emit LogAddStoreOwner(_newStoreOwner); \n    }\n\n\n    /**\n     *  @notice This function adds values for the store id, name and owner:\n     *  @param _storeName the store name\n     */\n    function addStore(string memory _storeName)\n        public\n        isStoreOwner(_msgSender())\n    {\n\n        /**\n         *  @notice store counter\n         */\n        storeCounter++;\n\n        /**\n         *  @notice update via StoreId\n         */\n        stores[storeCounter] = Store(\n            storeCounter,\n            _storeName,\n            msg.sender.balance,\n            msg.sender,\n            stores[storeCounter].storeProducts\n        ); \n\n        emit LogAddStore(storeCounter, msg.sender, _storeName);\n    }\n\n    /**\n     *  @notice This function adds a product\n     *  @dev the prodcut id is derived from the counter\n     *  @param _prodName the product name\n     *  @param _prodDesc the product description\n     *  @param _prodPrice the product price\n     *  @param _storesId the id of the store for this product\n     *  @dev the store id of which the product is listed \n     */\n    function addProduct(\n        string memory _prodName,\n        string memory _prodDesc,\n        uint _prodPrice,\n        uint _storesId\n    )\n        public\n        onlyStoreOwner(_msgSender())\n    {\n      \n        prodCounter++;\n    \n        /**\n         *  @notice update via storeId\n         */\n        products[prodCounter] = Product(\n            prodCounter,\n            _prodName,\n            _prodDesc,\n            _prodPrice,\n            msg.sender,\n            address(0),\n            _storesId\n        );\n\n        stores[_storesId].storeProducts.push(prodCounter);\n        storeProdCounter++;\n\n        emit LogAddProduct(prodCounter, _prodName, _prodDesc, _prodPrice, _storesId);\n    }\n\n    /**\n     *  @notice This function gets the store counter\n     *  @return the number of stores\n     */\n    function getNumberOfStores() public view returns (uint) {\n        return storeCounter;\n    }\n\n    /**\n     *  @notice This function gets all the stores\n     *  @return the number of stores owned \n     */\n    function getStoresOwned() public view returns (uint[] memory) {\n        \n       /**\n        *  @notice Store IDs\n        */\n        uint[] memory storeIds = new uint[](storeCounter);\n\n        uint numberOfStores = 0;\n\n       /**\n        *  @notice Collect IDs of stores available\n        */\n       for (uint i = 1; i <= storeCounter; i++) {\n           if (stores[i].storeOwner != address(0)) {\n               storeIds[numberOfStores] = stores[i].storeId;\n               numberOfStores++;\n           }  \n        }\n\n        /**\n         *  @notice Create a storesOwned array\n         */\n         uint[] memory storesOwned = new uint[](numberOfStores);\n         for(uint j = 0; j < numberOfStores; j++) {\n             storesOwned[j] = storeIds[j];\n         }\n         return storesOwned;\n      }\n\n    /**\n     *  @notice Select a store via id\n     *  @param _storeId the store id\n     *  @return the store id\n     *  @return the store name\n     *  @return the store owner\n     *  @return the store products\n     */\n    function selectStore(uint _storeId)\n        public\n        view\n        returns (\n            uint,\n            string memory,\n            uint256,\n            address,\n            uint[] memory\n        )\n    {\n      require(\n         _storeId > 0 && _storeId <= getNumberOfStores(),\n         \"The store Id is not vaild\"\n      );\n\n      return (\n          stores[_storeId].storeId,\n          stores[_storeId].storeName,\n          stores[_storeId].storeBal,\n          stores[_storeId].storeOwner,\n          stores[_storeId].storeProducts\n      );\n\n      /*\n      emit LogSelectStore(\n          stores[_storeId].storeId,\n          stores[_storeId].storeName\n          //stores[_storeId].storeBal,\n          //stores[_storeId].storeOwnedBy\n      );\n      */\n    }\n\n    /**\n     *  @notice This function gets the product counter\n     *  @return the product counter\n     */\n    function getNumberOfProducts() public view returns (uint) {\n        return prodCounter;\n    }\n\n    /**\n     *  @notice This function gets the products for sale\n     *  @return the products for sale\n     */\n    function getProductsForSale() public view returns (uint[] memory) {\n\n        /**\n         *  @notice Store product IDs\n         */\n        uint[] memory productIds = new uint[](prodCounter);\n\n        uint numberOfProductsForSale = 0;\n\n        /**\n         *  @notice Collect IDs of products still for available for sale\n         */\n        for (uint i = 1; i <= prodCounter; i++) {\n            if (products[i].purchaser != address(0)) {\n                productIds[numberOfProductsForSale] = products[i].prodId;\n                numberOfProductsForSale++;\n            }\n        }\n\n        /**\n         *  @notice Create a forSale array\n         */\n         uint[] memory forSale = new uint[](numberOfProductsForSale);\n         for(uint j = 0; j < numberOfProductsForSale; j++) {\n             forSale[j] = productIds[j];\n         }\n         return forSale;\n    }\n\n    /*\n        This function gets the store's products by Id (can't return string[]\n        unless the experimental ABIEncoderv2 is enabled)\n\n    function getStoreProductsById (uint _storeId)\n      public\n      view\n      returns (uint[] memory) {\n\n        Store IDs\n\n      require(\n        _storeId > 0 && _storeId <= getNumberOfStores(),\n        \"The store Id is not vaild\"\n      );\n      uint[] memory storeProdIds = new uint[](prodCounter);\n\n      string[] memory storeProdNames = new string[](prodCounter);\n\n      uint numOfStoresProd = 0;\n\n\n        Collect IDs of stores products\n\n      for (uint i = 1; i <= prodCounter; i++) {\n        if (stores[_storeId].products[i] != 0) {\n          storeProdIds[numOfStoresProd] = stores[_storeId].products[i].prodId;\n          // storeProdNames[numOfStoresProd] = stores[_storeId].products[i].prodName;\n          numOfStoresProd++;\n        }\n      }\n\n\n\n        Create a prodIdsForSale and prodNamesForSale arrays\n\n      uint[] memory prodIdsForSale = new uint[](numOfStoresProd);\n\n      string[] memory prodNamesForSale = new string[](numOfStoresProd);\n\n      for(uint j = 0; j < numOfStoresProd; j++) {\n        prodIdsForSale[j] = storeProdIds[j];\n        prodNamesForSale[j] = storeProdNames[j];\n      }\n      return prodIdsForSale;\n    }\n    */\n\n    /**\n     *  @notice Select a product via id\n     *  @return product's prodId\n     *  @return product's prodName\n     *  @return product's prodDescription\n     *  @return product's productPrice\n     *  @return product's product.purchaser\n     */\n    function selectProduct(uint _prodId)\n        public\n        view\n        returns (\n            uint,\n            string memory,\n            string memory,\n            uint256,\n            address\n        )\n    {\n          require(\n              _prodId > 0 && _prodId <= getNumberOfProducts(),\n              \"The product Id is not vaild\"\n          );\n\n          return (\n              products[_prodId].prodId,\n              products[_prodId].prodName,\n              products[_prodId].prodDesc,\n              products[_prodId].prodPrice,\n              products[_prodId].purchaser\n        );\n    }\n\n    /**\n     *  @notice This function buys a product from store:\n     *  @param _prodId the product id\n     */\n    function buyProduct(uint _prodId)\n        public\n        payable\n        notOnlyStoreOwner(_msgSender())\n    {\n        require(\n            prodCounter > 0,\n            \"The product should be available\"\n        );\n\n        require(\n            _prodId > 0 && _prodId <= prodCounter,\n            \"The product should exists\"\n        );\n\n        /**\n         * @notice retrieve product\n         */\n        Product storage btproduct = products[_prodId];\n\n        /**\n         *  @notice retrieve the storeId\n         \n        uint tstore = products[_productId].storeIdp;\n        */\n        require(\n            storeProdCounter > 0,\n            \"There should be at least one product in the store\"\n        );\n\n        require(\n            btproduct.purchaser != btproduct.prodOwner,\n            \"The product owner cannot buy his own product\"\n        );\n        \n        require(\n            btproduct.purchaser == address(0),\n            \"The product should not have been sold yet\"\n        );\n        \n        require(\n            btproduct.prodPrice == msg.value,\n            \"The msg.value does not match product price\"\n        );\n\n        /**\n         *  @notice update purchaser\n         */\n        btproduct.purchaser = _msgSender();\n\n        /**\n         *  @notice purchaser makes purchase avoid re-entrancy here\n         */\n        btproduct.purchaser.transfer(msg.value);\n\n        /**\n         *  @notice decrement product counters\n         \n        delete stores[btstore].storeProducts[_productId];\n        prodCounter--;\n        storeProdCounter--;\n        */ \n        /**\n         *  @notice emit LogBuyProduct event\n         */\n        emit LogBuyProduct(\n            _prodId,\n            btproduct.prodOwner,\n            btproduct.purchaser,\n            btproduct.prodName,\n            btproduct.prodPrice,\n            btproduct.storeIdp\n        );\n    }\n\n    /**\n     *  @notice transfer ownership\n     \n    function */\n}",
  "sourcePath": "/Users/kokom/DEV/ETHEREUM/CONSENSYS/FPROJ/contracts/OnlineMP.sol",
  "compiler": {
    "name": "solc",
    "version": "0.6.1+commit.e6f7d5a4.Emscripten.clang"
  },
  "schemaVersion": "3.0.23",
  "updatedAt": "2020-06-19T14:58:18.332Z",
  "networkType": "ethereum",
  "devdoc": {
    "methods": {
      "addProduct(string,string,uint256,uint256)": {
        "details": "the prodcut id is derived from the counterthe store id of which the product is listed ",
        "params": {
          "_prodDesc": "the product description",
          "_prodName": "the product name",
          "_prodPrice": "the product price",
          "_storesId": "the id of the store for this product"
        }
      },
      "addStore(string)": {
        "params": {
          "_storeName": "the store name"
        }
      },
      "addStoreOwner(address)": {
        "params": {
          "_newStoreOwner": "the new store owner"
        }
      },
      "buyProduct(uint256)": {
        "params": {
          "_prodId": "the product id"
        }
      },
      "owner()": {
        "details": "Returns the address of the current owner."
      },
      "renounceOwnership()": {
        "details": "Leaves the contract without owner. It will not be possible to call `onlyOwner` functions anymore. Can only be called by the current owner.     * NOTE: Renouncing ownership will leave the contract without an owner, thereby removing any functionality that is only available to the owner."
      },
      "selectStore(uint256)": {
        "params": {
          "_storeId": "the store id"
        },
        "returns": {
          "_0": "the store id",
          "_1": "the store name",
          "_2": "the store owner",
          "_3": "the store products"
        }
      },
      "transferOwnership(address)": {
        "details": "Transfers ownership of the contract to a new account (`newOwner`). Can only be called by the current owner."
      }
    }
  },
  "userdoc": {
    "methods": {
      "addProduct(string,string,uint256,uint256)": {
        "notice": "This function adds a product"
      },
      "addStore(string)": {
        "notice": "This function adds values for the store id, name and owner:"
      },
      "addStoreOwner(address)": {
        "notice": "This function adds an address as a store owner"
      },
      "buyProduct(uint256)": {
        "notice": "This function buys a product from store:"
      },
      "constructor": "Calling the Ownable constructor to insure that the address deploying this contract is  regsitered as owner and to set owner as an admin",
      "getNumberOfProducts()": {
        "notice": "This function gets the product counter"
      },
      "getNumberOfStores()": {
        "notice": "This function gets the store counter"
      },
      "getProductsForSale()": {
        "notice": "This function gets the products for sale"
      },
      "getStoresOwned()": {
        "notice": "This function gets all the stores"
      },
      "kill()": {
        "notice": "kill the smart contract"
      },
      "selectProduct(uint256)": {
        "notice": "Select a product via id"
      },
      "selectStore(uint256)": {
        "notice": "Select a store via id"
      }
    },
    "notice": "*******************************************************************\\Simple OnlineMarketPlace that operates on the blockchain * \\********************************************************************"
  }
}